{
  "contractName": "AddressBook",
  "abi": [
    {
      "inputs": [
        {
          "internalType": "string",
          "name": "_name",
          "type": "string"
        }
      ],
      "payable": false,
      "stateMutability": "nonpayable",
      "type": "constructor"
    },
    {
      "constant": true,
      "inputs": [
        {
          "internalType": "address",
          "name": "",
          "type": "address"
        }
      ],
      "name": "book",
      "outputs": [
        {
          "internalType": "string",
          "name": "",
          "type": "string"
        }
      ],
      "payable": false,
      "stateMutability": "view",
      "type": "function"
    },
    {
      "constant": true,
      "inputs": [],
      "name": "participant_count",
      "outputs": [
        {
          "internalType": "uint256",
          "name": "",
          "type": "uint256"
        }
      ],
      "payable": false,
      "stateMutability": "view",
      "type": "function"
    },
    {
      "constant": true,
      "inputs": [
        {
          "internalType": "uint256",
          "name": "",
          "type": "uint256"
        }
      ],
      "name": "participants",
      "outputs": [
        {
          "internalType": "address payable",
          "name": "",
          "type": "address"
        }
      ],
      "payable": false,
      "stateMutability": "view",
      "type": "function"
    },
    {
      "constant": false,
      "inputs": [
        {
          "internalType": "address payable",
          "name": "_address",
          "type": "address"
        },
        {
          "internalType": "string",
          "name": "_name",
          "type": "string"
        }
      ],
      "name": "addParticipant",
      "outputs": [],
      "payable": false,
      "stateMutability": "nonpayable",
      "type": "function"
    },
    {
      "constant": true,
      "inputs": [],
      "name": "getParticipants",
      "outputs": [
        {
          "internalType": "address payable[]",
          "name": "",
          "type": "address[]"
        }
      ],
      "payable": false,
      "stateMutability": "view",
      "type": "function"
    }
  ],
  "bytecode": "0x60806040526000805534801561001457600080fd5b506040516107c63803806107c68339818101604052602081101561003757600080fd5b810190808051604051939291908464010000000082111561005757600080fd5b90830190602082018581111561006c57600080fd5b825164010000000081118282018810171561008657600080fd5b82525081516020918201929091019080838360005b838110156100b357818101518382015260200161009b565b50505050905090810190601f1680156100e05780820380516001836020036101000a031916815260200191505b506040908152600180548082019091557fb10e2d527612073b26eecdfd717e6a320cf44b4afac2b0732d9fcbe2b7fa0cf60180546001600160a01b03191633908117909155600090815260026020908152919020855161014895509093509085019150610158565b50506000805460010190556101f3565b828054600181600116156101000203166002900490600052602060002090601f016020900481019282601f1061019957805160ff19168380011785556101c6565b828001600101855582156101c6579182015b828111156101c65782518255916020019190600101906101ab565b506101d29291506101d6565b5090565b6101f091905b808211156101d257600081556001016101dc565b90565b6105c4806102026000396000f3fe608060405234801561001057600080fd5b50600436106100575760003560e01c806335c1d3491461005c5780635aa68ac0146100955780636c18fb81146100ed5780637ca8146014610107578063b68feb84146101a2575b600080fd5b6100796004803603602081101561007257600080fd5b503561025a565b604080516001600160a01b039092168252519081900360200190f35b61009d610281565b60408051602080825283518183015283519192839290830191858101910280838360005b838110156100d95781810151838201526020016100c1565b505050509050019250505060405180910390f35b6100f56102e4565b60408051918252519081900360200190f35b61012d6004803603602081101561011d57600080fd5b50356001600160a01b03166102ea565b6040805160208082528351818301528351919283929083019185019080838360005b8381101561016757818101518382015260200161014f565b50505050905090810190601f1680156101945780820380516001836020036101000a031916815260200191505b509250505060405180910390f35b610258600480360360408110156101b857600080fd5b6001600160a01b0382351691908101906040810160208201356401000000008111156101e357600080fd5b8201836020820111156101f557600080fd5b8035906020019184600183028401116401000000008311171561021757600080fd5b91908080601f016020809104026020016040519081016040528093929190818152602001838380828437600092019190915250929550610383945050505050565b005b6001818154811061026757fe5b6000918252602090912001546001600160a01b0316905081565b606060018054806020026020016040519081016040528092919081815260200182805480156102d957602002820191906000526020600020905b81546001600160a01b031681526001909101906020018083116102bb575b505050505090505b90565b60005481565b600260208181526000928352604092839020805484516001821615610100026000190190911693909304601f810183900483028401830190945283835291929083018282801561037b5780601f106103505761010080835404028352916020019161037b565b820191906000526020600020905b81548152906001019060200180831161035e57829003601f168201915b505050505081565b336000908152600260208190526040909120546000196101006001831615020116046103f6576040805162461bcd60e51b815260206004820152601b60248201527f43616c6c6572206973206e6f742061207061727469636970616e740000000000604482015290519081900360640190fd5b6001600160a01b0382166000908152600260208190526040909120546000196101006001831615020116041561045d5760405162461bcd60e51b815260040180806020018281038252602581526020018061056b6025913960400191505060405180910390fd5b600180548082019091557fb10e2d527612073b26eecdfd717e6a320cf44b4afac2b0732d9fcbe2b7fa0cf60180546001600160a01b0319166001600160a01b038416908117909155600090815260026020908152604090912082516104c4928401906104d2565b505060008054600101905550565b828054600181600116156101000203166002900490600052602060002090601f016020900481019282601f1061051357805160ff1916838001178555610540565b82800160010185558215610540579182015b82811115610540578251825591602001919060010190610525565b5061054c929150610550565b5090565b6102e191905b8082111561054c576000815560010161055656fe54686973206164647265737320697320616c72656164792061207061727469636970616e74a265627a7a723158204660e18342e1d5dca083ec30f37de3a5db5e6078bfc541e288c18fd45cd375e164736f6c634300050c0032",
  "source": "pragma solidity ^0.5.11;\n\ncontract AddressBook {\n\n    uint public participant_count = 0;\n\n    address payable[] public participants;\n    mapping(address => string) public book;\n\n    constructor(string memory _name) public {\n        participants.push(msg.sender);\n        book[msg.sender] = _name;\n        participant_count++;\n    }\n\n    modifier participantsOnly() {\n\t\t// checks that the sender is a validator of task\n\t\trequire(bytes(book[msg.sender]).length > 0, \"Caller is not a participant\");\n\t\t_;\n\t}\n\n    function addParticipant(address payable _address, string memory _name) public participantsOnly() {\n\n        require(bytes(book[_address]).length == 0, \"This address is already a participant\");\n\n        participants.push(_address);\n        book[_address] = _name;\n        participant_count++;\n    }\n\n\tfunction getParticipants() public view returns (address payable[] memory) {\n\t\treturn participants;\n\t}\n\n}",
  "sourcePath": "/Users/pabrasey/Dropbox/01_Formation/ETHZ/01_Master/02_projects/Master Thesis/Production/Code/ipd-block/contracts/AddressBook.sol",
  "compiler": {
    "name": "solc",
    "version": "0.5.12+commit.7709ece9.Emscripten.clang"
  },
  "schemaVersion": "3.0.19",
  "updatedAt": "2020-01-08T11:41:43.701Z",
  "networkType": "ethereum",
  "devdoc": {
    "methods": {}
  },
  "userdoc": {
    "methods": {}
  }
}