{
  "contractName": "Rewards",
  "abi": [
    {
      "inputs": [
        {
          "internalType": "address",
          "name": "_ppctoken_address",
          "type": "address"
        },
        {
          "internalType": "address",
          "name": "_addressbook_address",
          "type": "address"
        }
      ],
      "payable": false,
      "stateMutability": "nonpayable",
      "type": "constructor"
    },
    {
      "constant": true,
      "inputs": [],
      "name": "addressbook",
      "outputs": [
        {
          "internalType": "contract AddressBook",
          "name": "",
          "type": "address"
        }
      ],
      "payable": false,
      "stateMutability": "view",
      "type": "function"
    },
    {
      "constant": true,
      "inputs": [],
      "name": "reward_count",
      "outputs": [
        {
          "internalType": "uint256",
          "name": "",
          "type": "uint256"
        }
      ],
      "payable": false,
      "stateMutability": "view",
      "type": "function"
    },
    {
      "constant": true,
      "inputs": [
        {
          "internalType": "uint256",
          "name": "",
          "type": "uint256"
        }
      ],
      "name": "rewards",
      "outputs": [
        {
          "internalType": "uint256",
          "name": "id",
          "type": "uint256"
        },
        {
          "internalType": "enum Rewards.State",
          "name": "state",
          "type": "uint8"
        },
        {
          "internalType": "enum Rewards.Token",
          "name": "token",
          "type": "uint8"
        },
        {
          "internalType": "uint256",
          "name": "amount",
          "type": "uint256"
        }
      ],
      "payable": false,
      "stateMutability": "view",
      "type": "function"
    },
    {
      "constant": true,
      "inputs": [
        {
          "internalType": "uint256",
          "name": "",
          "type": "uint256"
        }
      ],
      "name": "validators",
      "outputs": [
        {
          "internalType": "address",
          "name": "",
          "type": "address"
        }
      ],
      "payable": false,
      "stateMutability": "view",
      "type": "function"
    },
    {
      "constant": true,
      "inputs": [
        {
          "internalType": "address",
          "name": "",
          "type": "address"
        }
      ],
      "name": "validators_map",
      "outputs": [
        {
          "internalType": "bool",
          "name": "",
          "type": "bool"
        }
      ],
      "payable": false,
      "stateMutability": "view",
      "type": "function"
    },
    {
      "constant": false,
      "inputs": [
        {
          "internalType": "address",
          "name": "_validator",
          "type": "address"
        }
      ],
      "name": "addValidator",
      "outputs": [],
      "payable": false,
      "stateMutability": "nonpayable",
      "type": "function"
    },
    {
      "constant": true,
      "inputs": [],
      "name": "getValidators",
      "outputs": [
        {
          "internalType": "address[]",
          "name": "",
          "type": "address[]"
        }
      ],
      "payable": false,
      "stateMutability": "view",
      "type": "function"
    },
    {
      "constant": false,
      "inputs": [],
      "name": "fundPool",
      "outputs": [],
      "payable": true,
      "stateMutability": "payable",
      "type": "function"
    },
    {
      "constant": false,
      "inputs": [
        {
          "internalType": "enum Rewards.Token",
          "name": "_token",
          "type": "uint8"
        },
        {
          "internalType": "uint256",
          "name": "_amount",
          "type": "uint256"
        }
      ],
      "name": "createReward",
      "outputs": [],
      "payable": false,
      "stateMutability": "nonpayable",
      "type": "function"
    },
    {
      "constant": false,
      "inputs": [
        {
          "internalType": "uint256",
          "name": "_reward_id",
          "type": "uint256"
        }
      ],
      "name": "validateReward",
      "outputs": [],
      "payable": false,
      "stateMutability": "nonpayable",
      "type": "function"
    },
    {
      "constant": true,
      "inputs": [],
      "name": "getContractBalance",
      "outputs": [
        {
          "internalType": "uint256",
          "name": "",
          "type": "uint256"
        }
      ],
      "payable": false,
      "stateMutability": "view",
      "type": "function"
    }
  ],
  "bytecode": "0x608060405260008055670de0b6b3a764000060055534801561002057600080fd5b50604051610ac5380380610ac58339818101604052604081101561004357600080fd5b508051602091820151600380546001600160a01b03199081166001600160a01b0394851617909155600480548216939092169290921790556001805480820182557fb10e2d527612073b26eecdfd717e6a320cf44b4afac2b0732d9fcbe2b7fa0cf6018054339316831790556000918252600290925260408120805460ff19169092179091556109ec9081906100d990396000f3fe60806040526004361061009c5760003560e01c80636f9fb98a116100645780636f9fb98a146101c057806370dc320c146101e757806370f37d27146101fc578063963c94b914610204578063b7ab4db514610219578063f301af421461027e5761009c565b8063091ceea8146100a15780630f2bd634146100cd57806335aa2e44146101005780634d238c8e1461014657806365e832f214610179575b600080fd5b3480156100ad57600080fd5b506100cb600480360360208110156100c457600080fd5b50356102ec565b005b3480156100d957600080fd5b506100cb600480360360408110156100f057600080fd5b5060ff8135169060200135610454565b34801561010c57600080fd5b5061012a6004803603602081101561012357600080fd5b5035610500565b604080516001600160a01b039092168252519081900360200190f35b34801561015257600080fd5b506100cb6004803603602081101561016957600080fd5b50356001600160a01b0316610527565b34801561018557600080fd5b506101ac6004803603602081101561019c57600080fd5b50356001600160a01b0316610647565b604080519115158252519081900360200190f35b3480156101cc57600080fd5b506101d561065c565b60408051918252519081900360200190f35b3480156101f357600080fd5b5061012a610661565b6100cb610670565b34801561021057600080fd5b506101d5610672565b34801561022557600080fd5b5061022e610678565b60408051602080825283518183015283519192839290830191858101910280838360005b8381101561026a578181015183820152602001610252565b505050509050019250505060405180910390f35b34801561028a57600080fd5b506102a8600480360360208110156102a157600080fd5b50356106da565b604051808581526020018460018111156102be57fe5b60ff1681526020018380156102cf57fe5b60ff16815260200182815260200194505050505060405180910390f35b3360009081526002602052604090205460ff16610350576040805162461bcd60e51b815260206004820181905260248201527f43616c6c6572206973206e6f742061207265776172642076616c696461746f72604482015290519081900360640190fd5b600081815260066020526040812060019081015460ff169081111561037157fe5b146103ad5760405162461bcd60e51b81526004018080602001828103825260338152602001806109856033913960400191505060405180910390fd5b6000818152600660209081526040808320338452600381019092528220805460ff1916600117905590805b60015461ffff8216101561042f5782600301600060018361ffff16815481106103fd57fe5b60009182526020808320909101546001600160a01b0316835282019290925260400190205460ff1691506001016103d8565b50801561044f576001828101805460ff1916909117905561044f83610708565b505050565b60005461045f610938565b604080516080810182528381526000602082015290810185801561047f57fe5b81526020908101859052600084815260068252604090208251815590820151600180830180549495508594909160ff199091169083818111156104be57fe5b0217905550604082015160018201805461ff0019166101008380156104df57fe5b02179055506060919091015160029091015550506000805460010190555050565b6001818154811061050d57fe5b6000918252602090912001546001600160a01b0316905081565b3360009081526002602052604090205460ff1661058b576040805162461bcd60e51b815260206004820181905260248201527f43616c6c6572206973206e6f742061207265776172642076616c696461746f72604482015290519081900360640190fd5b6001600160a01b03811660009081526002602052604090205460ff16156105e35760405162461bcd60e51b81526004018080602001828103825260238152602001806109626023913960400191505060405180910390fd5b6001805480820182557fb10e2d527612073b26eecdfd717e6a320cf44b4afac2b0732d9fcbe2b7fa0cf60180546001600160a01b039093166001600160a01b031990931683179055600091825260026020526040909120805460ff19169091179055565b60026020526000908152604090205460ff1681565b303190565b6004546001600160a01b031681565b565b60005481565b606060018054806020026020016040519081016040528092919081815260200182805480156106d057602002820191906000526020600020905b81546001600160a01b031681526001909101906020018083116106b2575b5050505050905090565b600660205260009081526040902080546001820154600290920154909160ff80821692610100909204169084565b60008181526006602052604080822060048054835163016a9a2b60e61b8152935192946060946001600160a01b0390921693635aa68ac09383810193829003018186803b15801561075857600080fd5b505afa15801561076c573d6000803e3d6000fd5b505050506040513d6000823e601f3d908101601f19168201604052602081101561079557600080fd5b81019080805160405193929190846401000000008211156107b557600080fd5b9083019060208201858111156107ca57600080fd5b82518660208202830111640100000000821117156107e757600080fd5b82525081516020918201928201910280838360005b838110156108145781810151838201526020016107fc565b50505050905001604052505050905060008090505b815181101561093257600082828151811061084057fe5b602090810291909101015190506000806001860154610100900460ff16801561086557fe5b14156108f157600554600354604080516370a0823160e01b81526001600160a01b038681166004830152915191909216916370a08231916024808301926020929190829003018186803b1580156108bb57600080fd5b505afa1580156108cf573d6000803e3d6000fd5b505050506040513d60208110156108e557600080fd5b50516002870154020290505b6040516001600160a01b0383169082156108fc029083906000818181858888f19350505050158015610927573d6000803e3d6000fd5b505050600101610829565b50505050565b60408051608081019091526000808252602082019081526020016000815260200160008152509056fe54686973206164647265737320697320616c726561647920612076616c696461746f72546869732072657761726420646f6573206e6f7420657869737473206f7220697320616c72656164792076616c696461746564a265627a7a723158209e7b86bf6f00cbecfeba5ab09d0a882d9b86922ffd211c5c29cedfbe63d40a1c64736f6c634300050c0032",
  "source": "pragma solidity ^0.5.11;\n\nimport './PPCToken.sol';\nimport './AddressBook.sol';\n\ncontract Rewards{\n\n\t/*\n\t------------\tDATA & TYPES   ------------\n\t*/\n\n    uint public reward_count = 0;\n\n    enum State { created, validated }\n\n    enum Token { ppc }\n\n    address[] public validators;\n    mapping(address => bool) public validators_map;\n\n    PPCToken private ppctoken;\n    AddressBook public addressbook;\n\n    uint one_ether = 1 ether;\n\n    struct Reward {\n        uint id;\n        State state;\n        Token token;\n        uint amount;\n        mapping(address => bool) validations;\n    }\n\n    mapping(uint => Reward) public rewards;\n\n    constructor (address _ppctoken_address, address _addressbook_address) public {\n\t\tppctoken = PPCToken(_ppctoken_address);\n        addressbook = AddressBook(_addressbook_address);\n\n        // add deployer as validator\n        validators.push(msg.sender);\n\t\tvalidators_map[msg.sender] = true;\n\t}\n\n\t/*\n\t------------\tMODIFIERS    ------------\n\t*/\n\n    modifier validatorsOnly() {\n\t\t// checks that the sender is a validator of task\n\t\trequire(validators_map[msg.sender], \"Caller is not a reward validator\");\n\t\t_;\n\t}\n\n\t/*\n\t------------\tFUNCTIONS    ------------\n\t*/\n\n    // adds a validator\n    function addValidator(address _validator) public validatorsOnly {\n\n        require(!validators_map[_validator], \"This address is already a validator\");\n\n\t\tvalidators.push(_validator);\n\t\tvalidators_map[_validator] = true;\n\t}\n\n    // get the array of validators\n\tfunction getValidators() public view returns (address[] memory) {\n\t\treturn validators;\n\t}\n\n    // stores ether in this contract (the reward pool)\n    function fundPool() public payable {\n        // ethers are automatically stored in the contract just by implementing this payable function\n\t}\n\n    // proposes to give a (_amount * _token holding) reward in _coin to all _token holders in the address_book\n    function createReward(Token _token, uint _amount) public {\n\n        uint _id = reward_count;\n\n        Reward memory _reward = Reward ({\n            id: _id,\n            state: State.created,\n            token: _token,\n            amount: _amount\n        });\n\n        rewards[_id] = _reward;\n        reward_count++;\n    }\n\n    // validates the given reward from the validator calling the function\n    function validateReward(uint _reward_id) public validatorsOnly {\n\n        require(rewards[_reward_id].state == State.created, \"This reward does not exists or is already validated\");\n\n        Reward storage _reward = rewards[_reward_id];\n\n        _reward.validations[msg.sender] = true;\n        bool validated = false;\n\n        // go through every validator's validation\n        for(uint16 i = 0; i < validators.length; i++) {\n            validated = _reward.validations[validators[i]];\n        }\n        // accept the task if all validators have validated it;\n        if(validated){\n            _reward.state = State.validated;\n            sendReward(_reward_id);\n        }\n    }\n\n    //TODO: check sufficient founds\n\n    // sends (_amount * _token holding) reward in ether to all _token holders in the address_book\n    function sendReward(uint _reward_id) internal {\n\n        Reward storage _reward = rewards[_reward_id];\n\n        address payable[] memory _participants = addressbook.getParticipants();\n\n        for(uint i = 0; i < _participants.length; i++) {\n\n            address payable _participant = _participants[i];\n            uint eth_amount = 0;\n\n            if(_reward.token == Token.ppc){\n                eth_amount = _reward.amount * ppctoken.balanceOf(_participant) * one_ether;\n            }\n\n            _participant.transfer(eth_amount);\n        }\n    }\n\n    // returns the amount of ether stored in this contract\n    function getContractBalance() public view returns (uint256) {\n        return address(this).balance;\n    }\n\n}",
  "sourcePath": "/Users/pabrasey/Dropbox/01_Formation/ETHZ/01_Master/02_projects/Master Thesis/Production/Code/ipd-block/contracts/Rewards.sol",
  "compiler": {
    "name": "solc",
    "version": "0.5.12+commit.7709ece9.Emscripten.clang"
  },
  "schemaVersion": "3.0.19",
  "updatedAt": "2020-01-17T11:10:03.349Z",
  "networkType": "ethereum",
  "devdoc": {
    "methods": {}
  },
  "userdoc": {
    "methods": {}
  }
}