{
  "contractName": "TaskList",
  "abi": [
    {
      "inputs": [
        {
          "internalType": "address",
          "name": "_ppctoken_address",
          "type": "address"
        }
      ],
      "payable": false,
      "stateMutability": "nonpayable",
      "type": "constructor"
    },
    {
      "anonymous": false,
      "inputs": [
        {
          "indexed": false,
          "internalType": "address",
          "name": "account",
          "type": "address"
        },
        {
          "indexed": false,
          "internalType": "uint256",
          "name": "amount",
          "type": "uint256"
        }
      ],
      "name": "PPCTokenMinted",
      "type": "event"
    },
    {
      "anonymous": false,
      "inputs": [
        {
          "indexed": false,
          "internalType": "uint256",
          "name": "id",
          "type": "uint256"
        },
        {
          "indexed": false,
          "internalType": "string",
          "name": "title",
          "type": "string"
        },
        {
          "indexed": false,
          "internalType": "enum TaskList.State",
          "name": "state",
          "type": "uint8"
        },
        {
          "indexed": false,
          "internalType": "address payable[]",
          "name": "validators",
          "type": "address[]"
        }
      ],
      "name": "TaskCreated",
      "type": "event"
    },
    {
      "anonymous": false,
      "inputs": [
        {
          "indexed": false,
          "internalType": "uint256",
          "name": "id",
          "type": "uint256"
        },
        {
          "indexed": false,
          "internalType": "enum TaskList.State",
          "name": "state",
          "type": "uint8"
        }
      ],
      "name": "TaskState",
      "type": "event"
    },
    {
      "anonymous": false,
      "inputs": [
        {
          "indexed": false,
          "internalType": "bool",
          "name": "is_true",
          "type": "bool"
        }
      ],
      "name": "Test",
      "type": "event"
    },
    {
      "anonymous": false,
      "inputs": [
        {
          "indexed": false,
          "internalType": "uint256",
          "name": "task_id",
          "type": "uint256"
        },
        {
          "indexed": false,
          "internalType": "address",
          "name": "sender",
          "type": "address"
        },
        {
          "indexed": false,
          "internalType": "uint256",
          "name": "amount",
          "type": "uint256"
        }
      ],
      "name": "taskFunded",
      "type": "event"
    },
    {
      "anonymous": false,
      "inputs": [
        {
          "indexed": false,
          "internalType": "uint256",
          "name": "task_id",
          "type": "uint256"
        },
        {
          "indexed": false,
          "internalType": "address",
          "name": "validator",
          "type": "address"
        }
      ],
      "name": "validatorAdded",
      "type": "event"
    },
    {
      "anonymous": false,
      "inputs": [
        {
          "indexed": false,
          "internalType": "uint256",
          "name": "task_id",
          "type": "uint256"
        },
        {
          "indexed": false,
          "internalType": "address",
          "name": "worker",
          "type": "address"
        },
        {
          "indexed": false,
          "internalType": "uint256",
          "name": "_hours",
          "type": "uint256"
        }
      ],
      "name": "workedHoursAdded",
      "type": "event"
    },
    {
      "anonymous": false,
      "inputs": [
        {
          "indexed": false,
          "internalType": "uint256",
          "name": "task_id",
          "type": "uint256"
        },
        {
          "indexed": false,
          "internalType": "address",
          "name": "worker",
          "type": "address"
        }
      ],
      "name": "workerAdded",
      "type": "event"
    },
    {
      "constant": true,
      "inputs": [],
      "name": "hourly_rate",
      "outputs": [
        {
          "internalType": "uint256",
          "name": "",
          "type": "uint256"
        }
      ],
      "payable": false,
      "stateMutability": "view",
      "type": "function"
    },
    {
      "constant": true,
      "inputs": [],
      "name": "task_count",
      "outputs": [
        {
          "internalType": "uint256",
          "name": "",
          "type": "uint256"
        }
      ],
      "payable": false,
      "stateMutability": "view",
      "type": "function"
    },
    {
      "constant": true,
      "inputs": [
        {
          "internalType": "uint256",
          "name": "",
          "type": "uint256"
        }
      ],
      "name": "tasks",
      "outputs": [
        {
          "internalType": "uint256",
          "name": "id",
          "type": "uint256"
        },
        {
          "internalType": "string",
          "name": "title",
          "type": "string"
        },
        {
          "internalType": "string",
          "name": "description",
          "type": "string"
        },
        {
          "internalType": "enum TaskList.State",
          "name": "state",
          "type": "uint8"
        },
        {
          "internalType": "uint256",
          "name": "deadline",
          "type": "uint256"
        },
        {
          "internalType": "uint8",
          "name": "Qrating",
          "type": "uint8"
        },
        {
          "internalType": "uint8",
          "name": "ppc",
          "type": "uint8"
        },
        {
          "internalType": "uint8",
          "name": "ppc_worker",
          "type": "uint8"
        },
        {
          "internalType": "uint256",
          "name": "balance",
          "type": "uint256"
        }
      ],
      "payable": false,
      "stateMutability": "view",
      "type": "function"
    },
    {
      "constant": false,
      "inputs": [
        {
          "internalType": "string",
          "name": "_title",
          "type": "string"
        },
        {
          "internalType": "string",
          "name": "_description",
          "type": "string"
        }
      ],
      "name": "createTask",
      "outputs": [],
      "payable": false,
      "stateMutability": "nonpayable",
      "type": "function"
    },
    {
      "constant": false,
      "inputs": [
        {
          "internalType": "uint256",
          "name": "_task_id",
          "type": "uint256"
        },
        {
          "internalType": "address payable",
          "name": "_validator",
          "type": "address"
        }
      ],
      "name": "addValidator",
      "outputs": [],
      "payable": false,
      "stateMutability": "nonpayable",
      "type": "function"
    },
    {
      "constant": true,
      "inputs": [
        {
          "internalType": "uint256",
          "name": "_task_id",
          "type": "uint256"
        }
      ],
      "name": "getValidators",
      "outputs": [
        {
          "internalType": "address payable[]",
          "name": "",
          "type": "address[]"
        }
      ],
      "payable": false,
      "stateMutability": "view",
      "type": "function"
    },
    {
      "constant": false,
      "inputs": [
        {
          "internalType": "uint256",
          "name": "_task_id",
          "type": "uint256"
        },
        {
          "internalType": "address payable",
          "name": "_worker",
          "type": "address"
        }
      ],
      "name": "addWorker",
      "outputs": [],
      "payable": false,
      "stateMutability": "nonpayable",
      "type": "function"
    },
    {
      "constant": true,
      "inputs": [
        {
          "internalType": "uint256",
          "name": "_task_id",
          "type": "uint256"
        }
      ],
      "name": "getWorkers",
      "outputs": [
        {
          "internalType": "address payable[]",
          "name": "",
          "type": "address[]"
        }
      ],
      "payable": false,
      "stateMutability": "view",
      "type": "function"
    },
    {
      "constant": false,
      "inputs": [
        {
          "internalType": "uint256",
          "name": "_task_id",
          "type": "uint256"
        }
      ],
      "name": "acceptTask",
      "outputs": [],
      "payable": false,
      "stateMutability": "nonpayable",
      "type": "function"
    },
    {
      "constant": false,
      "inputs": [
        {
          "internalType": "uint256",
          "name": "_task_id",
          "type": "uint256"
        },
        {
          "internalType": "uint256",
          "name": "_hours",
          "type": "uint256"
        }
      ],
      "name": "addWorkedHours",
      "outputs": [],
      "payable": false,
      "stateMutability": "nonpayable",
      "type": "function"
    },
    {
      "constant": true,
      "inputs": [
        {
          "internalType": "uint256",
          "name": "_task_id",
          "type": "uint256"
        },
        {
          "internalType": "address",
          "name": "_worker",
          "type": "address"
        }
      ],
      "name": "getWorkedHours",
      "outputs": [
        {
          "internalType": "uint256",
          "name": "",
          "type": "uint256"
        }
      ],
      "payable": false,
      "stateMutability": "view",
      "type": "function"
    },
    {
      "constant": false,
      "inputs": [
        {
          "internalType": "uint256",
          "name": "_task_id",
          "type": "uint256"
        }
      ],
      "name": "fundTask",
      "outputs": [],
      "payable": true,
      "stateMutability": "payable",
      "type": "function"
    },
    {
      "constant": false,
      "inputs": [
        {
          "internalType": "uint256",
          "name": "_task_id",
          "type": "uint256"
        },
        {
          "internalType": "uint8",
          "name": "_ppc",
          "type": "uint8"
        }
      ],
      "name": "completeTask",
      "outputs": [],
      "payable": false,
      "stateMutability": "nonpayable",
      "type": "function"
    },
    {
      "constant": true,
      "inputs": [
        {
          "internalType": "uint256",
          "name": "_task_id",
          "type": "uint256"
        }
      ],
      "name": "neededTaskFund",
      "outputs": [
        {
          "internalType": "uint256",
          "name": "",
          "type": "uint256"
        }
      ],
      "payable": false,
      "stateMutability": "view",
      "type": "function"
    },
    {
      "constant": true,
      "inputs": [
        {
          "internalType": "uint256",
          "name": "_task_id",
          "type": "uint256"
        }
      ],
      "name": "sufficientFunds",
      "outputs": [
        {
          "internalType": "bool",
          "name": "",
          "type": "bool"
        }
      ],
      "payable": false,
      "stateMutability": "view",
      "type": "function"
    },
    {
      "constant": false,
      "inputs": [
        {
          "internalType": "uint256",
          "name": "_task_id",
          "type": "uint256"
        },
        {
          "internalType": "uint8",
          "name": "_ppc",
          "type": "uint8"
        },
        {
          "internalType": "uint8",
          "name": "_Qrating",
          "type": "uint8"
        }
      ],
      "name": "validateTask",
      "outputs": [
        {
          "internalType": "bool",
          "name": "",
          "type": "bool"
        }
      ],
      "payable": false,
      "stateMutability": "nonpayable",
      "type": "function"
    },
    {
      "constant": true,
      "inputs": [
        {
          "internalType": "uint256",
          "name": "_task_id",
          "type": "uint256"
        },
        {
          "internalType": "address",
          "name": "_validator",
          "type": "address"
        }
      ],
      "name": "getValidation",
      "outputs": [
        {
          "components": [
            {
              "internalType": "bool",
              "name": "exists",
              "type": "bool"
            },
            {
              "internalType": "uint8",
              "name": "ppc",
              "type": "uint8"
            },
            {
              "internalType": "uint8",
              "name": "Qrating",
              "type": "uint8"
            }
          ],
          "internalType": "struct TaskList.Validation",
          "name": "",
          "type": "tuple"
        }
      ],
      "payable": false,
      "stateMutability": "view",
      "type": "function"
    },
    {
      "constant": false,
      "inputs": [
        {
          "internalType": "uint8",
          "name": "_id",
          "type": "uint8"
        }
      ],
      "name": "toggleStarted",
      "outputs": [],
      "payable": false,
      "stateMutability": "nonpayable",
      "type": "function"
    },
    {
      "constant": true,
      "inputs": [],
      "name": "getContractBalance",
      "outputs": [
        {
          "internalType": "uint256",
          "name": "",
          "type": "uint256"
        }
      ],
      "payable": false,
      "stateMutability": "view",
      "type": "function"
    }
  ],
  "bytecode": "0x60008080556101e06040526080908152600160a0819052600260c052600360e05260046101005260056101205260066101405260076101605260086101805260096101a052600a6101c0526200005791600b620000c7565b506002805460ff1916605a179055670de0b6b3a76400006003553480156200007e57600080fd5b506040516200242f3803806200242f833981016040819052620000a191620001ab565b600480546001600160a01b0319166001600160a01b039290921691909117905562000200565b82805482825590600052602060002090601f01602090048101928215620001625791602002820160005b838211156200013157835183826101000a81548160ff021916908360ff1602179055509260200192600101602081600001049283019260010302620000f1565b8015620001605782816101000a81549060ff021916905560010160208160000104928301926001030262000131565b505b506200017092915062000174565b5090565b6200019591905b808211156200017057805460ff191681556001016200017b565b90565b8051620001a581620001e6565b92915050565b600060208284031215620001be57600080fd5b6000620001cc848462000198565b949350505050565b60006001600160a01b038216620001a5565b620001f181620001d4565b8114620001fd57600080fd5b50565b61221f80620002106000396000f3fe6080604052600436106101145760003560e01c80638d977672116100a0578063ceda812c11610064578063ceda812c14610317578063d1ff21c214610337578063d882e4bc1461034a578063dee5c0df1461036a578063f9a773681461037f57610114565b80638d9776721461026d57806391c07444146102a2578063927ce5c8146102c2578063a695066e146102e2578063b34352511461030257610114565b8063471f40fb116100e7578063471f40fb146101b15780634b561753146101de5780634d893d40146101fe578063621599201461022b5780636f9fb98a1461024b57610114565b806313aae8a9146101195780631bf6912d1461014f578063292a45851461017157806342f19aac14610191575b600080fd5b34801561012557600080fd5b50610139610134366004611ba1565b61039f565b6040516101469190611ebd565b60405180910390f35b34801561015b57600080fd5b5061016f61016a366004611af3565b6104af565b005b34801561017d57600080fd5b5061016f61018c366004611a8a565b6105b9565b34801561019d57600080fd5b5061016f6101ac366004611b71565b6107ce565b3480156101bd57600080fd5b506101d16101cc366004611af3565b61084f565b6040516101469190611eac565b3480156101ea57600080fd5b5061016f6101f9366004611b11565b6108bf565b34801561020a57600080fd5b5061021e610219366004611b11565b6109cd565b6040516101469190611f0b565b34801561023757600080fd5b50610139610246366004611af3565b610a34565b34801561025757600080fd5b50610260610ce2565b6040516101469190611f19565b34801561027957600080fd5b5061028d610288366004611af3565b610ce8565b60405161014699989796959493929190611fb5565b3480156102ae57600080fd5b506102606102bd366004611b11565b610e53565b3480156102ce57600080fd5b5061016f6102dd366004611b41565b610e7f565b3480156102ee57600080fd5b506101d16102fd366004611af3565b610f44565b34801561030e57600080fd5b50610260610fb1565b34801561032357600080fd5b5061016f610332366004611bee565b610fb7565b61016f610345366004611af3565b61101f565b34801561035657600080fd5b5061016f610365366004611b11565b611070565b34801561037657600080fd5b5061026061118a565b34801561038b57600080fd5b5061026061039a366004611af3565b611190565b6000838152600560209081526040808320338452600601909152812054849060ff166103e65760405162461bcd60e51b81526004016103dd90611efb565b60405180910390fd5b6000858152600560205260409020600260038083015460ff169081111561040957fe5b14801561041957508460ff166000105b8015610429575060648560ff1611155b801561043857508360ff166000105b80156104485750600a8460ff1611155b156104a1573360009081526008820160205260409020805460ff1960ff878116620100000262ff000019918a166101000261ff001990941693909317169190911716600117815561049887611204565b935050506104a7565b60009250505b509392505050565b60008181526005602090815260408083203380855260099091019092529091205482919060ff166104f25760405162461bcd60e51b81526004016103dd90611edb565b60008381526005602052604081209060038083015460ff169081111561051457fe5b14156105b357336000908152600a820160205260408120805460ff19166001179055805b600b83015461ffff821610156105935782600a01600084600b018361ffff168154811061056157fe5b60009182526020808320909101546001600160a01b0316835282019290925260400190205460ff169150600101610538565b5080156105b1576003820180546001919060ff191682805b02179055505b505b50505050565b6000546105c4611843565b50604080516101608101825282815260208082018681528284018690526000606084018190526080840181905260a0840181905260c0840181905260e0840181905284518181528084018652610100850152845181815280840186526101208501526101408401819052858152600583529390932082518155925180519293849390926106589260018501929101906118a7565b50604082015180516106749160028401916020909101906118a7565b5060608201518160030160006101000a81548160ff0219169083600381111561069957fe5b02179055506080820151600482015560a082015160058201805460c085015160e086015160ff1990921660ff9485161761ff00191661010091851682021762ff000019166201000094909216939093021790558201518051610705916007840191602090910190611925565b50610120820151805161072291600b840191602090910190611925565b506101409190910151600d90910155600080546001908101825583825260056020818152604080852060078101805480870182558188528488200180546001600160a01b03191633908117909155875260069091018352818620805460ff1916909517909455868552919052517fed590dc695d4f7e656b37899068d46e3eafc741b38eb6a6761d919deba842bc6926107c092869289929190611f6a565b60405180910390a150505050565b60008281526005602090815260408083203380855260099091019092529091205483919060ff166108115760405162461bcd60e51b81526004016103dd90611edb565b6000848152600560208190526040909120908101805462ff000019166201000060ff8716021790556003810180546002919060ff19166001836105ab565b6000818152600560209081526040918290206007018054835181840281018401909452808452606093928301828280156108b257602002820191906000526020600020905b81546001600160a01b03168152600190910190602001808311610894575b505050505090505b919050565b6000828152600560209081526040808320338452600601909152902054829060ff166108fd5760405162461bcd60e51b81526004016103dd90611efb565b60008381526005602090815260408083206001600160a01b038616845260090190915290205460ff16156109435760405162461bcd60e51b81526004016103dd90611ecb565b6000838152600560209081526040808320600781018054600180820183559186528486200180546001600160a01b0319166001600160a01b03891690811790915585526006820190935292819020805460ff1916909217909155517f416071ae19b4e679348d5e18dcb9b077f472eec9ba091ded090ebf6c91214dd3906107c09086908690611f27565b6109d5611986565b5060008281526005602090815260408083206001600160a01b03851684526008018252918290208251606081018452905460ff808216151583526101008204811693830193909352620100009004909116918101919091525b92915050565b6000610a3e611843565b600560008481526020019081526020016000206040518061016001604052908160008201548152602001600182018054600181600116156101000203166002900480601f016020809104026020016040519081016040528092919081815260200182805460018160011615610100020316600290048015610b005780601f10610ad557610100808354040283529160200191610b00565b820191906000526020600020905b815481529060010190602001808311610ae357829003601f168201915b5050509183525050600282810180546040805160206001841615610100026000190190931694909404601f81018390048302850183019091528084529381019390830182828015610b925780601f10610b6757610100808354040283529160200191610b92565b820191906000526020600020905b815481529060010190602001808311610b7557829003601f168201915b505050918352505060038281015460209092019160ff1690811115610bb357fe5b6003811115610bbe57fe5b81526004820154602080830191909152600583015460ff8082166040808601919091526101008304821660608601526201000090920416608084015260078401805482518185028101850190935280835260a0909401939192909190830182828015610c5357602002820191906000526020600020905b81546001600160a01b03168152600190910190602001808311610c35575b50505050508152602001600b8201805480602002602001604051908101604052809291908181526020018280548015610cb557602002820191906000526020600020905b81546001600160a01b03168152600190910190602001808311610c97575b50505050508152602001600d820154815250509050610cd383611190565b61014090910151101592915050565b30315b90565b6005602090815260009182526040918290208054600180830180548651600293821615610100026000190190911692909204601f810186900486028301860190965285825291949293909290830182828015610d855780601f10610d5a57610100808354040283529160200191610d85565b820191906000526020600020905b815481529060010190602001808311610d6857829003601f168201915b50505060028085018054604080516020601f6000196101006001871615020190941695909504928301859004850281018501909152818152959695945090925090830182828015610e175780601f10610dec57610100808354040283529160200191610e17565b820191906000526020600020905b815481529060010190602001808311610dfa57829003601f168201915b505050600384015460048501546005860154600d90960154949560ff928316959194508083169350610100810483169262010000909104169089565b60008281526005602090815260408083206001600160a01b0385168452600c0190915290205492915050565b60008281526005602090815260408083203380855260099091019092529091205483919060ff16610ec25760405162461bcd60e51b81526004016103dd90611edb565b6000848152600560205260409020600160038083015460ff1690811115610ee557fe5b14156105b157336000818152600c8301602052604090819020805487019055517f985da90d0c844be16a09ea33f60b076c56a9f6a963578d8db9b5671ba92c7c7391610f35918891908890611f42565b60405180910390a15050505050565b600081815260056020908152604091829020600b018054835181840281018401909452808452606093928301828280156108b2576020028201919060005260206000209081546001600160a01b031681526001909101906020018083116108945750505050509050919050565b60005481565b60ff8181166000908152600560205260409081902060038101805460ff191660011790819055915190927f469b7cfbb60619eda76c28364bf95ae0afbf0902d135a84497564f799fac00c3926110139286929190911690612049565b60405180910390a15050565b60008181526005602052604090819020600d8101805434908101909155915190917f197826786b70913e7550f8690960cf2f27ad91f8813f40e7eb4ab20ee08c3ad791611013918591339190611f42565b6000828152600560209081526040808320338452600601909152902054829060ff166110ae5760405162461bcd60e51b81526004016103dd90611efb565b60008381526005602090815260408083206001600160a01b038616845260060190915290205460ff16156110f45760405162461bcd60e51b81526004016103dd90611eeb565b6000838152600560209081526040808320600b81018054600180820183559186528486200180546001600160a01b0319166001600160a01b0389169081179091558552600982018452828520805460ff19169091179055600c81019092528083209290925590517f3cce0ec637799829662d3d2ce35a4c5bb78ca2a3822a2f415d16f5f924ce4596906107c09086908690611f27565b60035481565b600081815260056020526040812081805b600b83015461ffff821610156111f857600083600b018261ffff16815481106111c657fe5b60009182526020808320909101546001600160a01b03168252600c8601905260409020549290920191506001016111a1565b50600354029392505050565b6000818152600560205260408120600781015482908180805b8360ff168160ff1610156112a2576000866007018260ff168154811061123f57fe5b60009182526020808320909101546001600160a01b031680835260088a01909152604090912080549192509060ff16156112985780546001979097019660ff610100820481169690960195620100009091041693909301925b505060010161121d565b5060008260ff161180156112c75750600585015460ff62010000909104811690831610155b80156112d857508260ff168460ff16145b80156112e857506112e887610a34565b1561136b578360ff168260ff16816112fc57fe5b60058701805460ff9390920483166101000261ff0019909216919091179055811615611349578360ff168160ff168161133157fe5b60058701805460ff19169290910460ff169190911790555b6003858101805460ff191690911790556113628761138a565b61136b87611492565b60038581015460ff168181111561137e57fe5b14979650505050505050565b6000818152600560205260408120905b600b82015461ffff8216101561143557600082600b018261ffff16815481106113bf57fe5b60009182526020808320909101546003546001600160a01b03909116808452600c8701909252604080842054600d8801805491909302908190039092555191935091839183156108fc0291849190818181858888f1935050505015801561142a573d6000803e3d6000fd5b50505060010161139a565b50600d810180546000918290556007830180549192909161145257fe5b60009182526020822001546040516001600160a01b039091169183156108fc02918491818181858888f193505050501580156105b3573d6000803e3d6000fd5b61149a611843565b600560008381526020019081526020016000206040518061016001604052908160008201548152602001600182018054600181600116156101000203166002900480601f01602080910402602001604051908101604052809291908181526020018280546001816001161561010002031660029004801561155c5780601f106115315761010080835404028352916020019161155c565b820191906000526020600020905b81548152906001019060200180831161153f57829003601f168201915b5050509183525050600282810180546040805160206001841615610100026000190190931694909404601f810183900483028501830190915280845293810193908301828280156115ee5780601f106115c3576101008083540402835291602001916115ee565b820191906000526020600020905b8154815290600101906020018083116115d157829003601f168201915b505050918352505060038281015460209092019160ff169081111561160f57fe5b600381111561161a57fe5b81526004820154602080830191909152600583015460ff8082166040808601919091526101008304821660608601526201000090920416608084015260078401805482518185028101850190935280835260a09094019391929091908301828280156116af57602002820191906000526020600020905b81546001600160a01b03168152600190910190602001808311611691575b50505050508152602001600b820180548060200260200160405190810160405280929190818152602001828054801561171157602002820191906000526020600020905b81546001600160a01b031681526001909101906020018083116116f3575b5050509183525050600d919091015460209091015260025460c082015191925060ff90811691161061183f5760005b816101200151518161ffff16101561183d5760008261012001518261ffff168151811061176957fe5b6020908102919091010151600480546040516340c10f1960e01b81529293506001600160a01b0316916340c10f19916117a791859160019101611e8a565b602060405180830381600087803b1580156117c157600080fd5b505af11580156117d5573d6000803e3d6000fd5b505050506040513d601f19601f820116820180604052506117f99190810190611a64565b507ff2c886314f2e9918f317cf9149b925ee2c3f4c18d4aed9ac80aa5b6a8ef25e3381600160405161182c929190611e8a565b60405180910390a150600101611740565b505b5050565b6040518061016001604052806000815260200160608152602001606081526020016000600381111561187157fe5b81526000602082018190526040820181905260608083018290526080830182905260a0830181905260c083015260e09091015290565b828054600181600116156101000203166002900490600052602060002090601f016020900481019282601f106118e857805160ff1916838001178555611915565b82800160010185558215611915579182015b828111156119155782518255916020019190600101906118fa565b506119219291506119a6565b5090565b82805482825590600052602060002090810192821561197a579160200282015b8281111561197a57825182546001600160a01b0319166001600160a01b03909116178255602090920191600190910190611945565b506119219291506119c0565b604080516060810182526000808252602082018190529181019190915290565b610ce591905b8082111561192157600081556001016119ac565b610ce591905b808211156119215780546001600160a01b03191681556001016119c6565b8035610a2e816121ad565b8051610a2e816121c1565b600082601f830112611a0b57600080fd5b8135611a1e611a198261208b565b612064565b91508082526020830160208301858383011115611a3a57600080fd5b611a4583828461213f565b50505092915050565b8035610a2e816121ca565b8035610a2e816121d3565b600060208284031215611a7657600080fd5b6000611a8284846119ef565b949350505050565b60008060408385031215611a9d57600080fd5b823567ffffffffffffffff811115611ab457600080fd5b611ac0858286016119fa565b925050602083013567ffffffffffffffff811115611add57600080fd5b611ae9858286016119fa565b9150509250929050565b600060208284031215611b0557600080fd5b6000611a828484611a4e565b60008060408385031215611b2457600080fd5b6000611b308585611a4e565b9250506020611ae9858286016119e4565b60008060408385031215611b5457600080fd5b6000611b608585611a4e565b9250506020611ae985828601611a4e565b60008060408385031215611b8457600080fd5b6000611b908585611a4e565b9250506020611ae985828601611a59565b600080600060608486031215611bb657600080fd5b6000611bc28686611a4e565b9350506020611bd386828701611a59565b9250506040611be486828701611a59565b9150509250925092565b600060208284031215611c0057600080fd5b6000611a828484611a59565b6000611c188383611c2f565b505060200190565b611c2981612108565b82525050565b611c29816120e8565b6000611c43826120c5565b611c4d81856120d3565b9350611c58836120b3565b8060005b83811015611c86578151611c708882611c0c565b9750611c7b836120b3565b925050600101611c5c565b509495945050505050565b6000611c9c826120c9565b611ca681856120d3565b9350611cb1836120b9565b8060005b83811015611c8657611cc68261218a565b611cd08882611c0c565b9750611cdb836120cd565b925050600101611cb5565b611c29816120f3565b611c2981612113565b611c298161211e565b6000611d0c826120c5565b611d1681856120d3565b9350611d2681856020860161214b565b611d2f81612196565b9093019392505050565b6000611d46601a836120d3565b7f576f726b65722063616e6e6f742062652076616c696461746f72000000000000815260200192915050565b6000611d7f6023836120d3565b7f576f726b6572206973206e6f742061737369676e656420746f2074686973207481526261736b60e81b602082015260400192915050565b6000611dc4601a836120d3565b7f56616c696461746f722063616e6e6f7420626520776f726b6572000000000000815260200192915050565b6000611dfd6026836120d3565b7f43616c6c6572206973206e6f7420612076616c696461746f72206f662074686981526573207461736b60d01b602082015260400192915050565b80516060830190611e498482611ce6565b506020820151611e5c6020850182611e81565b5060408201516105b36040850182611e81565b611c2981610ce5565b611c2981612134565b611c2981612102565b60408101611e988285611c2f565b611ea56020830184611cf8565b9392505050565b60208082528101611ea58184611c38565b60208101610a2e8284611ce6565b60208082528101610a2e81611d39565b60208082528101610a2e81611d72565b60208082528101610a2e81611db7565b60208082528101610a2e81611df0565b60608101610a2e8284611e38565b60208101610a2e8284611e6f565b60408101611f358285611e6f565b611ea56020830184611c20565b60608101611f508286611e6f565b611f5d6020830185611c20565b611a826040830184611e6f565b60808101611f788287611e6f565b8181036020830152611f8a8186611d01565b9050611f996040830185611cef565b8181036060830152611fab8184611c91565b9695505050505050565b6101208101611fc4828c611e6f565b8181036020830152611fd6818b611d01565b90508181036040830152611fea818a611d01565b9050611ff96060830189611cef565b6120066080830188611e6f565b61201360a0830187611e81565b61202060c0830186611e81565b61202d60e0830185611e81565b61203b610100830184611e6f565b9a9950505050505050505050565b604081016120578285611e78565b611ea56020830184611cef565b60405181810167ffffffffffffffff8111828210171561208357600080fd5b604052919050565b600067ffffffffffffffff8211156120a257600080fd5b506020601f91909101601f19160190565b60200190565b60009081526020902090565b5190565b5490565b60010190565b90815260200190565b6001600160a01b031690565b6000610a2e826120dc565b151590565b806108ba816121a0565b60ff1690565b6000610a2e82612129565b6000610a2e826120f8565b6000610a2e82610ce5565b6000610a2e826120e8565b6000610a2e82612102565b82818337506000910152565b60005b8381101561216657818101518382015260200161214e565b838111156105b35750506000910152565b6000610a2e61218583610ce5565b6120dc565b6000610a2e8254612177565b601f01601f191690565b600481106121aa57fe5b50565b6121b6816120e8565b81146121aa57600080fd5b6121b6816120f3565b6121b681610ce5565b6121b68161210256fea365627a7a72315820eb1e6186098ce360442660d3f2e618eb72f352b340ac624b2b5f35d690b288806c6578706572696d656e74616cf564736f6c634300050c0040",
  "source": "pragma solidity ^0.5.11;\npragma experimental ABIEncoderV2;\n\n\nimport '../node_modules/@openzeppelin/contracts/payment/escrow/Escrow.sol';\nimport '../node_modules/@openzeppelin/contracts/payment/PaymentSplitter.sol';\nimport './PPCToken.sol';\n\ncontract TaskList {\n\tuint public task_count = 0;\n\tenum State { created, accepted, completed, validated }\n\tuint8[] ratings = [0, 1, 2, 3, 4, 5, 6, 7, 8, 9, 10];\n\tuint8 ppc_threshold = 90;\n\tuint public hourly_rate = 1 ether;\n\t// enum Difficulty { standard, advanced , expert }\n\t// enum Uncertainity { clear, uncertain, unknown }\n\tPPCToken private ppctoken;\n\n\tconstructor (address _ppctoken_address) public {\n\t\tppctoken = PPCToken(_ppctoken_address);\n\t}\n\n\tstruct Validation {\n\t\tbool exists;\n\t\tuint8 ppc;\n\t\tuint8 Qrating;\n\t}\n\n\tstruct Task {\n\t\tuint id;\n\t\tstring title;\n\t\tstring description;\n\t\tState state;\n\t\tuint deadline;\n\t\tuint8 Qrating;\n\t\tuint8 ppc;\n\t\tuint8 ppc_worker;\n\t\tmapping(address => bool) validators_map;\n\t\taddress payable[] validators;\n\t\tmapping(address => Validation) validations;\n\t\tmapping(address => bool) workers_map;\n\t\tmapping(address => bool) acceptations;\n\t\taddress payable[] workers;\n\t\tmapping(address => uint) worked_hours;\n\t\tuint balance;\n\t\t//uint predecessor_id;\n\t\t//uint successor_id;\n\t}\n\n\tmapping(uint => Task) public tasks;\n\n\tevent TaskCreated(\n\t\tuint id,\n\t\tstring title,\n\t\tState state,\n\t\taddress payable[] validators\n\t);\n\n\tevent Test(bool is_true);\n\n\tmodifier validatorsOnly(uint _task_id) {\n\t\t// checks that the sender is a validator of task\n\t\trequire(tasks[_task_id].validators_map[msg.sender], \"Caller is not a validator of this task\");\n\t\t_;\n\t}\n\n\tmodifier workersOnly(uint _task_id, address _account) {\n\t\trequire(tasks[_task_id].workers_map[_account], \"Worker is not assigned to this task\");\n\t\t_;\n\t}\n\n\tevent TaskState(\n\t\tuint id,\n\t\tState state\n\t);\n\n\tevent validatorAdded(\n\t\tuint task_id,\n\t\taddress validator\n\t);\n\n\tevent workerAdded(\n\t\tuint task_id,\n\t\taddress worker\n\t);\n\n\tevent workedHoursAdded(\n\t\tuint task_id,\n\t\taddress worker,\n\t\tuint _hours\n\t);\n\n\tevent taskFunded(\n\t\tuint task_id,\n\t\taddress sender,\n\t\tuint256 amount\n\t);\n\n\tevent PPCTokenMinted(\n\t\taddress account,\n\t\tuint amount\n\t);\n\n\tfunction createTask(string memory _title, string memory _description) public {\n\t\tuint _id = task_count;\n\t\tTask memory task = Task({\n\t\t\tid: _id,\n\t\t\ttitle: _title,\n\t\t\tdescription: _description,\n\t\t\tstate: State.created,\n\t\t\tdeadline: 0,\n\t\t\tQrating: 0,\n\t\t\tppc: 0,\n\t\t\tppc_worker: 0,\n\t\t\tvalidators: new address payable[](0),\n\t\t\tworkers: new address payable[](0),\n\t\t\tbalance: 0\n\t\t});\n\t\t// https://medium.com/loom-network/ethereum-solidity-memory-vs-storage-how-to-initialize-an-array-inside-a-struct-184baf6aa2eb\n\t\ttasks[_id] = task;\n\t\ttask_count++;\n\t\ttasks[_id].validators.push(msg.sender);\n\t\ttasks[_id].validators_map[msg.sender] = true;\n\t\temit TaskCreated(_id, _title, State.created, tasks[_id].validators);\n\t}\n\n\tfunction addValidator(uint _task_id, address payable _validator) public validatorsOnly(_task_id) {\n\t\trequire(!tasks[_task_id].workers_map[_validator], \"Worker cannot be validator\");\n\t\tTask storage _task = tasks[_task_id];\n\t\t_task.validators.push(_validator);\n\t\t_task.validators_map[_validator] = true;\n\t\temit validatorAdded(_task_id, _validator);\n\t}\n\n\tfunction getValidators(uint _task_id) public view returns (address payable[] memory) {\n\t\treturn tasks[_task_id].validators;\n\t}\n\n\tfunction addWorker(uint _task_id, address payable _worker) public validatorsOnly(_task_id) {\n\t\trequire(!tasks[_task_id].validators_map[_worker], \"Validator cannot be worker\");\n\t\tTask storage _task = tasks[_task_id];\n\t\t_task.workers.push(_worker);\n\t\t_task.workers_map[_worker] = true;\n\t\t_task.worked_hours[_worker] = 0;\n\t\temit workerAdded(_task_id, _worker);\n\t}\n\n\tfunction getWorkers(uint _task_id) public view returns (address payable[] memory) {\n\t\treturn tasks[_task_id].workers;\n\t}\n\n\t// accept task for worker calling the function\n\tfunction acceptTask(uint _task_id) public workersOnly(_task_id, msg.sender) {\n\t\tTask storage _task = tasks[_task_id];\n\n\t\tif(_task.state == State.created){\n\t\t\t_task.acceptations[msg.sender] = true;\n\t\t\tbool accepted = false;\n\n\t\t\t// go through every worker's acceptation\n\t\t\tfor(uint16 i = 0; i < _task.workers.length; i++) {\n\t\t\t\taccepted = _task.acceptations[_task.workers[i]];\n\t\t\t}\n\t\t\t// accept the task if all workers have accepted it;\n\t\t\tif(accepted){\n\t\t\t\t_task.state = State.accepted;\n\t\t\t}\n\t\t}\n\t}\n\n\tfunction addWorkedHours(uint _task_id, uint _hours) public workersOnly(_task_id, msg.sender) {\n\t\tTask storage _task = tasks[_task_id];\n\t\tif(_task.state == State.accepted){\n\t\t\t_task.worked_hours[msg.sender] += _hours;\n\t\t\temit workedHoursAdded(_task_id, msg.sender, _hours);\n\t\t}\n\t}\n\n\tfunction getWorkedHours(uint _task_id, address _worker) public view returns (uint) {\n\t\treturn tasks[_task_id].worked_hours[_worker];\n\t}\n\n\tfunction fundTask(uint _task_id) public payable {\n\t\t// stores funds for the given task in this smart contract\n\t\tTask storage _task = tasks[_task_id];\n\t\t_task.balance += msg.value;\n\t\temit taskFunded(_task_id, msg.sender, msg.value);\n\t}\n\n\tfunction completeTask(uint _task_id, uint8 _ppc) public workersOnly(_task_id, msg.sender) {\n\t\tTask storage _task = tasks[_task_id];\n\t\t_task.ppc_worker = _ppc;\n\t\t_task.state = State.completed;\n\t}\n\n\tfunction neededTaskFund(uint _task_id) public view returns (uint) {\n\t\tTask storage _task = tasks[_task_id];\n\t\tuint amount;\n\t\tfor(uint16 i = 0; i < _task.workers.length; i++) {\n\t\t\taddress payable _worker = _task.workers[i];\n\t\t\tamount += _task.worked_hours[_worker];\n\t\t}\n\t\treturn amount * hourly_rate;\n\t}\n\n\tfunction sufficientFunds(uint _task_id) public view returns (bool) {\n\t\tTask memory _task = tasks[_task_id];\n\t\treturn _task.balance >= neededTaskFund(_task_id);\n\t}\n\n\t// called from each individual validator to set his ratings\n\t// return the result from computeValidation or false if the task was not completed before\n\tfunction validateTask(uint _task_id, uint8 _ppc, uint8 _Qrating) public validatorsOnly(_task_id) returns (bool) {\n\t\tTask storage _task = tasks[_task_id];\n\n\t\t// a validator can only set his ratings if the task was completed before\n\t\tif(_task.state == State.completed && 0 < _ppc && _ppc <= 100 && 0 < _Qrating && _Qrating <= 10){\n\t\t\tValidation storage _validation = _task.validations[msg.sender];\n\t\t\t_validation.ppc = _ppc;\n\t\t\t_validation.Qrating = _Qrating;\n\t\t\t_validation.exists = true;\n\n\t\t\treturn computeValidation(_task_id);\n\t\t}\n\n\t\treturn false;\n\t}\n\n\tfunction getValidation(uint _task_id, address _validator) public view returns (Validation memory) {\n\t\treturn tasks[_task_id].validations[_validator];\n\t}\n\n\t// calculates the mean ratings values from all validators\n\t// validates the task and perform payments if conditions are met\n\tfunction computeValidation(uint _task_id) internal returns (bool) {\n\t\tTask storage _task = tasks[_task_id];\n\t\tuint8 n = 0;\n\t\tuint8 n_validators = uint8(_task.validators.length);\n\t\tuint8 _ppc = 0;\n\t\tuint8 _Qrating = 0;\n\n\t\tfor(uint8 i = 0; i < n_validators; i++){\n\t\t\taddress payable _validator = _task.validators[i];\n\t\t\tValidation storage _validation = _task.validations[_validator];\n\n\t\t\tif(_validation.exists){\n\t\t\t\t_ppc += _validation.ppc;\n\t\t\t\t_Qrating += _validation.Qrating;\n\t\t\t\tn++;\n\t\t\t}\n\t\t}\n\n\t\t// for the task to be validated:\n\t\t// - mean ppc from validators has to be greater than the workers' one\n\t\t// - each validators' approval is required\n\t\t// - funds have to be sufficients\n\t\tif(_ppc > 0 && _ppc >= _task.ppc_worker && n == n_validators && sufficientFunds(_task_id)){\n\t\t\t_task.ppc = _ppc / n;\n\n\t\t\tif(_Qrating > 0){\n\t\t\t\t_task.Qrating = _Qrating / n;\n\t\t\t}\n\t\t\t_task.state = State.validated;\n\n\t\t\t// payments\n\t\t\treleasePayment(_task_id);\n\t\t\tmintPPCTOken(_task_id);\n\t\t}\n\n\t\treturn _task.state == State.validated;\n\t}\n\n\tfunction releasePayment(uint _task_id) internal {\n\t\tTask storage _task = tasks[_task_id];\n\t\tfor(uint16 i = 0; i < _task.workers.length; i++) {\n\t\t\taddress payable _worker = _task.workers[i];\n\t\t\tuint amount = _task.worked_hours[_worker] * hourly_rate;\n\t\t\t_task.balance -= amount;\n\t\t\t_worker.transfer(amount);\n\t\t}\n\t\tuint rest = _task.balance;\n\t\t_task.balance -= rest;\n\t\t_task.validators[0].transfer(rest); // return the rest to the validator\n\t\t// todo: keep track of which address funded the task\n\t}\n\n\tfunction mintPPCTOken(uint _task_id) internal {\n\t\tTask memory _task = tasks[_task_id];\n\t\tif(_task.ppc >= ppc_threshold) {\n\t\t\tfor(uint16 i = 0; i < _task.workers.length; i++) {\n\t\t\t\taddress _worker = _task.workers[i];\n\t\t\t\tppctoken.mint(_worker, 1);\n\t\t\t\temit PPCTokenMinted(_worker, 1);\n\t\t\t}\n\t\t}\n\t}\n\n\tfunction toggleStarted(uint8 _id) public {\n\t\tTask storage _task = tasks[_id];\n\t\t_task.state = State.accepted;\n\t\t// tasks[_id] = _task;\n\t\temit TaskState(_id, _task.state);\n\t}\n\n\tfunction getContractBalance() public view returns (uint256) {\n        return address(this).balance;\n    }\n}",
  "sourcePath": "/Users/pabrasey/Dropbox/01_Formation/ETHZ/01_Master/02_projects/Master Thesis/Production/Code/ipd-block/contracts/TaskList.sol",
  "compiler": {
    "name": "solc",
    "version": "0.5.12+commit.7709ece9.Emscripten.clang"
  },
  "schemaVersion": "3.0.19",
  "updatedAt": "2020-01-06T14:15:06.057Z",
  "networkType": "ethereum",
  "devdoc": {
    "methods": {}
  },
  "userdoc": {
    "methods": {}
  }
}