{
  "contractName": "TaskList",
  "abi": [
    {
      "inputs": [
        {
          "internalType": "address",
          "name": "_ppctoken_address",
          "type": "address"
        }
      ],
      "payable": false,
      "stateMutability": "nonpayable",
      "type": "constructor"
    },
    {
      "anonymous": false,
      "inputs": [
        {
          "indexed": false,
          "internalType": "address",
          "name": "account",
          "type": "address"
        },
        {
          "indexed": false,
          "internalType": "uint256",
          "name": "amount",
          "type": "uint256"
        }
      ],
      "name": "PPCTokenMinted",
      "type": "event"
    },
    {
      "anonymous": false,
      "inputs": [
        {
          "indexed": false,
          "internalType": "uint256",
          "name": "id",
          "type": "uint256"
        },
        {
          "indexed": false,
          "internalType": "string",
          "name": "title",
          "type": "string"
        },
        {
          "indexed": false,
          "internalType": "enum TaskList.State",
          "name": "state",
          "type": "uint8"
        },
        {
          "indexed": false,
          "internalType": "address[]",
          "name": "validators",
          "type": "address[]"
        }
      ],
      "name": "TaskCreated",
      "type": "event"
    },
    {
      "anonymous": false,
      "inputs": [
        {
          "indexed": false,
          "internalType": "uint256",
          "name": "id",
          "type": "uint256"
        },
        {
          "indexed": false,
          "internalType": "enum TaskList.State",
          "name": "state",
          "type": "uint8"
        }
      ],
      "name": "TaskState",
      "type": "event"
    },
    {
      "anonymous": false,
      "inputs": [
        {
          "indexed": false,
          "internalType": "bool",
          "name": "is_true",
          "type": "bool"
        }
      ],
      "name": "Test",
      "type": "event"
    },
    {
      "anonymous": false,
      "inputs": [
        {
          "indexed": false,
          "internalType": "uint256",
          "name": "task_id",
          "type": "uint256"
        },
        {
          "indexed": false,
          "internalType": "address",
          "name": "sender",
          "type": "address"
        },
        {
          "indexed": false,
          "internalType": "address",
          "name": "receiver",
          "type": "address"
        },
        {
          "indexed": false,
          "internalType": "uint256",
          "name": "amount",
          "type": "uint256"
        }
      ],
      "name": "taskFunded",
      "type": "event"
    },
    {
      "anonymous": false,
      "inputs": [
        {
          "indexed": false,
          "internalType": "uint256",
          "name": "task_id",
          "type": "uint256"
        },
        {
          "indexed": false,
          "internalType": "address",
          "name": "validator",
          "type": "address"
        }
      ],
      "name": "validatorAdded",
      "type": "event"
    },
    {
      "anonymous": false,
      "inputs": [
        {
          "indexed": false,
          "internalType": "uint256",
          "name": "task_id",
          "type": "uint256"
        },
        {
          "indexed": false,
          "internalType": "address",
          "name": "worker",
          "type": "address"
        },
        {
          "indexed": false,
          "internalType": "uint256",
          "name": "_hours",
          "type": "uint256"
        }
      ],
      "name": "workedHoursAdded",
      "type": "event"
    },
    {
      "anonymous": false,
      "inputs": [
        {
          "indexed": false,
          "internalType": "uint256",
          "name": "task_id",
          "type": "uint256"
        },
        {
          "indexed": false,
          "internalType": "address",
          "name": "worker",
          "type": "address"
        }
      ],
      "name": "workerAdded",
      "type": "event"
    },
    {
      "constant": true,
      "inputs": [],
      "name": "task_count",
      "outputs": [
        {
          "internalType": "uint256",
          "name": "",
          "type": "uint256"
        }
      ],
      "payable": false,
      "stateMutability": "view",
      "type": "function"
    },
    {
      "constant": true,
      "inputs": [
        {
          "internalType": "uint256",
          "name": "",
          "type": "uint256"
        }
      ],
      "name": "tasks",
      "outputs": [
        {
          "internalType": "uint256",
          "name": "id",
          "type": "uint256"
        },
        {
          "internalType": "string",
          "name": "title",
          "type": "string"
        },
        {
          "internalType": "string",
          "name": "description",
          "type": "string"
        },
        {
          "internalType": "enum TaskList.State",
          "name": "state",
          "type": "uint8"
        },
        {
          "internalType": "uint256",
          "name": "deadline",
          "type": "uint256"
        },
        {
          "internalType": "uint8",
          "name": "rating",
          "type": "uint8"
        },
        {
          "internalType": "contract Escrow",
          "name": "escrow",
          "type": "address"
        }
      ],
      "payable": false,
      "stateMutability": "view",
      "type": "function"
    },
    {
      "constant": false,
      "inputs": [
        {
          "internalType": "string",
          "name": "_title",
          "type": "string"
        },
        {
          "internalType": "string",
          "name": "_description",
          "type": "string"
        }
      ],
      "name": "createTask",
      "outputs": [],
      "payable": false,
      "stateMutability": "nonpayable",
      "type": "function"
    },
    {
      "constant": false,
      "inputs": [
        {
          "internalType": "uint256",
          "name": "_task_id",
          "type": "uint256"
        },
        {
          "internalType": "address",
          "name": "_validator",
          "type": "address"
        }
      ],
      "name": "addValidator",
      "outputs": [],
      "payable": false,
      "stateMutability": "nonpayable",
      "type": "function"
    },
    {
      "constant": true,
      "inputs": [
        {
          "internalType": "uint256",
          "name": "_task_id",
          "type": "uint256"
        }
      ],
      "name": "getValidators",
      "outputs": [
        {
          "internalType": "address[]",
          "name": "",
          "type": "address[]"
        }
      ],
      "payable": false,
      "stateMutability": "view",
      "type": "function"
    },
    {
      "constant": false,
      "inputs": [
        {
          "internalType": "uint256",
          "name": "_task_id",
          "type": "uint256"
        },
        {
          "internalType": "address",
          "name": "_worker",
          "type": "address"
        }
      ],
      "name": "addWorker",
      "outputs": [],
      "payable": false,
      "stateMutability": "nonpayable",
      "type": "function"
    },
    {
      "constant": true,
      "inputs": [
        {
          "internalType": "uint256",
          "name": "_task_id",
          "type": "uint256"
        }
      ],
      "name": "getWorkers",
      "outputs": [
        {
          "internalType": "address[]",
          "name": "",
          "type": "address[]"
        }
      ],
      "payable": false,
      "stateMutability": "view",
      "type": "function"
    },
    {
      "constant": false,
      "inputs": [
        {
          "internalType": "uint8",
          "name": "_task_id",
          "type": "uint8"
        },
        {
          "internalType": "uint256",
          "name": "_hours",
          "type": "uint256"
        }
      ],
      "name": "addWorkedHours",
      "outputs": [],
      "payable": false,
      "stateMutability": "nonpayable",
      "type": "function"
    },
    {
      "constant": false,
      "inputs": [
        {
          "internalType": "uint256",
          "name": "_task_id",
          "type": "uint256"
        }
      ],
      "name": "fundTaskEscrow",
      "outputs": [],
      "payable": true,
      "stateMutability": "payable",
      "type": "function"
    },
    {
      "constant": true,
      "inputs": [
        {
          "internalType": "uint256",
          "name": "_task_id",
          "type": "uint256"
        }
      ],
      "name": "getTaskDeposit",
      "outputs": [
        {
          "internalType": "uint256",
          "name": "",
          "type": "uint256"
        }
      ],
      "payable": false,
      "stateMutability": "view",
      "type": "function"
    },
    {
      "constant": false,
      "inputs": [
        {
          "internalType": "address",
          "name": "_account",
          "type": "address"
        },
        {
          "internalType": "uint8",
          "name": "_ppc",
          "type": "uint8"
        }
      ],
      "name": "mintPPCTOken",
      "outputs": [],
      "payable": false,
      "stateMutability": "nonpayable",
      "type": "function"
    },
    {
      "constant": false,
      "inputs": [
        {
          "internalType": "uint8",
          "name": "_id",
          "type": "uint8"
        }
      ],
      "name": "toggleStarted",
      "outputs": [],
      "payable": false,
      "stateMutability": "nonpayable",
      "type": "function"
    }
  ],
  "bytecode": "0x60008080556101e06040526080908152600160a0819052600260c052600360e05260046101005260056101205260066101405260076101605260086101805260096101a052600a6101c0526200005791600b620000b2565b503480156200006557600080fd5b5060405162001f9738038062001f97833981810160405260208110156200008b57600080fd5b5051600280546001600160a01b0319166001600160a01b0390921691909117905562000183565b82805482825590600052602060002090601f016020900481019282156200014d5791602002820160005b838211156200011c57835183826101000a81548160ff021916908360ff1602179055509260200192600101602081600001049283019260010302620000dc565b80156200014b5782816101000a81549060ff02191690556001016020816000010492830192600103026200011c565b505b506200015b9291506200015f565b5090565b6200018091905b808211156200015b57805460ff1916815560010162000166565b90565b611e0480620001936000396000f3fe6080604052600436106100a75760003560e01c8063a695066e11610064578063a695066e14610445578063b34352511461046f578063ceda812c14610496578063d882e4bc146104c3578063e0c97bc1146104fc578063f02c34ca1461052f576100a7565b806303071d5c146100ac578063292a4585146100ea578063471f40fb146102245780634b5617531461029e57806378852d01146102d75780638d977672146102f4575b600080fd5b3480156100b857600080fd5b506100e8600480360360408110156100cf57600080fd5b5080356001600160a01b0316906020013560ff16610559565b005b3480156100f657600080fd5b506100e86004803603604081101561010d57600080fd5b81019060208101813564010000000081111561012857600080fd5b82018360208201111561013a57600080fd5b8035906020019184600183028401116401000000008311171561015c57600080fd5b91908080601f01602080910402602001604051908101604052809392919081815260200183838082843760009201919091525092959493602081019350359150506401000000008111156101af57600080fd5b8201836020820111156101c157600080fd5b803590602001918460018302840111640100000000831117156101e357600080fd5b91908080601f016020809104026020016040519081016040528093929190818152602001838380828437600092019190915250929550610673945050505050565b34801561023057600080fd5b5061024e6004803603602081101561024757600080fd5b5035610960565b60408051602080825283518183015283519192839290830191858101910280838360005b8381101561028a578181015183820152602001610272565b505050509050019250505060405180910390f35b3480156102aa57600080fd5b506100e8600480360360408110156102c157600080fd5b50803590602001356001600160a01b03166109cf565b6100e8600480360360208110156102ed57600080fd5b5035610b3e565b34801561030057600080fd5b5061031e6004803603602081101561031757600080fd5b5035610c4f565b60405180888152602001806020018060200187600381111561033c57fe5b60ff1681526020018681526020018560ff1660ff168152602001846001600160a01b03166001600160a01b03168152602001838103835289818151815260200191508051906020019080838360005b838110156103a357818101518382015260200161038b565b50505050905090810190601f1680156103d05780820380516001836020036101000a031916815260200191505b5083810382528851815288516020918201918a019080838360005b838110156104035781810151838201526020016103eb565b50505050905090810190601f1680156104305780820380516001836020036101000a031916815260200191505b50995050505050505050505060405180910390f35b34801561045157600080fd5b5061024e6004803603602081101561046857600080fd5b5035610db2565b34801561047b57600080fd5b50610484610e1f565b60408051918252519081900360200190f35b3480156104a257600080fd5b506100e8600480360360208110156104b957600080fd5b503560ff16610e25565b3480156104cf57600080fd5b506100e8600480360360408110156104e657600080fd5b50803590602001356001600160a01b0316610ea2565b34801561050857600080fd5b506100e86004803603604081101561051f57600080fd5b5060ff8135169060200135611011565b34801561053b57600080fd5b506104846004803603602081101561055257600080fd5b50356110de565b60648160ff161061062b57600254604080516340c10f1960e01b81526001600160a01b03858116600483015260016024830152915191909216916340c10f199160448083019260209291908290030181600087803b1580156105ba57600080fd5b505af11580156105ce573d6000803e3d6000fd5b505050506040513d60208110156105e457600080fd5b5050604080516001600160a01b03841681526001602082015281517ff2c886314f2e9918f317cf9149b925ee2c3f4c18d4aed9ac80aa5b6a8ef25e33929181900390910190a15b604080516001600160a01b03841681526000602082015281517ff2c886314f2e9918f317cf9149b925ee2c3f4c18d4aed9ac80aa5b6a8ef25e33929181900390910190a15050565b60005461067e61142e565b604080516101208101825283815260208082018790528183018690526000606083018190526080830181905260a083018190528351818152808301855260c08401528351908152908101835260e082015290516101008201906106e090611484565b604051809103906000f0801580156106fc573d6000803e3d6000fd5b506001600160a01b031690526000838152600360209081526040909120825181558183015180519394508493919261073c92600185019290910190611491565b5060408201518051610758916002840191602090910190611491565b5060608201518160030160006101000a81548160ff0219169083600381111561077d57fe5b02179055506080820151600482015560a082015160058201805460ff191660ff90921691909117905560c082015180516107c191600784019160209091019061150f565b5060e082015180516107dd91600984019160209091019061150f565b506101009190910151600b90910180546001600160a01b039092166001600160a01b031992831617905560008054600190810182558482526003602081815260408085206007810180548087018255818852848820018054909816339081179098559686526006018252808520805460ff191690941790935586845290815281518681527fed590dc695d4f7e656b37899068d46e3eafc741b38eb6a6761d919deba842bc69487948a94909391929182019082018460ff16815260200180602001838103835286818151815260200191508051906020019080838360005b838110156108d35781810151838201526020016108bb565b50505050905090810190601f1680156109005780820380516001836020036101000a031916815260200191505b50838103825284818154815260200191508054801561094857602002820191906000526020600020905b81546001600160a01b0316815260019091019060200180831161092a575b5050965050505050505060405180910390a150505050565b6000818152600360209081526040918290206007018054835181840281018401909452808452606093928301828280156109c357602002820191906000526020600020905b81546001600160a01b031681526001909101906020018083116109a5575b50505050509050919050565b6000828152600360209081526040808320338452600601909152902054829060ff16610a2c5760405162461bcd60e51b8152600401808060200182810382526026815260200180611daa6026913960400191505060405180910390fd5b60008381526003602090815260408083206001600160a01b038616845260080190915290205460ff1615610aa7576040805162461bcd60e51b815260206004820152601a60248201527f576f726b65722063616e6e6f742062652076616c696461746f72000000000000604482015290519081900360640190fd5b6000838152600360209081526040808320600781018054600180820183559186528486200180546001600160a01b0319166001600160a01b03891690811790915580865260068301855294839020805460ff1916909117905581518781529283019390935280517f416071ae19b4e679348d5e18dcb9b077f472eec9ba091ded090ebf6c91214dd39281900390910190a150505050565b6000818152600360205260408120600b81015460098201805492936001600160a01b039092169263f340fa0192349291610b7457fe5b6000918252602082200154604080516001600160e01b031960e087901b1681526001600160a01b039092166004830152516024808301939282900301818588803b158015610bc157600080fd5b505af1158015610bd5573d6000803e3d6000fd5b50505050507ff2eaae528629a22608d9230f3b516b66ed9c09e24f01cbfffe1e01249eea6370823383600901600081548110610c0d57fe5b60009182526020918290200154604080519485526001600160a01b03938416928501929092529190911682820152346060830152519081900360800190a15050565b6003602090815260009182526040918290208054600180830180548651600293821615610100026000190190911692909204601f810186900486028301860190965285825291949293909290830182828015610cec5780601f10610cc157610100808354040283529160200191610cec565b820191906000526020600020905b815481529060010190602001808311610ccf57829003601f168201915b50505060028085018054604080516020601f6000196101006001871615020190941695909504928301859004850281018501909152818152959695945090925090830182828015610d7e5780601f10610d5357610100808354040283529160200191610d7e565b820191906000526020600020905b815481529060010190602001808311610d6157829003601f168201915b505050600384015460048501546005860154600b90960154949560ff9283169591945090911691506001600160a01b031687565b6000818152600360209081526040918290206009018054835181840281018401909452808452606093928301828280156109c3576020028201919060005260206000209081546001600160a01b031681526001909101906020018083116109a55750505050509050919050565b60005481565b60ff818116600081815260036020818152604092839020808301805460ff1916600117908190559351948552947f469b7cfbb60619eda76c28364bf95ae0afbf0902d135a84497564f799fac00c39487949091169290918201908390811115610e8a57fe5b60ff1681526020019250505060405180910390a15050565b6000828152600360209081526040808320338452600601909152902054829060ff16610eff5760405162461bcd60e51b8152600401808060200182810382526026815260200180611daa6026913960400191505060405180910390fd5b60008381526003602090815260408083206001600160a01b038616845260060190915290205460ff1615610f7a576040805162461bcd60e51b815260206004820152601a60248201527f56616c696461746f722063616e6e6f7420626520776f726b6572000000000000604482015290519081900360640190fd5b6000838152600360209081526040808320600981018054600180820183559186528486200180546001600160a01b0319166001600160a01b03891690811790915580865260088301855294839020805460ff1916909117905581518781529283019390935280517f3cce0ec637799829662d3d2ce35a4c5bb78ca2a3822a2f415d16f5f924ce45969281900390910190a150505050565b60ff80831660009081526003602090815260408083203384526008019091529020541661106f5760405162461bcd60e51b8152600401808060200182810382526023815260200180611d876023913960400191505060405180910390fd5b60ff8216600081815260036020908152604080832033808552600a8201845293829020805487019055815194855291840192909252828201849052905190917f985da90d0c844be16a09ea33f60b076c56a9f6a963578d8db9b5671ba92c7c73919081900360600190a1505050565b60006110e861142e565b600360008481526020019081526020016000206040518061012001604052908160008201548152602001600182018054600181600116156101000203166002900480601f0160208091040260200160405190810160405280929190818152602001828054600181600116156101000203166002900480156111aa5780601f1061117f576101008083540402835291602001916111aa565b820191906000526020600020905b81548152906001019060200180831161118d57829003601f168201915b5050509183525050600282810180546040805160206001841615610100026000190190931694909404601f8101839004830285018301909152808452938101939083018282801561123c5780601f106112115761010080835404028352916020019161123c565b820191906000526020600020905b81548152906001019060200180831161121f57829003601f168201915b505050918352505060038281015460209092019160ff169081111561125d57fe5b600381111561126857fe5b8152602001600482015481526020016005820160009054906101000a900460ff1660ff1660ff168152602001600782018054806020026020016040519081016040528092919081815260200182805480156112ec57602002820191906000526020600020905b81546001600160a01b031681526001909101906020018083116112ce575b505050505081526020016009820180548060200260200160405190810160405280929190818152602001828054801561134e57602002820191906000526020600020905b81546001600160a01b03168152600190910190602001808311611330575b50505050508152602001600b820160009054906101000a90046001600160a01b03166001600160a01b03166001600160a01b03168152505090508061010001516001600160a01b031663e3a9db1a8260e001516000815181106113ad57fe5b60200260200101516040518263ffffffff1660e01b815260040180826001600160a01b03166001600160a01b0316815260200191505060206040518083038186803b1580156113fb57600080fd5b505afa15801561140f573d6000803e3d6000fd5b505050506040513d602081101561142557600080fd5b50519392505050565b6040518061012001604052806000815260200160608152602001606081526020016000600381111561145c57fe5b8152600060208201819052604082018190526060808301819052608083015260a09091015290565b6107d5806115b283390190565b828054600181600116156101000203166002900490600052602060002090601f016020900481019282601f106114d257805160ff19168380011785556114ff565b828001600101855582156114ff579182015b828111156114ff5782518255916020019190600101906114e4565b5061150b929150611570565b5090565b828054828255906000526020600020908101928215611564579160200282015b8281111561156457825182546001600160a01b0319166001600160a01b0390911617825560209092019160019091019061152f565b5061150b92915061158d565b61158a91905b8082111561150b5760008155600101611576565b90565b61158a91905b8082111561150b5780546001600160a01b031916815560010161159356fe60806040526100156001600160e01b0361006f16565b600080546001600160a01b0319166001600160a01b0392831617908190556040805191909216815290517f4101e71e974f68df5e9730cc223280b41654676bbb052cdcc735c3337e64d2d9916020908290030190a1610073565b3390565b610753806100826000396000f3fe6080604052600436106100555760003560e01c80632348238c1461005a57806351cff8d91461008f5780636809691a146100c2578063c6dbdf61146100f5578063e3a9db1a14610126578063f340fa011461016b575b600080fd5b34801561006657600080fd5b5061008d6004803603602081101561007d57600080fd5b50356001600160a01b0316610191565b005b34801561009b57600080fd5b5061008d600480360360208110156100b257600080fd5b50356001600160a01b0316610289565b3480156100ce57600080fd5b5061008d600480360360208110156100e557600080fd5b50356001600160a01b0316610370565b34801561010157600080fd5b5061010a61043a565b604080516001600160a01b039092168252519081900360200190f35b34801561013257600080fd5b506101596004803603602081101561014957600080fd5b50356001600160a01b0316610449565b60408051918252519081900360200190f35b61008d6004803603602081101561018157600080fd5b50356001600160a01b0316610464565b6000546001600160a01b03166101a561053e565b6001600160a01b0316146101ea5760405162461bcd60e51b815260040180806020018281038252602c8152602001806106f3602c913960400191505060405180910390fd5b6001600160a01b03811661022f5760405162461bcd60e51b815260040180806020018281038252602a8152602001806106c9602a913960400191505060405180910390fd5b600080546001600160a01b0319166001600160a01b03838116919091179182905560408051929091168252517f4101e71e974f68df5e9730cc223280b41654676bbb052cdcc735c3337e64d2d9916020908290030190a150565b6000546001600160a01b031661029d61053e565b6001600160a01b0316146102e25760405162461bcd60e51b815260040180806020018281038252602c8152602001806106f3602c913960400191505060405180910390fd5b6001600160a01b038116600081815260016020526040808220805490839055905190929183156108fc02918491818181858888f1935050505015801561032c573d6000803e3d6000fd5b506040805182815290516001600160a01b038416917f7084f5476618d8e60b11ef0d7d3f06914655adb8793e28ff7f018d4c76d505d5919081900360200190a25050565b6000546001600160a01b031661038461053e565b6001600160a01b0316146103c95760405162461bcd60e51b815260040180806020018281038252602c8152602001806106f3602c913960400191505060405180910390fd5b6001600160a01b03811660008181526001602052604081208054919055906103f7908263ffffffff61054216565b6040805182815290516001600160a01b038416917f7084f5476618d8e60b11ef0d7d3f06914655adb8793e28ff7f018d4c76d505d5919081900360200190a25050565b6000546001600160a01b031690565b6001600160a01b031660009081526001602052604090205490565b6000546001600160a01b031661047861053e565b6001600160a01b0316146104bd5760405162461bcd60e51b815260040180806020018281038252602c8152602001806106f3602c913960400191505060405180910390fd5b6001600160a01b03811660009081526001602052604090205434906104e8908263ffffffff61062d16565b6001600160a01b038316600081815260016020908152604091829020939093558051848152905191927f2da466a7b24304f47e87fa2e1e5a81b9831ce54fec19055ce277ca2f39ba42c492918290030190a25050565b3390565b3031811115610598576040805162461bcd60e51b815260206004820152601d60248201527f416464726573733a20696e73756666696369656e742062616c616e6365000000604482015290519081900360640190fd5b6040516000906001600160a01b0384169083908381818185875af1925050503d80600081146105e3576040519150601f19603f3d011682016040523d82523d6000602084013e6105e8565b606091505b50509050806106285760405162461bcd60e51b815260040180806020018281038252603a81526020018061068f603a913960400191505060405180910390fd5b505050565b600082820183811015610687576040805162461bcd60e51b815260206004820152601b60248201527f536166654d6174683a206164646974696f6e206f766572666c6f770000000000604482015290519081900360640190fd5b939250505056fe416464726573733a20756e61626c6520746f2073656e642076616c75652c20726563697069656e74206d617920686176652072657665727465645365636f6e646172793a206e6577207072696d61727920697320746865207a65726f20616464726573735365636f6e646172793a2063616c6c6572206973206e6f7420746865207072696d617279206163636f756e74a265627a7a72315820ecc14103dc176c95375fd3b818f40fba3a5507e0b46fe5c04463d38100da101c64736f6c634300050c003243616c6c6572206973206e6f74206120776f726b6572206f662074686973207461736b43616c6c6572206973206e6f7420612076616c696461746f72206f662074686973207461736ba265627a7a72315820e0bbe67e3c362f361d497ece395a0a8a9fa69d6112194c5215c49d790fb2b12b64736f6c634300050c0032",
  "source": "pragma solidity ^0.5.11;\n\nimport '../node_modules/@openzeppelin/contracts/payment/escrow/Escrow.sol';\nimport './PPCToken.sol';\n\ncontract TaskList {\n\tuint public task_count = 0;\n\tenum State { created, accepted, completed, reviewed }\n\tuint8[] ratings = [0, 1, 2, 3, 4, 5, 6, 7, 8, 9, 10];\n\t// enum Difficulty { standard, advanced , expert }\n\t// enum Uncertainity { clear, uncertain, unknown }\n\tPPCToken private ppctoken;\n\n\tconstructor (address _ppctoken_address) public {\n\t\tppctoken = PPCToken(_ppctoken_address);\n\t}\n\n\tstruct Task {\n\t\tuint id;\n\t\tstring title;\n\t\tstring description;\n\t\tState state;\n\t\tuint deadline;\n\t\tuint8 rating;\n\t\tmapping(address => bool) validators_map;\n\t\taddress[] validators;\n\t\tmapping(address => bool) workers_map;\n\t\taddress[] workers;\n\t\tmapping(address => uint) worked_hours;\n\t\tEscrow escrow;\n\t\t//uint predecessor_id;\n\t\t//uint successor_id;\n\t}\n\n\tmapping(uint => Task) public tasks;\n\n\tevent TaskCreated(\n\t\tuint id,\n\t\tstring title,\n\t\tState state,\n\t\taddress[] validators\n\t);\n\n\tevent Test(bool is_true);\n\n\tmodifier validatorsOnly(uint _id) {\n\t\t// checks that the sender is a validator of task\n\t\trequire(tasks[_id].validators_map[msg.sender], \"Caller is not a validator of this task\");\n\t\t_;\n\t}\n\n\tevent TaskState(\n\t\tuint id,\n\t\tState state\n\t);\n\n\tevent validatorAdded(\n\t\tuint task_id,\n\t\taddress validator\n\t);\n\n\tevent workerAdded(\n\t\tuint task_id,\n\t\taddress worker\n\t);\n\n\tevent workedHoursAdded(\n\t\tuint task_id,\n\t\taddress worker,\n\t\tuint _hours\n\t);\n\n\tevent taskFunded(\n\t\tuint task_id,\n\t\taddress sender,\n\t\taddress receiver,\n\t\tuint256 amount\n\t);\n\n\tevent PPCTokenMinted(\n\t\taddress account,\n\t\tuint amount\n\t);\n\n\tfunction createTask(string memory _title, string memory _description) public {\n\t\tuint _id = task_count;\n\t\tTask memory task = Task(_id, _title, _description, State.created, 0, 0, new address[](0), new address[](0), new Escrow());\n\t\t// https://medium.com/loom-network/ethereum-solidity-memory-vs-storage-how-to-initialize-an-array-inside-a-struct-184baf6aa2eb\n\t\ttasks[_id] = task;\n\t\ttask_count++;\n\t\ttasks[_id].validators.push(msg.sender);\n\t\ttasks[_id].validators_map[msg.sender] = true;\n\t\temit TaskCreated(_id, _title, State.created, tasks[_id].validators);\n\t}\n\n\tfunction addValidator(uint _task_id, address _validator) public validatorsOnly(_task_id) {\n\t\trequire(!tasks[_task_id].workers_map[_validator], \"Worker cannot be validator\");\n\t\tTask storage _task = tasks[_task_id];\n\t\t_task.validators.push(_validator);\n\t\t_task.validators_map[_validator] = true;\n\t\temit validatorAdded(_task_id, _validator);\n\t}\n\n\tfunction getValidators(uint _task_id) public view returns (address[] memory) {\n\t\treturn tasks[_task_id].validators;\n\t}\n\n\tfunction addWorker(uint _task_id, address _worker) public validatorsOnly(_task_id) {\n\t\trequire(!tasks[_task_id].validators_map[_worker], \"Validator cannot be worker\");\n\t\tTask storage _task = tasks[_task_id];\n\t\t_task.workers.push(_worker);\n\t\t_task.workers_map[_worker] = true;\n\t\temit workerAdded(_task_id, _worker);\n\t}\n\n\tfunction getWorkers(uint _task_id) public view returns (address[] memory) {\n\t\treturn tasks[_task_id].workers;\n\t}\n\n\tfunction addWorkedHours(uint8 _task_id, uint _hours) public {\n\t\trequire(tasks[_task_id].workers_map[msg.sender], \"Caller is not a worker of this task\");\n\t\tTask storage _task = tasks[_task_id];\n\t\t_task.worked_hours[msg.sender] += _hours;\n\t\temit workedHoursAdded(_task_id, msg.sender, _hours);\n\t}\n\n\tfunction fundTaskEscrow(uint _task_id) public payable {\n\t\t// stores funds for the given task its corresponding escrow\n\t\tTask storage _task = tasks[_task_id];\n\n\t\t_task.escrow.deposit.value(msg.value)(_task.workers[0]);\n\t\t// the 1st worker will get the payment -> add split payment later\n\t\temit taskFunded(_task_id, msg.sender, _task.workers[0], msg.value);\n\t}\n\n\tfunction getTaskDeposit(uint _task_id) public view returns (uint256) {\n\t\tTask memory _task = tasks[_task_id];\n\t\treturn _task.escrow.depositsOf(_task.workers[0]);\n\t}\n\n\tfunction mintPPCTOken(address _account, uint8 _ppc) public {\n\t\tif(_ppc >= 100) {\n\t\t\tppctoken.mint(_account, 1);\n\t\t\temit PPCTokenMinted(_account, 1);\n\t\t}\n\t\temit PPCTokenMinted(_account, 0);\n\t}\n\n\tfunction toggleStarted(uint8 _id) public {\n\t\tTask storage _task = tasks[_id];\n\t\t_task.state = State.accepted;\n\t\t// tasks[_id] = _task;\n\t\temit TaskState(_id, _task.state);\n\t}\n\n}",
  "sourcePath": "/Users/pabrasey/Dropbox/01_Formation/ETHZ/01_Master/02_Projects/Master Thesis/Production/Code/ipd-block/contracts/TaskList.sol",
  "compiler": {
    "name": "solc",
    "version": "0.5.12+commit.7709ece9.Emscripten.clang"
  },
  "schemaVersion": "3.0.19",
  "updatedAt": "2019-12-26T13:42:13.451Z",
  "networkType": "ethereum",
  "devdoc": {
    "methods": {}
  },
  "userdoc": {
    "methods": {}
  }
}