{
  "contractName": "TaskList",
  "abi": [
    {
      "inputs": [
        {
          "internalType": "address",
          "name": "_ppctoken_address",
          "type": "address"
        }
      ],
      "payable": false,
      "stateMutability": "nonpayable",
      "type": "constructor"
    },
    {
      "anonymous": false,
      "inputs": [
        {
          "indexed": false,
          "internalType": "address",
          "name": "account",
          "type": "address"
        },
        {
          "indexed": false,
          "internalType": "uint256",
          "name": "amount",
          "type": "uint256"
        }
      ],
      "name": "PPCTokenMinted",
      "type": "event"
    },
    {
      "anonymous": false,
      "inputs": [
        {
          "indexed": false,
          "internalType": "uint256",
          "name": "id",
          "type": "uint256"
        },
        {
          "indexed": false,
          "internalType": "string",
          "name": "title",
          "type": "string"
        },
        {
          "indexed": false,
          "internalType": "enum TaskList.State",
          "name": "state",
          "type": "uint8"
        },
        {
          "indexed": false,
          "internalType": "address payable[]",
          "name": "validators",
          "type": "address[]"
        }
      ],
      "name": "TaskCreated",
      "type": "event"
    },
    {
      "anonymous": false,
      "inputs": [
        {
          "indexed": false,
          "internalType": "uint256",
          "name": "id",
          "type": "uint256"
        },
        {
          "indexed": false,
          "internalType": "enum TaskList.State",
          "name": "state",
          "type": "uint8"
        }
      ],
      "name": "TaskState",
      "type": "event"
    },
    {
      "anonymous": false,
      "inputs": [
        {
          "indexed": false,
          "internalType": "bool",
          "name": "is_true",
          "type": "bool"
        }
      ],
      "name": "Test",
      "type": "event"
    },
    {
      "anonymous": false,
      "inputs": [
        {
          "indexed": false,
          "internalType": "uint256",
          "name": "task_id",
          "type": "uint256"
        },
        {
          "indexed": false,
          "internalType": "address",
          "name": "sender",
          "type": "address"
        },
        {
          "indexed": false,
          "internalType": "uint256",
          "name": "amount",
          "type": "uint256"
        }
      ],
      "name": "taskFunded",
      "type": "event"
    },
    {
      "anonymous": false,
      "inputs": [
        {
          "indexed": false,
          "internalType": "uint256",
          "name": "task_id",
          "type": "uint256"
        },
        {
          "indexed": false,
          "internalType": "address",
          "name": "validator",
          "type": "address"
        }
      ],
      "name": "validatorAdded",
      "type": "event"
    },
    {
      "anonymous": false,
      "inputs": [
        {
          "indexed": false,
          "internalType": "uint256",
          "name": "task_id",
          "type": "uint256"
        },
        {
          "indexed": false,
          "internalType": "address",
          "name": "worker",
          "type": "address"
        },
        {
          "indexed": false,
          "internalType": "uint256",
          "name": "_hours",
          "type": "uint256"
        }
      ],
      "name": "workedHoursAdded",
      "type": "event"
    },
    {
      "anonymous": false,
      "inputs": [
        {
          "indexed": false,
          "internalType": "uint256",
          "name": "task_id",
          "type": "uint256"
        },
        {
          "indexed": false,
          "internalType": "address",
          "name": "worker",
          "type": "address"
        }
      ],
      "name": "workerAdded",
      "type": "event"
    },
    {
      "constant": true,
      "inputs": [],
      "name": "hourly_rate",
      "outputs": [
        {
          "internalType": "uint256",
          "name": "",
          "type": "uint256"
        }
      ],
      "payable": false,
      "stateMutability": "view",
      "type": "function"
    },
    {
      "constant": true,
      "inputs": [],
      "name": "task_count",
      "outputs": [
        {
          "internalType": "uint256",
          "name": "",
          "type": "uint256"
        }
      ],
      "payable": false,
      "stateMutability": "view",
      "type": "function"
    },
    {
      "constant": true,
      "inputs": [
        {
          "internalType": "uint256",
          "name": "",
          "type": "uint256"
        }
      ],
      "name": "tasks",
      "outputs": [
        {
          "internalType": "uint256",
          "name": "id",
          "type": "uint256"
        },
        {
          "internalType": "string",
          "name": "title",
          "type": "string"
        },
        {
          "internalType": "string",
          "name": "description",
          "type": "string"
        },
        {
          "internalType": "enum TaskList.State",
          "name": "state",
          "type": "uint8"
        },
        {
          "internalType": "uint256",
          "name": "deadline",
          "type": "uint256"
        },
        {
          "internalType": "uint8",
          "name": "Qrating",
          "type": "uint8"
        },
        {
          "internalType": "uint8",
          "name": "ppc",
          "type": "uint8"
        },
        {
          "internalType": "uint8",
          "name": "ppc_worker",
          "type": "uint8"
        },
        {
          "internalType": "uint256",
          "name": "balance",
          "type": "uint256"
        }
      ],
      "payable": false,
      "stateMutability": "view",
      "type": "function"
    },
    {
      "constant": false,
      "inputs": [
        {
          "internalType": "string",
          "name": "_title",
          "type": "string"
        },
        {
          "internalType": "string",
          "name": "_description",
          "type": "string"
        }
      ],
      "name": "createTask",
      "outputs": [],
      "payable": false,
      "stateMutability": "nonpayable",
      "type": "function"
    },
    {
      "constant": false,
      "inputs": [
        {
          "internalType": "uint256",
          "name": "_task_id",
          "type": "uint256"
        },
        {
          "internalType": "address payable",
          "name": "_validator",
          "type": "address"
        }
      ],
      "name": "addValidator",
      "outputs": [],
      "payable": false,
      "stateMutability": "nonpayable",
      "type": "function"
    },
    {
      "constant": true,
      "inputs": [
        {
          "internalType": "uint256",
          "name": "_task_id",
          "type": "uint256"
        }
      ],
      "name": "getValidators",
      "outputs": [
        {
          "internalType": "address payable[]",
          "name": "",
          "type": "address[]"
        }
      ],
      "payable": false,
      "stateMutability": "view",
      "type": "function"
    },
    {
      "constant": false,
      "inputs": [
        {
          "internalType": "uint256",
          "name": "_task_id",
          "type": "uint256"
        },
        {
          "internalType": "address payable",
          "name": "_worker",
          "type": "address"
        }
      ],
      "name": "addWorker",
      "outputs": [],
      "payable": false,
      "stateMutability": "nonpayable",
      "type": "function"
    },
    {
      "constant": true,
      "inputs": [
        {
          "internalType": "uint256",
          "name": "_task_id",
          "type": "uint256"
        }
      ],
      "name": "getWorkers",
      "outputs": [
        {
          "internalType": "address payable[]",
          "name": "",
          "type": "address[]"
        }
      ],
      "payable": false,
      "stateMutability": "view",
      "type": "function"
    },
    {
      "constant": false,
      "inputs": [
        {
          "internalType": "uint256",
          "name": "_task_id",
          "type": "uint256"
        },
        {
          "internalType": "uint256",
          "name": "_hours",
          "type": "uint256"
        }
      ],
      "name": "addWorkedHours",
      "outputs": [],
      "payable": false,
      "stateMutability": "nonpayable",
      "type": "function"
    },
    {
      "constant": true,
      "inputs": [
        {
          "internalType": "uint256",
          "name": "_task_id",
          "type": "uint256"
        },
        {
          "internalType": "address",
          "name": "_worker",
          "type": "address"
        }
      ],
      "name": "getWorkedHours",
      "outputs": [
        {
          "internalType": "uint256",
          "name": "",
          "type": "uint256"
        }
      ],
      "payable": false,
      "stateMutability": "view",
      "type": "function"
    },
    {
      "constant": false,
      "inputs": [
        {
          "internalType": "uint256",
          "name": "_task_id",
          "type": "uint256"
        }
      ],
      "name": "fundTask",
      "outputs": [],
      "payable": true,
      "stateMutability": "payable",
      "type": "function"
    },
    {
      "constant": false,
      "inputs": [
        {
          "internalType": "uint256",
          "name": "_task_id",
          "type": "uint256"
        },
        {
          "internalType": "uint8",
          "name": "_ppc",
          "type": "uint8"
        }
      ],
      "name": "completeTask",
      "outputs": [],
      "payable": false,
      "stateMutability": "nonpayable",
      "type": "function"
    },
    {
      "constant": true,
      "inputs": [
        {
          "internalType": "uint256",
          "name": "_task_id",
          "type": "uint256"
        }
      ],
      "name": "neededTaskFund",
      "outputs": [
        {
          "internalType": "uint256",
          "name": "",
          "type": "uint256"
        }
      ],
      "payable": false,
      "stateMutability": "view",
      "type": "function"
    },
    {
      "constant": true,
      "inputs": [
        {
          "internalType": "uint256",
          "name": "_task_id",
          "type": "uint256"
        }
      ],
      "name": "sufficientFunds",
      "outputs": [
        {
          "internalType": "bool",
          "name": "",
          "type": "bool"
        }
      ],
      "payable": false,
      "stateMutability": "view",
      "type": "function"
    },
    {
      "constant": false,
      "inputs": [
        {
          "internalType": "uint256",
          "name": "_task_id",
          "type": "uint256"
        },
        {
          "internalType": "uint8",
          "name": "_ppc",
          "type": "uint8"
        },
        {
          "internalType": "uint8",
          "name": "_Qrating",
          "type": "uint8"
        }
      ],
      "name": "validateTask",
      "outputs": [
        {
          "internalType": "bool",
          "name": "",
          "type": "bool"
        }
      ],
      "payable": false,
      "stateMutability": "nonpayable",
      "type": "function"
    },
    {
      "constant": true,
      "inputs": [
        {
          "internalType": "uint256",
          "name": "_task_id",
          "type": "uint256"
        },
        {
          "internalType": "address",
          "name": "_validator",
          "type": "address"
        }
      ],
      "name": "getValidation",
      "outputs": [
        {
          "components": [
            {
              "internalType": "bool",
              "name": "exists",
              "type": "bool"
            },
            {
              "internalType": "uint8",
              "name": "ppc",
              "type": "uint8"
            },
            {
              "internalType": "uint8",
              "name": "Qrating",
              "type": "uint8"
            }
          ],
          "internalType": "struct TaskList.Validation",
          "name": "",
          "type": "tuple"
        }
      ],
      "payable": false,
      "stateMutability": "view",
      "type": "function"
    },
    {
      "constant": false,
      "inputs": [
        {
          "internalType": "uint8",
          "name": "_id",
          "type": "uint8"
        }
      ],
      "name": "toggleStarted",
      "outputs": [],
      "payable": false,
      "stateMutability": "nonpayable",
      "type": "function"
    },
    {
      "constant": true,
      "inputs": [],
      "name": "getContractBalance",
      "outputs": [
        {
          "internalType": "uint256",
          "name": "",
          "type": "uint256"
        }
      ],
      "payable": false,
      "stateMutability": "view",
      "type": "function"
    }
  ],
  "bytecode": "0x60008080556101e06040526080908152600160a0819052600260c052600360e05260046101005260056101205260066101405260076101605260086101805260096101a052600a6101c0526200005791600b620000c7565b506002805460ff1916605a179055670de0b6b3a76400006003553480156200007e57600080fd5b506040516200230438038062002304833981016040819052620000a191620001ab565b600480546001600160a01b0319166001600160a01b039290921691909117905562000200565b82805482825590600052602060002090601f01602090048101928215620001625791602002820160005b838211156200013157835183826101000a81548160ff021916908360ff1602179055509260200192600101602081600001049283019260010302620000f1565b8015620001605782816101000a81549060ff021916905560010160208160000104928301926001030262000131565b505b506200017092915062000174565b5090565b6200019591905b808211156200017057805460ff191681556001016200017b565b90565b8051620001a581620001e6565b92915050565b600060208284031215620001be57600080fd5b6000620001cc848462000198565b949350505050565b60006001600160a01b038216620001a5565b620001f181620001d4565b8114620001fd57600080fd5b50565b6120f480620002106000396000f3fe6080604052600436106101095760003560e01c806391c0744411610095578063ceda812c11610064578063ceda812c146102ec578063d1ff21c21461030c578063d882e4bc1461031f578063dee5c0df1461033f578063f9a773681461035457610109565b806391c0744414610277578063927ce5c814610297578063a695066e146102b7578063b3435251146102d757610109565b80634b561753116100dc5780634b561753146101b35780634d893d40146101d357806362159920146102005780636f9fb98a146102205780638d9776721461024257610109565b806313aae8a91461010e578063292a45851461014457806342f19aac14610166578063471f40fb14610186575b600080fd5b34801561011a57600080fd5b5061012e610129366004611a76565b610374565b60405161013b9190611d92565b60405180910390f35b34801561015057600080fd5b5061016461015f36600461195f565b610484565b005b34801561017257600080fd5b50610164610181366004611a46565b610699565b34801561019257600080fd5b506101a66101a13660046119c8565b61071d565b60405161013b9190611d81565b3480156101bf57600080fd5b506101646101ce3660046119e6565b61078d565b3480156101df57600080fd5b506101f36101ee3660046119e6565b61089b565b60405161013b9190611de0565b34801561020c57600080fd5b5061012e61021b3660046119c8565b610902565b34801561022c57600080fd5b50610235610bb0565b60405161013b9190611dee565b34801561024e57600080fd5b5061026261025d3660046119c8565b610bb6565b60405161013b99989796959493929190611e8a565b34801561028357600080fd5b506102356102923660046119e6565b610d21565b3480156102a357600080fd5b506101646102b2366004611a16565b610d4d565b3480156102c357600080fd5b506101a66102d23660046119c8565b610e13565b3480156102e357600080fd5b50610235610e80565b3480156102f857600080fd5b50610164610307366004611ac3565b610e86565b61016461031a3660046119c8565b610eee565b34801561032b57600080fd5b5061016461033a3660046119e6565b610f3f565b34801561034b57600080fd5b50610235611059565b34801561036057600080fd5b5061023561036f3660046119c8565b61105f565b6000838152600560209081526040808320338452600601909152812054849060ff166103bb5760405162461bcd60e51b81526004016103b290611dd0565b60405180910390fd5b6000858152600560205260409020600260038083015460ff16908111156103de57fe5b1480156103ee57508460ff166000105b80156103fe575060648560ff1611155b801561040d57508360ff166000105b801561041d5750600a8460ff1611155b15610476573360009081526008820160205260409020805460ff1960ff878116620100000262ff000019918a166101000261ff001990941693909317169190911716600117815561046d876110d3565b9350505061047c565b60009250505b509392505050565b60005461048f611718565b506040805161016081018252828152602080820186815282840186905260016060840181905260006080850181905260a0850181905260c0850181905260e0850181905285518181528085018752610100860152855181815280850187526101208601526101408501819052868152600584529490942083518155905180519394859492936105239391850192019061177c565b506040820151805161053f91600284019160209091019061177c565b5060608201518160030160006101000a81548160ff0219169083600381111561056457fe5b02179055506080820151600482015560a082015160058201805460c085015160e086015160ff1990921660ff9485161761ff00191661010091851682021762ff0000191662010000949092169390930217905582015180516105d09160078401916020909101906117fa565b5061012082015180516105ed91600a8401916020909101906117fa565b506101409190910151600c90910155600080546001908101825583825260056020818152604080852060078101805480870182558188528488200180546001600160a01b03191633908117909155875260069091018352818620805460ff1916909517909455868552919052517fed590dc695d4f7e656b37899068d46e3eafc741b38eb6a6761d919deba842bc69261068b92869289929190611e3f565b60405180910390a150505050565b60008281526005602090815260408083203380855260099091019092529091205483919060ff166106dc5760405162461bcd60e51b81526004016103b290611db0565b50506000918252600560208190526040909220918201805460ff92909216620100000262ff000019909216919091179055600301805460ff19166002179055565b60008181526005602090815260409182902060070180548351818402810184019094528084526060939283018282801561078057602002820191906000526020600020905b81546001600160a01b03168152600190910190602001808311610762575b505050505090505b919050565b6000828152600560209081526040808320338452600601909152902054829060ff166107cb5760405162461bcd60e51b81526004016103b290611dd0565b60008381526005602090815260408083206001600160a01b038616845260090190915290205460ff16156108115760405162461bcd60e51b81526004016103b290611da0565b6000838152600560209081526040808320600781018054600180820183559186528486200180546001600160a01b0319166001600160a01b03891690811790915585526006820190935292819020805460ff1916909217909155517f416071ae19b4e679348d5e18dcb9b077f472eec9ba091ded090ebf6c91214dd39061068b9086908690611dfc565b6108a361185b565b5060008281526005602090815260408083206001600160a01b03851684526008018252918290208251606081018452905460ff808216151583526101008204811693830193909352620100009004909116918101919091525b92915050565b600061090c611718565b600560008481526020019081526020016000206040518061016001604052908160008201548152602001600182018054600181600116156101000203166002900480601f0160208091040260200160405190810160405280929190818152602001828054600181600116156101000203166002900480156109ce5780601f106109a3576101008083540402835291602001916109ce565b820191906000526020600020905b8154815290600101906020018083116109b157829003601f168201915b5050509183525050600282810180546040805160206001841615610100026000190190931694909404601f81018390048302850183019091528084529381019390830182828015610a605780601f10610a3557610100808354040283529160200191610a60565b820191906000526020600020905b815481529060010190602001808311610a4357829003601f168201915b505050918352505060038281015460209092019160ff1690811115610a8157fe5b6003811115610a8c57fe5b81526004820154602080830191909152600583015460ff8082166040808601919091526101008304821660608601526201000090920416608084015260078401805482518185028101850190935280835260a0909401939192909190830182828015610b2157602002820191906000526020600020905b81546001600160a01b03168152600190910190602001808311610b03575b50505050508152602001600a8201805480602002602001604051908101604052809291908181526020018280548015610b8357602002820191906000526020600020905b81546001600160a01b03168152600190910190602001808311610b65575b50505050508152602001600c820154815250509050610ba18361105f565b61014090910151101592915050565b30315b90565b6005602090815260009182526040918290208054600180830180548651600293821615610100026000190190911692909204601f810186900486028301860190965285825291949293909290830182828015610c535780601f10610c2857610100808354040283529160200191610c53565b820191906000526020600020905b815481529060010190602001808311610c3657829003601f168201915b50505060028085018054604080516020601f6000196101006001871615020190941695909504928301859004850281018501909152818152959695945090925090830182828015610ce55780601f10610cba57610100808354040283529160200191610ce5565b820191906000526020600020905b815481529060010190602001808311610cc857829003601f168201915b505050600384015460048501546005860154600c90960154949560ff928316959194508083169350610100810483169262010000909104169089565b60008281526005602090815260408083206001600160a01b0385168452600b0190915290205492915050565b60008281526005602090815260408083203380855260099091019092529091205483919060ff16610d905760405162461bcd60e51b81526004016103b290611db0565b6000848152600560205260409020600160038083015460ff1690811115610db357fe5b1415610e0c57336000818152600b8301602052604090819020805487019055517f985da90d0c844be16a09ea33f60b076c56a9f6a963578d8db9b5671ba92c7c7391610e03918891908890611e17565b60405180910390a15b5050505050565b600081815260056020908152604091829020600a01805483518184028101840190945280845260609392830182828015610780576020028201919060005260206000209081546001600160a01b031681526001909101906020018083116107625750505050509050919050565b60005481565b60ff8181166000908152600560205260409081902060038101805460ff191660011790819055915190927f469b7cfbb60619eda76c28364bf95ae0afbf0902d135a84497564f799fac00c392610ee29286929190911690611f1e565b60405180910390a15050565b60008181526005602052604090819020600c8101805434908101909155915190917f197826786b70913e7550f8690960cf2f27ad91f8813f40e7eb4ab20ee08c3ad791610ee2918591339190611e17565b6000828152600560209081526040808320338452600601909152902054829060ff16610f7d5760405162461bcd60e51b81526004016103b290611dd0565b60008381526005602090815260408083206001600160a01b038616845260060190915290205460ff1615610fc35760405162461bcd60e51b81526004016103b290611dc0565b6000838152600560209081526040808320600a81018054600180820183559186528486200180546001600160a01b0319166001600160a01b0389169081179091558552600982018452828520805460ff19169091179055600b81019092528083209290925590517f3cce0ec637799829662d3d2ce35a4c5bb78ca2a3822a2f415d16f5f924ce45969061068b9086908690611dfc565b60035481565b600081815260056020526040812081805b600a83015461ffff821610156110c757600083600a018261ffff168154811061109557fe5b60009182526020808320909101546001600160a01b03168252600b860190526040902054929092019150600101611070565b50600354029392505050565b6000818152600560205260408120600781015482908180805b8360ff168160ff161015611171576000866007018260ff168154811061110e57fe5b60009182526020808320909101546001600160a01b031680835260088a01909152604090912080549192509060ff16156111675780546001979097019660ff610100820481169690960195620100009091041693909301925b50506001016110ec565b5060008260ff161180156111965750600585015460ff62010000909104811690831610155b80156111a757508260ff168460ff16145b80156111b757506111b787610902565b1561123a578360ff168260ff16816111cb57fe5b60058701805460ff9390920483166101000261ff0019909216919091179055811615611218578360ff168160ff168161120057fe5b60058701805460ff19169290910460ff169190911790555b6003858101805460ff1916909117905561123187611259565b61123a87611367565b60038581015460ff168181111561124d57fe5b14979650505050505050565b6000818152600560205260408120905b600a82015461ffff8216101561130457600082600a018261ffff168154811061128e57fe5b60009182526020808320909101546003546001600160a01b03909116808452600b8701909252604080842054600c8801805491909302908190039092555191935091839183156108fc0291849190818181858888f193505050501580156112f9573d6000803e3d6000fd5b505050600101611269565b50600c810180546000918290556007830180549192909161132157fe5b60009182526020822001546040516001600160a01b039091169183156108fc02918491818181858888f19350505050158015611361573d6000803e3d6000fd5b50505050565b61136f611718565b600560008381526020019081526020016000206040518061016001604052908160008201548152602001600182018054600181600116156101000203166002900480601f0160208091040260200160405190810160405280929190818152602001828054600181600116156101000203166002900480156114315780601f1061140657610100808354040283529160200191611431565b820191906000526020600020905b81548152906001019060200180831161141457829003601f168201915b5050509183525050600282810180546040805160206001841615610100026000190190931694909404601f810183900483028501830190915280845293810193908301828280156114c35780601f10611498576101008083540402835291602001916114c3565b820191906000526020600020905b8154815290600101906020018083116114a657829003601f168201915b505050918352505060038281015460209092019160ff16908111156114e457fe5b60038111156114ef57fe5b81526004820154602080830191909152600583015460ff8082166040808601919091526101008304821660608601526201000090920416608084015260078401805482518185028101850190935280835260a090940193919290919083018282801561158457602002820191906000526020600020905b81546001600160a01b03168152600190910190602001808311611566575b50505050508152602001600a82018054806020026020016040519081016040528092919081815260200182805480156115e657602002820191906000526020600020905b81546001600160a01b031681526001909101906020018083116115c8575b5050509183525050600c919091015460209091015260025460c082015191925060ff9081169116106117145760005b816101200151518161ffff1610156117125760008261012001518261ffff168151811061163e57fe5b6020908102919091010151600480546040516340c10f1960e01b81529293506001600160a01b0316916340c10f199161167c91859160019101611d5f565b602060405180830381600087803b15801561169657600080fd5b505af11580156116aa573d6000803e3d6000fd5b505050506040513d601f19601f820116820180604052506116ce9190810190611939565b507ff2c886314f2e9918f317cf9149b925ee2c3f4c18d4aed9ac80aa5b6a8ef25e33816001604051611701929190611d5f565b60405180910390a150600101611615565b505b5050565b6040518061016001604052806000815260200160608152602001606081526020016000600381111561174657fe5b81526000602082018190526040820181905260608083018290526080830182905260a0830181905260c083015260e09091015290565b828054600181600116156101000203166002900490600052602060002090601f016020900481019282601f106117bd57805160ff19168380011785556117ea565b828001600101855582156117ea579182015b828111156117ea5782518255916020019190600101906117cf565b506117f692915061187b565b5090565b82805482825590600052602060002090810192821561184f579160200282015b8281111561184f57825182546001600160a01b0319166001600160a01b0390911617825560209092019160019091019061181a565b506117f6929150611895565b604080516060810182526000808252602082018190529181019190915290565b610bb391905b808211156117f65760008155600101611881565b610bb391905b808211156117f65780546001600160a01b031916815560010161189b565b80356108fc81612082565b80516108fc81612096565b600082601f8301126118e057600080fd5b81356118f36118ee82611f60565b611f39565b9150808252602083016020830185838301111561190f57600080fd5b61191a838284612014565b50505092915050565b80356108fc8161209f565b80356108fc816120a8565b60006020828403121561194b57600080fd5b600061195784846118c4565b949350505050565b6000806040838503121561197257600080fd5b823567ffffffffffffffff81111561198957600080fd5b611995858286016118cf565b925050602083013567ffffffffffffffff8111156119b257600080fd5b6119be858286016118cf565b9150509250929050565b6000602082840312156119da57600080fd5b60006119578484611923565b600080604083850312156119f957600080fd5b6000611a058585611923565b92505060206119be858286016118b9565b60008060408385031215611a2957600080fd5b6000611a358585611923565b92505060206119be85828601611923565b60008060408385031215611a5957600080fd5b6000611a658585611923565b92505060206119be8582860161192e565b600080600060608486031215611a8b57600080fd5b6000611a978686611923565b9350506020611aa88682870161192e565b9250506040611ab98682870161192e565b9150509250925092565b600060208284031215611ad557600080fd5b6000611957848461192e565b6000611aed8383611b04565b505060200190565b611afe81611fdd565b82525050565b611afe81611fbd565b6000611b1882611f9a565b611b228185611fa8565b9350611b2d83611f88565b8060005b83811015611b5b578151611b458882611ae1565b9750611b5083611f88565b925050600101611b31565b509495945050505050565b6000611b7182611f9e565b611b7b8185611fa8565b9350611b8683611f8e565b8060005b83811015611b5b57611b9b8261205f565b611ba58882611ae1565b9750611bb083611fa2565b925050600101611b8a565b611afe81611fc8565b611afe81611fe8565b611afe81611ff3565b6000611be182611f9a565b611beb8185611fa8565b9350611bfb818560208601612020565b611c048161206b565b9093019392505050565b6000611c1b601a83611fa8565b7f576f726b65722063616e6e6f742062652076616c696461746f72000000000000815260200192915050565b6000611c54602383611fa8565b7f576f726b6572206973206e6f742061737369676e656420746f2074686973207481526261736b60e81b602082015260400192915050565b6000611c99601a83611fa8565b7f56616c696461746f722063616e6e6f7420626520776f726b6572000000000000815260200192915050565b6000611cd2602683611fa8565b7f43616c6c6572206973206e6f7420612076616c696461746f72206f662074686981526573207461736b60d01b602082015260400192915050565b80516060830190611d1e8482611bbb565b506020820151611d316020850182611d56565b5060408201516113616040850182611d56565b611afe81610bb3565b611afe81612009565b611afe81611fd7565b60408101611d6d8285611b04565b611d7a6020830184611bcd565b9392505050565b60208082528101611d7a8184611b0d565b602081016108fc8284611bbb565b602080825281016108fc81611c0e565b602080825281016108fc81611c47565b602080825281016108fc81611c8c565b602080825281016108fc81611cc5565b606081016108fc8284611d0d565b602081016108fc8284611d44565b60408101611e0a8285611d44565b611d7a6020830184611af5565b60608101611e258286611d44565b611e326020830185611af5565b6119576040830184611d44565b60808101611e4d8287611d44565b8181036020830152611e5f8186611bd6565b9050611e6e6040830185611bc4565b8181036060830152611e808184611b66565b9695505050505050565b6101208101611e99828c611d44565b8181036020830152611eab818b611bd6565b90508181036040830152611ebf818a611bd6565b9050611ece6060830189611bc4565b611edb6080830188611d44565b611ee860a0830187611d56565b611ef560c0830186611d56565b611f0260e0830185611d56565b611f10610100830184611d44565b9a9950505050505050505050565b60408101611f2c8285611d4d565b611d7a6020830184611bc4565b60405181810167ffffffffffffffff81118282101715611f5857600080fd5b604052919050565b600067ffffffffffffffff821115611f7757600080fd5b506020601f91909101601f19160190565b60200190565b60009081526020902090565b5190565b5490565b60010190565b90815260200190565b6001600160a01b031690565b60006108fc82611fb1565b151590565b8061078881612075565b60ff1690565b60006108fc82611ffe565b60006108fc82611fcd565b60006108fc82610bb3565b60006108fc82611fbd565b60006108fc82611fd7565b82818337506000910152565b60005b8381101561203b578181015183820152602001612023565b838111156113615750506000910152565b60006108fc61205a83610bb3565b611fb1565b60006108fc825461204c565b601f01601f191690565b6004811061207f57fe5b50565b61208b81611fbd565b811461207f57600080fd5b61208b81611fc8565b61208b81610bb3565b61208b81611fd756fea365627a7a72315820595eb4c8416e82111bebbbba6fc1716cfd17d840f6c766402058c6642b91d40b6c6578706572696d656e74616cf564736f6c634300050c0040",
  "source": "pragma solidity ^0.5.11;\npragma experimental ABIEncoderV2;\n\n\nimport '../node_modules/@openzeppelin/contracts/payment/escrow/Escrow.sol';\nimport '../node_modules/@openzeppelin/contracts/payment/PaymentSplitter.sol';\nimport './PPCToken.sol';\n\ncontract TaskList {\n\tuint public task_count = 0;\n\tenum State { created, accepted, completed, validated }\n\tuint8[] ratings = [0, 1, 2, 3, 4, 5, 6, 7, 8, 9, 10];\n\tuint8 ppc_threshold = 90;\n\tuint public hourly_rate = 1 ether;\n\t// enum Difficulty { standard, advanced , expert }\n\t// enum Uncertainity { clear, uncertain, unknown }\n\tPPCToken private ppctoken;\n\n\tconstructor (address _ppctoken_address) public {\n\t\tppctoken = PPCToken(_ppctoken_address);\n\t}\n\n\tstruct Validation {\n\t\tbool exists;\n\t\tuint8 ppc;\n\t\tuint8 Qrating;\n\t}\n\n\tstruct Task {\n\t\tuint id;\n\t\tstring title;\n\t\tstring description;\n\t\tState state;\n\t\tuint deadline;\n\t\tuint8 Qrating;\n\t\tuint8 ppc;\n\t\tuint8 ppc_worker;\n\t\tmapping(address => bool) validators_map;\n\t\taddress payable[] validators;\n\t\tmapping(address => Validation) validations;\n\t\tmapping(address => bool) workers_map;\n\t\taddress payable[] workers;\n\t\tmapping(address => uint) worked_hours;\n\t\tuint balance;\n\t\t//uint predecessor_id;\n\t\t//uint successor_id;\n\t}\n\n\tmapping(uint => Task) public tasks;\n\n\tevent TaskCreated(\n\t\tuint id,\n\t\tstring title,\n\t\tState state,\n\t\taddress payable[] validators\n\t);\n\n\tevent Test(bool is_true);\n\n\tmodifier validatorsOnly(uint _task_id) {\n\t\t// checks that the sender is a validator of task\n\t\trequire(tasks[_task_id].validators_map[msg.sender], \"Caller is not a validator of this task\");\n\t\t_;\n\t}\n\n\tmodifier workersOnly(uint _task_id, address _account) {\n\t\trequire(tasks[_task_id].workers_map[_account], \"Worker is not assigned to this task\");\n\t\t_;\n\t}\n\n\tevent TaskState(\n\t\tuint id,\n\t\tState state\n\t);\n\n\tevent validatorAdded(\n\t\tuint task_id,\n\t\taddress validator\n\t);\n\n\tevent workerAdded(\n\t\tuint task_id,\n\t\taddress worker\n\t);\n\n\tevent workedHoursAdded(\n\t\tuint task_id,\n\t\taddress worker,\n\t\tuint _hours\n\t);\n\n\tevent taskFunded(\n\t\tuint task_id,\n\t\taddress sender,\n\t\tuint256 amount\n\t);\n\n\tevent PPCTokenMinted(\n\t\taddress account,\n\t\tuint amount\n\t);\n\n\tfunction createTask(string memory _title, string memory _description) public {\n\t\tuint _id = task_count;\n\t\tTask memory task = Task({\n\t\t\tid: _id,\n\t\t\ttitle: _title,\n\t\t\tdescription: _description,\n\t\t\tstate: State.accepted,\n\t\t\tdeadline: 0,\n\t\t\tQrating: 0,\n\t\t\tppc: 0,\n\t\t\tppc_worker: 0,\n\t\t\tvalidators: new address payable[](0),\n\t\t\tworkers: new address payable[](0),\n\t\t\tbalance: 0\n\t\t});\n\t\t// https://medium.com/loom-network/ethereum-solidity-memory-vs-storage-how-to-initialize-an-array-inside-a-struct-184baf6aa2eb\n\t\ttasks[_id] = task;\n\t\ttask_count++;\n\t\ttasks[_id].validators.push(msg.sender);\n\t\ttasks[_id].validators_map[msg.sender] = true;\n\t\temit TaskCreated(_id, _title, State.created, tasks[_id].validators);\n\t}\n\n\tfunction addValidator(uint _task_id, address payable _validator) public validatorsOnly(_task_id) {\n\t\trequire(!tasks[_task_id].workers_map[_validator], \"Worker cannot be validator\");\n\t\tTask storage _task = tasks[_task_id];\n\t\t_task.validators.push(_validator);\n\t\t_task.validators_map[_validator] = true;\n\t\temit validatorAdded(_task_id, _validator);\n\t}\n\n\tfunction getValidators(uint _task_id) public view returns (address payable[] memory) {\n\t\treturn tasks[_task_id].validators;\n\t}\n\n\tfunction addWorker(uint _task_id, address payable _worker) public validatorsOnly(_task_id) {\n\t\trequire(!tasks[_task_id].validators_map[_worker], \"Validator cannot be worker\");\n\t\tTask storage _task = tasks[_task_id];\n\t\t_task.workers.push(_worker);\n\t\t_task.workers_map[_worker] = true;\n\t\t_task.worked_hours[_worker] = 0;\n\t\temit workerAdded(_task_id, _worker);\n\t}\n\n\tfunction getWorkers(uint _task_id) public view returns (address payable[] memory) {\n\t\treturn tasks[_task_id].workers;\n\t}\n\n\t// todo: implement acceptTask function\n\n\tfunction addWorkedHours(uint _task_id, uint _hours) public workersOnly(_task_id, msg.sender) {\n\t\tTask storage _task = tasks[_task_id];\n\t\tif(_task.state == State.accepted){\n\t\t\t_task.worked_hours[msg.sender] += _hours;\n\t\t\temit workedHoursAdded(_task_id, msg.sender, _hours);\n\t\t}\n\t}\n\n\tfunction getWorkedHours(uint _task_id, address _worker) public view returns (uint) {\n\t\treturn tasks[_task_id].worked_hours[_worker];\n\t}\n\n\tfunction fundTask(uint _task_id) public payable {\n\t\t// stores funds for the given task in this smart contract\n\t\tTask storage _task = tasks[_task_id];\n\t\t_task.balance += msg.value;\n\t\temit taskFunded(_task_id, msg.sender, msg.value);\n\t}\n\n\tfunction completeTask(uint _task_id, uint8 _ppc) public workersOnly(_task_id, msg.sender) {\n\t\tTask storage _task = tasks[_task_id];\n\t\t_task.ppc_worker = _ppc;\n\t\t_task.state = State.completed;\n\t}\n\n\tfunction neededTaskFund(uint _task_id) public view returns (uint) {\n\t\tTask storage _task = tasks[_task_id];\n\t\tuint amount;\n\t\tfor(uint16 i = 0; i < _task.workers.length; i++) {\n\t\t\taddress payable _worker = _task.workers[i];\n\t\t\tamount += _task.worked_hours[_worker];\n\t\t}\n\t\treturn amount * hourly_rate;\n\t}\n\n\tfunction sufficientFunds(uint _task_id) public view returns (bool) {\n\t\tTask memory _task = tasks[_task_id];\n\t\treturn _task.balance >= neededTaskFund(_task_id);\n\t}\n\n\t// called from each individual validator to set his ratings\n\t// return the result from computeValidation or false if the task was not completed before\n\tfunction validateTask(uint _task_id, uint8 _ppc, uint8 _Qrating) public validatorsOnly(_task_id) returns (bool) {\n\t\tTask storage _task = tasks[_task_id];\n\n\t\t// a validator can only set his ratings if the task was completed before\n\t\tif(_task.state == State.completed && 0 < _ppc && _ppc <= 100 && 0 < _Qrating && _Qrating <= 10){\n\t\t\tValidation storage _validation = _task.validations[msg.sender];\n\t\t\t_validation.ppc = _ppc;\n\t\t\t_validation.Qrating = _Qrating;\n\t\t\t_validation.exists = true;\n\n\t\t\treturn computeValidation(_task_id);\n\t\t}\n\n\t\treturn false;\n\t}\n\n\tfunction getValidation(uint _task_id, address _validator) public view returns (Validation memory) {\n\t\treturn tasks[_task_id].validations[_validator];\n\t}\n\n\t// calculates the mean ratings values from all validators\n\t// validates the task and perform payments if conditions are met\n\tfunction computeValidation(uint _task_id) internal returns (bool) {\n\t\tTask storage _task = tasks[_task_id];\n\t\tuint8 n = 0;\n\t\tuint8 n_validators = uint8(_task.validators.length);\n\t\tuint8 _ppc = 0;\n\t\tuint8 _Qrating = 0;\n\n\t\tfor(uint8 i = 0; i < n_validators; i++){\n\t\t\taddress payable _validator = _task.validators[i];\n\t\t\tValidation storage _validation = _task.validations[_validator];\n\n\t\t\tif(_validation.exists){\n\t\t\t\t_ppc += _validation.ppc;\n\t\t\t\t_Qrating += _validation.Qrating;\n\t\t\t\tn++;\n\t\t\t}\n\t\t}\n\n\t\t// for the task to be validated:\n\t\t// - mean ppc from validators has to be greater than the workers' one\n\t\t// - each validators' approval is required\n\t\t// - funds have to be sufficients\n\t\tif(_ppc > 0 && _ppc >= _task.ppc_worker && n == n_validators && sufficientFunds(_task_id)){\n\t\t\t_task.ppc = _ppc / n;\n\n\t\t\tif(_Qrating > 0){\n\t\t\t\t_task.Qrating = _Qrating / n;\n\t\t\t}\n\t\t\t_task.state = State.validated;\n\n\t\t\t// payments\n\t\t\treleasePayment(_task_id);\n\t\t\tmintPPCTOken(_task_id);\n\t\t}\n\n\t\treturn _task.state == State.validated;\n\t}\n\n\tfunction releasePayment(uint _task_id) internal {\n\t\tTask storage _task = tasks[_task_id];\n\t\tfor(uint16 i = 0; i < _task.workers.length; i++) {\n\t\t\taddress payable _worker = _task.workers[i];\n\t\t\tuint amount = _task.worked_hours[_worker] * hourly_rate;\n\t\t\t_task.balance -= amount;\n\t\t\t_worker.transfer(amount);\n\t\t}\n\t\tuint rest = _task.balance;\n\t\t_task.balance -= rest;\n\t\t_task.validators[0].transfer(rest); // return the rest to the validator\n\t\t// todo: keep track of which address funded the task\n\t}\n\n\tfunction mintPPCTOken(uint _task_id) internal {\n\t\tTask memory _task = tasks[_task_id];\n\t\tif(_task.ppc >= ppc_threshold) {\n\t\t\tfor(uint16 i = 0; i < _task.workers.length; i++) {\n\t\t\t\taddress _worker = _task.workers[i];\n\t\t\t\tppctoken.mint(_worker, 1);\n\t\t\t\temit PPCTokenMinted(_worker, 1);\n\t\t\t}\n\t\t}\n\t}\n\n\tfunction toggleStarted(uint8 _id) public {\n\t\tTask storage _task = tasks[_id];\n\t\t_task.state = State.accepted;\n\t\t// tasks[_id] = _task;\n\t\temit TaskState(_id, _task.state);\n\t}\n\n\tfunction getContractBalance() public view returns (uint256) {\n        return address(this).balance;\n    }\n}",
  "sourcePath": "/Users/pabrasey/Dropbox/01_Formation/ETHZ/01_Master/02_projects/Master Thesis/Production/Code/ipd-block/contracts/TaskList.sol",
  "compiler": {
    "name": "solc",
    "version": "0.5.12+commit.7709ece9.Emscripten.clang"
  },
  "schemaVersion": "3.0.19",
  "updatedAt": "2020-01-06T10:37:29.097Z",
  "networkType": "ethereum",
  "devdoc": {
    "methods": {}
  },
  "userdoc": {
    "methods": {}
  }
}