{
  "contractName": "TaskList",
  "abi": [
    {
      "inputs": [
        {
          "internalType": "address",
          "name": "_ppctoken_address",
          "type": "address"
        }
      ],
      "payable": false,
      "stateMutability": "nonpayable",
      "type": "constructor"
    },
    {
      "anonymous": false,
      "inputs": [
        {
          "indexed": false,
          "internalType": "address",
          "name": "account",
          "type": "address"
        },
        {
          "indexed": false,
          "internalType": "uint256",
          "name": "amount",
          "type": "uint256"
        }
      ],
      "name": "PPCTokenMinted",
      "type": "event"
    },
    {
      "anonymous": false,
      "inputs": [
        {
          "indexed": false,
          "internalType": "uint256",
          "name": "id",
          "type": "uint256"
        },
        {
          "indexed": false,
          "internalType": "string",
          "name": "title",
          "type": "string"
        },
        {
          "indexed": false,
          "internalType": "enum TaskList.State",
          "name": "state",
          "type": "uint8"
        },
        {
          "indexed": false,
          "internalType": "address[]",
          "name": "validators",
          "type": "address[]"
        }
      ],
      "name": "TaskCreated",
      "type": "event"
    },
    {
      "anonymous": false,
      "inputs": [
        {
          "indexed": false,
          "internalType": "uint256",
          "name": "id",
          "type": "uint256"
        },
        {
          "indexed": false,
          "internalType": "enum TaskList.State",
          "name": "state",
          "type": "uint8"
        }
      ],
      "name": "TaskState",
      "type": "event"
    },
    {
      "anonymous": false,
      "inputs": [
        {
          "indexed": false,
          "internalType": "bool",
          "name": "is_true",
          "type": "bool"
        }
      ],
      "name": "Test",
      "type": "event"
    },
    {
      "anonymous": false,
      "inputs": [
        {
          "indexed": false,
          "internalType": "uint256",
          "name": "task_id",
          "type": "uint256"
        },
        {
          "indexed": false,
          "internalType": "address",
          "name": "sender",
          "type": "address"
        },
        {
          "indexed": false,
          "internalType": "address",
          "name": "receiver",
          "type": "address"
        },
        {
          "indexed": false,
          "internalType": "uint256",
          "name": "amount",
          "type": "uint256"
        }
      ],
      "name": "taskFunded",
      "type": "event"
    },
    {
      "anonymous": false,
      "inputs": [
        {
          "indexed": false,
          "internalType": "uint256",
          "name": "task_id",
          "type": "uint256"
        },
        {
          "indexed": false,
          "internalType": "address",
          "name": "validator",
          "type": "address"
        }
      ],
      "name": "validatorAdded",
      "type": "event"
    },
    {
      "anonymous": false,
      "inputs": [
        {
          "indexed": false,
          "internalType": "uint256",
          "name": "task_id",
          "type": "uint256"
        },
        {
          "indexed": false,
          "internalType": "address",
          "name": "worker",
          "type": "address"
        },
        {
          "indexed": false,
          "internalType": "uint256",
          "name": "_hours",
          "type": "uint256"
        }
      ],
      "name": "workedHoursAdded",
      "type": "event"
    },
    {
      "anonymous": false,
      "inputs": [
        {
          "indexed": false,
          "internalType": "uint256",
          "name": "task_id",
          "type": "uint256"
        },
        {
          "indexed": false,
          "internalType": "address",
          "name": "worker",
          "type": "address"
        }
      ],
      "name": "workerAdded",
      "type": "event"
    },
    {
      "constant": true,
      "inputs": [],
      "name": "task_count",
      "outputs": [
        {
          "internalType": "uint256",
          "name": "",
          "type": "uint256"
        }
      ],
      "payable": false,
      "stateMutability": "view",
      "type": "function"
    },
    {
      "constant": true,
      "inputs": [
        {
          "internalType": "uint256",
          "name": "",
          "type": "uint256"
        }
      ],
      "name": "tasks",
      "outputs": [
        {
          "internalType": "uint256",
          "name": "id",
          "type": "uint256"
        },
        {
          "internalType": "string",
          "name": "title",
          "type": "string"
        },
        {
          "internalType": "string",
          "name": "description",
          "type": "string"
        },
        {
          "internalType": "enum TaskList.State",
          "name": "state",
          "type": "uint8"
        },
        {
          "internalType": "uint256",
          "name": "deadline",
          "type": "uint256"
        },
        {
          "internalType": "uint8",
          "name": "Qrating",
          "type": "uint8"
        },
        {
          "internalType": "uint8",
          "name": "ppc",
          "type": "uint8"
        },
        {
          "internalType": "uint8",
          "name": "ppc_worker",
          "type": "uint8"
        },
        {
          "internalType": "contract Escrow",
          "name": "escrow",
          "type": "address"
        }
      ],
      "payable": false,
      "stateMutability": "view",
      "type": "function"
    },
    {
      "constant": false,
      "inputs": [
        {
          "internalType": "string",
          "name": "_title",
          "type": "string"
        },
        {
          "internalType": "string",
          "name": "_description",
          "type": "string"
        }
      ],
      "name": "createTask",
      "outputs": [],
      "payable": false,
      "stateMutability": "nonpayable",
      "type": "function"
    },
    {
      "constant": false,
      "inputs": [
        {
          "internalType": "uint256",
          "name": "_task_id",
          "type": "uint256"
        },
        {
          "internalType": "address",
          "name": "_validator",
          "type": "address"
        }
      ],
      "name": "addValidator",
      "outputs": [],
      "payable": false,
      "stateMutability": "nonpayable",
      "type": "function"
    },
    {
      "constant": true,
      "inputs": [
        {
          "internalType": "uint256",
          "name": "_task_id",
          "type": "uint256"
        }
      ],
      "name": "getValidators",
      "outputs": [
        {
          "internalType": "address[]",
          "name": "",
          "type": "address[]"
        }
      ],
      "payable": false,
      "stateMutability": "view",
      "type": "function"
    },
    {
      "constant": false,
      "inputs": [
        {
          "internalType": "uint256",
          "name": "_task_id",
          "type": "uint256"
        },
        {
          "internalType": "address",
          "name": "_worker",
          "type": "address"
        }
      ],
      "name": "addWorker",
      "outputs": [],
      "payable": false,
      "stateMutability": "nonpayable",
      "type": "function"
    },
    {
      "constant": true,
      "inputs": [
        {
          "internalType": "uint256",
          "name": "_task_id",
          "type": "uint256"
        }
      ],
      "name": "getWorkers",
      "outputs": [
        {
          "internalType": "address[]",
          "name": "",
          "type": "address[]"
        }
      ],
      "payable": false,
      "stateMutability": "view",
      "type": "function"
    },
    {
      "constant": false,
      "inputs": [
        {
          "internalType": "uint256",
          "name": "_task_id",
          "type": "uint256"
        },
        {
          "internalType": "uint256",
          "name": "_hours",
          "type": "uint256"
        }
      ],
      "name": "addWorkedHours",
      "outputs": [],
      "payable": false,
      "stateMutability": "nonpayable",
      "type": "function"
    },
    {
      "constant": true,
      "inputs": [
        {
          "internalType": "uint256",
          "name": "_task_id",
          "type": "uint256"
        },
        {
          "internalType": "address",
          "name": "_worker",
          "type": "address"
        }
      ],
      "name": "getWorkedHours",
      "outputs": [
        {
          "internalType": "uint256",
          "name": "",
          "type": "uint256"
        }
      ],
      "payable": false,
      "stateMutability": "view",
      "type": "function"
    },
    {
      "constant": false,
      "inputs": [
        {
          "internalType": "uint256",
          "name": "_task_id",
          "type": "uint256"
        }
      ],
      "name": "fundTaskEscrow",
      "outputs": [],
      "payable": true,
      "stateMutability": "payable",
      "type": "function"
    },
    {
      "constant": true,
      "inputs": [
        {
          "internalType": "uint256",
          "name": "_task_id",
          "type": "uint256"
        }
      ],
      "name": "getTaskDeposit",
      "outputs": [
        {
          "internalType": "uint256",
          "name": "",
          "type": "uint256"
        }
      ],
      "payable": false,
      "stateMutability": "view",
      "type": "function"
    },
    {
      "constant": false,
      "inputs": [
        {
          "internalType": "uint256",
          "name": "_task_id",
          "type": "uint256"
        },
        {
          "internalType": "uint8",
          "name": "_ppc",
          "type": "uint8"
        }
      ],
      "name": "completeTask",
      "outputs": [],
      "payable": false,
      "stateMutability": "nonpayable",
      "type": "function"
    },
    {
      "constant": false,
      "inputs": [
        {
          "internalType": "uint256",
          "name": "_task_id",
          "type": "uint256"
        },
        {
          "internalType": "uint8",
          "name": "_ppc",
          "type": "uint8"
        },
        {
          "internalType": "uint8",
          "name": "_Qrating",
          "type": "uint8"
        }
      ],
      "name": "validateTask",
      "outputs": [],
      "payable": false,
      "stateMutability": "nonpayable",
      "type": "function"
    },
    {
      "constant": false,
      "inputs": [
        {
          "internalType": "uint256",
          "name": "_task_id",
          "type": "uint256"
        }
      ],
      "name": "mintPPCTOken",
      "outputs": [],
      "payable": false,
      "stateMutability": "nonpayable",
      "type": "function"
    },
    {
      "constant": false,
      "inputs": [
        {
          "internalType": "uint8",
          "name": "_id",
          "type": "uint8"
        }
      ],
      "name": "toggleStarted",
      "outputs": [],
      "payable": false,
      "stateMutability": "nonpayable",
      "type": "function"
    }
  ],
  "bytecode": "0x60008080556101e06040526080908152600160a0819052600260c052600360e05260046101005260056101205260066101405260076101605260086101805260096101a052600a6101c0526200005791600b620000c6565b506002805460ff1916605a1790553480156200007257600080fd5b506040516200255638038062002556833981810160405260208110156200009857600080fd5b5051600280546001600160a01b0390921661010002610100600160a81b031990921691909117905562000197565b82805482825590600052602060002090601f01602090048101928215620001615791602002820160005b838211156200013057835183826101000a81548160ff021916908360ff1602179055509260200192600101602081600001049283019260010302620000f0565b80156200015f5782816101000a81549060ff021916905560010160208160000104928301926001030262000130565b505b506200016f92915062000173565b5090565b6200019491905b808211156200016f57805460ff191681556001016200017a565b90565b6123af80620001a76000396000f3fe6080604052600436106100e85760003560e01c80638d9776721161008a578063b343525111610059578063b343525114610591578063ceda812c146105a6578063d882e4bc146105d3578063f02c34ca1461060c576100e8565b80638d9776721461039157806391c07444146104ec578063927ce5c814610537578063a695066e14610567576100e8565b8063471f40fb116100c6578063471f40fb146102975780634b5617531461031157806362d858b81461034a57806378852d0114610374576100e8565b806313aae8a9146100ed578063292a45851461012a57806342f19aac14610264575b600080fd5b3480156100f957600080fd5b506101286004803603606081101561011057600080fd5b5080359060ff60208201358116916040013516610636565b005b34801561013657600080fd5b506101286004803603604081101561014d57600080fd5b81019060208101813564010000000081111561016857600080fd5b82018360208201111561017a57600080fd5b8035906020019184600183028401116401000000008311171561019c57600080fd5b91908080601f01602080910402602001604051908101604052809392919081815260200183838082843760009201919091525092959493602081019350359150506401000000008111156101ef57600080fd5b82018360208201111561020157600080fd5b8035906020019184600183028401116401000000008311171561022357600080fd5b91908080601f016020809104026020016040519081016040528093929190818152602001838380828437600092019190915250929550610718945050505050565b34801561027057600080fd5b506101286004803603604081101561028757600080fd5b508035906020013560ff16610a3e565b3480156102a357600080fd5b506102c1600480360360208110156102ba57600080fd5b5035610ae1565b60408051602080825283518183015283519192839290830191858101910280838360005b838110156102fd5781810151838201526020016102e5565b505050509050019250505060405180910390f35b34801561031d57600080fd5b506101286004803603604081101561033457600080fd5b50803590602001356001600160a01b0316610b50565b34801561035657600080fd5b506101286004803603602081101561036d57600080fd5b5035610cbf565b6101286004803603602081101561038a57600080fd5b5035611081565b34801561039d57600080fd5b506103bb600480360360208110156103b457600080fd5b5035611192565b604051808a815260200180602001806020018960038111156103d957fe5b60ff908116825260208083018b90528982166040840152888216606084015290871660808301526001600160a01b03861660a083015260c0858303810185528d51908301528c5160e090920191908d019080838360005b83811015610448578181015183820152602001610430565b50505050905090810190601f1680156104755780820380516001836020036101000a031916815260200191505b5083810382528a5181528a516020918201918c019080838360005b838110156104a8578181015183820152602001610490565b50505050905090810190601f1680156104d55780820380516001836020036101000a031916815260200191505b509b50505050505050505050505060405180910390f35b3480156104f857600080fd5b506105256004803603604081101561050f57600080fd5b50803590602001356001600160a01b0316611306565b60408051918252519081900360200190f35b34801561054357600080fd5b506101286004803603604081101561055a57600080fd5b5080359060200135611332565b34801561057357600080fd5b506102c16004803603602081101561058a57600080fd5b50356113fd565b34801561059d57600080fd5b5061052561146a565b3480156105b257600080fd5b50610128600480360360208110156105c957600080fd5b503560ff16611470565b3480156105df57600080fd5b50610128600480360360408110156105f657600080fd5b50803590602001356001600160a01b03166114ed565b34801561061857600080fd5b506105256004803603602081101561062f57600080fd5b5035611669565b6000838152600360209081526040808320338452600601909152902054839060ff166106935760405162461bcd60e51b81526004018080602001828103825260268152602001806123556026913960400191505060405180910390fd5b6000848152600360205260409020600581015460ff620100009091048116908516106106fa576005810180546003808401805460ff19908116909217905560ff8681169088166101000261ff001990931692909217161790556106f585610cbf565b610711565b60058101805461ff00191661010060ff8716021790555b5050505050565b6000546107236119cb565b604080516101608101825283815260208082018790528183018690526000606083018190526080830181905260a0830181905260c0830181905260e083018190528351818152808301855261010084015283519081529081018352610120820152905161014082019061079590611a2f565b604051809103906000f0801580156107b1573d6000803e3d6000fd5b506001600160a01b03169052600083815260036020908152604090912082518155818301518051939450849391926107f192600185019290910190611a3c565b506040820151805161080d916002840191602090910190611a3c565b5060608201518160030160006101000a81548160ff0219169083600381111561083257fe5b02179055506080820151600482015560a082015160058201805460c085015160e086015160ff1990921660ff9485161761ff00191661010091851682021762ff00001916620100009490921693909302179055820151805161089e916007840191602090910190611aba565b5061012082015180516108bb916009840191602090910190611aba565b506101409190910151600b90910180546001600160a01b039092166001600160a01b031992831617905560008054600190810182558482526003602081815260408085206007810180548087018255818852848820018054909816339081179098559686526006018252808520805460ff191690941790935586845290815281518681527fed590dc695d4f7e656b37899068d46e3eafc741b38eb6a6761d919deba842bc69487948a94909391929182019082018460ff16815260200180602001838103835286818151815260200191508051906020019080838360005b838110156109b1578181015183820152602001610999565b50505050905090810190601f1680156109de5780820380516001836020036101000a031916815260200191505b508381038252848181548152602001915080548015610a2657602002820191906000526020600020905b81546001600160a01b03168152600190910190602001808311610a08575b5050965050505050505060405180910390a150505050565b60008281526003602090815260408083203380855260089091019092529091205483919060ff16610aa05760405162461bcd60e51b81526004018080602001828103825260238152602001806123326023913960400191505060405180910390fd5b5050600091825260036020819052604090922060058101805460ff93909316620100000262ff0000199093169290921790915501805460ff19166002179055565b600081815260036020908152604091829020600701805483518184028101840190945280845260609392830182828015610b4457602002820191906000526020600020905b81546001600160a01b03168152600190910190602001808311610b26575b50505050509050919050565b6000828152600360209081526040808320338452600601909152902054829060ff16610bad5760405162461bcd60e51b81526004018080602001828103825260268152602001806123556026913960400191505060405180910390fd5b60008381526003602090815260408083206001600160a01b038616845260080190915290205460ff1615610c28576040805162461bcd60e51b815260206004820152601a60248201527f576f726b65722063616e6e6f742062652076616c696461746f72000000000000604482015290519081900360640190fd5b6000838152600360209081526040808320600781018054600180820183559186528486200180546001600160a01b0319166001600160a01b03891690811790915580865260068301855294839020805460ff1916909117905581518781529283019390935280517f416071ae19b4e679348d5e18dcb9b077f472eec9ba091ded090ebf6c91214dd39281900390910190a150505050565b610cc76119cb565b600360008381526020019081526020016000206040518061016001604052908160008201548152602001600182018054600181600116156101000203166002900480601f016020809104026020016040519081016040528092919081815260200182805460018160011615610100020316600290048015610d895780601f10610d5e57610100808354040283529160200191610d89565b820191906000526020600020905b815481529060010190602001808311610d6c57829003601f168201915b5050509183525050600282810180546040805160206001841615610100026000190190931694909404601f81018390048302850183019091528084529381019390830182828015610e1b5780601f10610df057610100808354040283529160200191610e1b565b820191906000526020600020905b815481529060010190602001808311610dfe57829003601f168201915b505050918352505060038281015460209092019160ff1690811115610e3c57fe5b6003811115610e4757fe5b81526004820154602080830191909152600583015460ff8082166040808601919091526101008304821660608601526201000090920416608084015260078401805482518185028101850190935280835260a0909401939192909190830182828015610edc57602002820191906000526020600020905b81546001600160a01b03168152600190910190602001808311610ebe575b5050505050815260200160098201805480602002602001604051908101604052809291908181526020018280548015610f3e57602002820191906000526020600020905b81546001600160a01b03168152600190910190602001808311610f20575b5050509183525050600b91909101546001600160a01b031660209091015260025460c082015191925060ff90811691161061107d5760005b816101200151518161ffff16101561107b5760008261012001518261ffff1681518110610f9f57fe5b602090810291909101810151600254604080516340c10f1960e01b81526001600160a01b03808516600483015260016024830152915193955061010090920416926340c10f19926044808401938290030181600087803b15801561100257600080fd5b505af1158015611016573d6000803e3d6000fd5b505050506040513d602081101561102c57600080fd5b5050604080516001600160a01b03831681526001602082015281517ff2c886314f2e9918f317cf9149b925ee2c3f4c18d4aed9ac80aa5b6a8ef25e33929181900390910190a150600101610f76565b505b5050565b6000818152600360205260408120600b81015460098201805492936001600160a01b039092169263f340fa01923492916110b757fe5b6000918252602082200154604080516001600160e01b031960e087901b1681526001600160a01b039092166004830152516024808301939282900301818588803b15801561110457600080fd5b505af1158015611118573d6000803e3d6000fd5b50505050507ff2eaae528629a22608d9230f3b516b66ed9c09e24f01cbfffe1e01249eea637082338360090160008154811061115057fe5b60009182526020918290200154604080519485526001600160a01b03938416928501929092529190911682820152346060830152519081900360800190a15050565b6003602090815260009182526040918290208054600180830180548651600293821615610100026000190190911692909204601f81018690048602830186019096528582529194929390929083018282801561122f5780601f106112045761010080835404028352916020019161122f565b820191906000526020600020905b81548152906001019060200180831161121257829003601f168201915b50505060028085018054604080516020601f60001961010060018716150201909416959095049283018590048502810185019091528181529596959450909250908301828280156112c15780601f10611296576101008083540402835291602001916112c1565b820191906000526020600020905b8154815290600101906020018083116112a457829003601f168201915b505050600384015460048501546005860154600b90960154949560ff92831695919450808316935061010081048316926201000090910416906001600160a01b031689565b60008281526003602090815260408083206001600160a01b0385168452600a0190915290205492915050565b60008281526003602090815260408083203380855260089091019092529091205483919060ff166113945760405162461bcd60e51b81526004018080602001828103825260238152602001806123326023913960400191505060405180910390fd5b600084815260036020908152604080832033808552600a8201845293829020805488019055815188815292830193909352818101869052517f985da90d0c844be16a09ea33f60b076c56a9f6a963578d8db9b5671ba92c7c739181900360600190a15050505050565b600081815260036020908152604091829020600901805483518184028101840190945280845260609392830182828015610b44576020028201919060005260206000209081546001600160a01b03168152600190910190602001808311610b265750505050509050919050565b60005481565b60ff818116600081815260036020818152604092839020808301805460ff1916600117908190559351948552947f469b7cfbb60619eda76c28364bf95ae0afbf0902d135a84497564f799fac00c394879490911692909182019083908111156114d557fe5b60ff1681526020019250505060405180910390a15050565b6000828152600360209081526040808320338452600601909152902054829060ff1661154a5760405162461bcd60e51b81526004018080602001828103825260268152602001806123556026913960400191505060405180910390fd5b60008381526003602090815260408083206001600160a01b038616845260060190915290205460ff16156115c5576040805162461bcd60e51b815260206004820152601a60248201527f56616c696461746f722063616e6e6f7420626520776f726b6572000000000000604482015290519081900360640190fd5b6000838152600360209081526040808320600981018054600180820183559186528486200180546001600160a01b0319166001600160a01b038916908117909155808652600883018552838620805460ff1916909217909155600a820184528285209490945581518781529283019390935280517f3cce0ec637799829662d3d2ce35a4c5bb78ca2a3822a2f415d16f5f924ce45969281900390910190a150505050565b60006116736119cb565b600360008481526020019081526020016000206040518061016001604052908160008201548152602001600182018054600181600116156101000203166002900480601f0160208091040260200160405190810160405280929190818152602001828054600181600116156101000203166002900480156117355780601f1061170a57610100808354040283529160200191611735565b820191906000526020600020905b81548152906001019060200180831161171857829003601f168201915b5050509183525050600282810180546040805160206001841615610100026000190190931694909404601f810183900483028501830190915280845293810193908301828280156117c75780601f1061179c576101008083540402835291602001916117c7565b820191906000526020600020905b8154815290600101906020018083116117aa57829003601f168201915b505050918352505060038281015460209092019160ff16908111156117e857fe5b60038111156117f357fe5b81526004820154602080830191909152600583015460ff8082166040808601919091526101008304821660608601526201000090920416608084015260078401805482518185028101850190935280835260a090940193919290919083018282801561188857602002820191906000526020600020905b81546001600160a01b0316815260019091019060200180831161186a575b50505050508152602001600982018054806020026020016040519081016040528092919081815260200182805480156118ea57602002820191906000526020600020905b81546001600160a01b031681526001909101906020018083116118cc575b50505050508152602001600b820160009054906101000a90046001600160a01b03166001600160a01b03166001600160a01b03168152505090508061014001516001600160a01b031663e3a9db1a82610120015160008151811061194a57fe5b60200260200101516040518263ffffffff1660e01b815260040180826001600160a01b03166001600160a01b0316815260200191505060206040518083038186803b15801561199857600080fd5b505afa1580156119ac573d6000803e3d6000fd5b505050506040513d60208110156119c257600080fd5b50519392505050565b604051806101600160405280600081526020016060815260200160608152602001600060038111156119f957fe5b81526000602082018190526040820181905260608083018290526080830182905260a0830181905260c083015260e09091015290565b6107d580611b5d83390190565b828054600181600116156101000203166002900490600052602060002090601f016020900481019282601f10611a7d57805160ff1916838001178555611aaa565b82800160010185558215611aaa579182015b82811115611aaa578251825591602001919060010190611a8f565b50611ab6929150611b1b565b5090565b828054828255906000526020600020908101928215611b0f579160200282015b82811115611b0f57825182546001600160a01b0319166001600160a01b03909116178255602090920191600190910190611ada565b50611ab6929150611b38565b611b3591905b80821115611ab65760008155600101611b21565b90565b611b3591905b80821115611ab65780546001600160a01b0319168155600101611b3e56fe60806040526100156001600160e01b0361006f16565b600080546001600160a01b0319166001600160a01b0392831617908190556040805191909216815290517f4101e71e974f68df5e9730cc223280b41654676bbb052cdcc735c3337e64d2d9916020908290030190a1610073565b3390565b610753806100826000396000f3fe6080604052600436106100555760003560e01c80632348238c1461005a57806351cff8d91461008f5780636809691a146100c2578063c6dbdf61146100f5578063e3a9db1a14610126578063f340fa011461016b575b600080fd5b34801561006657600080fd5b5061008d6004803603602081101561007d57600080fd5b50356001600160a01b0316610191565b005b34801561009b57600080fd5b5061008d600480360360208110156100b257600080fd5b50356001600160a01b0316610289565b3480156100ce57600080fd5b5061008d600480360360208110156100e557600080fd5b50356001600160a01b0316610370565b34801561010157600080fd5b5061010a61043a565b604080516001600160a01b039092168252519081900360200190f35b34801561013257600080fd5b506101596004803603602081101561014957600080fd5b50356001600160a01b0316610449565b60408051918252519081900360200190f35b61008d6004803603602081101561018157600080fd5b50356001600160a01b0316610464565b6000546001600160a01b03166101a561053e565b6001600160a01b0316146101ea5760405162461bcd60e51b815260040180806020018281038252602c8152602001806106f3602c913960400191505060405180910390fd5b6001600160a01b03811661022f5760405162461bcd60e51b815260040180806020018281038252602a8152602001806106c9602a913960400191505060405180910390fd5b600080546001600160a01b0319166001600160a01b03838116919091179182905560408051929091168252517f4101e71e974f68df5e9730cc223280b41654676bbb052cdcc735c3337e64d2d9916020908290030190a150565b6000546001600160a01b031661029d61053e565b6001600160a01b0316146102e25760405162461bcd60e51b815260040180806020018281038252602c8152602001806106f3602c913960400191505060405180910390fd5b6001600160a01b038116600081815260016020526040808220805490839055905190929183156108fc02918491818181858888f1935050505015801561032c573d6000803e3d6000fd5b506040805182815290516001600160a01b038416917f7084f5476618d8e60b11ef0d7d3f06914655adb8793e28ff7f018d4c76d505d5919081900360200190a25050565b6000546001600160a01b031661038461053e565b6001600160a01b0316146103c95760405162461bcd60e51b815260040180806020018281038252602c8152602001806106f3602c913960400191505060405180910390fd5b6001600160a01b03811660008181526001602052604081208054919055906103f7908263ffffffff61054216565b6040805182815290516001600160a01b038416917f7084f5476618d8e60b11ef0d7d3f06914655adb8793e28ff7f018d4c76d505d5919081900360200190a25050565b6000546001600160a01b031690565b6001600160a01b031660009081526001602052604090205490565b6000546001600160a01b031661047861053e565b6001600160a01b0316146104bd5760405162461bcd60e51b815260040180806020018281038252602c8152602001806106f3602c913960400191505060405180910390fd5b6001600160a01b03811660009081526001602052604090205434906104e8908263ffffffff61062d16565b6001600160a01b038316600081815260016020908152604091829020939093558051848152905191927f2da466a7b24304f47e87fa2e1e5a81b9831ce54fec19055ce277ca2f39ba42c492918290030190a25050565b3390565b3031811115610598576040805162461bcd60e51b815260206004820152601d60248201527f416464726573733a20696e73756666696369656e742062616c616e6365000000604482015290519081900360640190fd5b6040516000906001600160a01b0384169083908381818185875af1925050503d80600081146105e3576040519150601f19603f3d011682016040523d82523d6000602084013e6105e8565b606091505b50509050806106285760405162461bcd60e51b815260040180806020018281038252603a81526020018061068f603a913960400191505060405180910390fd5b505050565b600082820183811015610687576040805162461bcd60e51b815260206004820152601b60248201527f536166654d6174683a206164646974696f6e206f766572666c6f770000000000604482015290519081900360640190fd5b939250505056fe416464726573733a20756e61626c6520746f2073656e642076616c75652c20726563697069656e74206d617920686176652072657665727465645365636f6e646172793a206e6577207072696d61727920697320746865207a65726f20616464726573735365636f6e646172793a2063616c6c6572206973206e6f7420746865207072696d617279206163636f756e74a265627a7a72315820ecc14103dc176c95375fd3b818f40fba3a5507e0b46fe5c04463d38100da101c64736f6c634300050c0032576f726b6572206973206e6f742061737369676e656420746f2074686973207461736b43616c6c6572206973206e6f7420612076616c696461746f72206f662074686973207461736ba265627a7a7231582082b6becd548c4bf999368483f21cd5557ce63787cdd164c09f93ffbd4d2d4d9764736f6c634300050c0032",
  "source": "pragma solidity ^0.5.11;\n\nimport '../node_modules/@openzeppelin/contracts/payment/escrow/Escrow.sol';\nimport './PPCToken.sol';\n\ncontract TaskList {\n\tuint public task_count = 0;\n\tenum State { created, accepted, completed, validated }\n\tuint8[] ratings = [0, 1, 2, 3, 4, 5, 6, 7, 8, 9, 10];\n\tuint8 ppc_threshold = 90;\n\t// enum Difficulty { standard, advanced , expert }\n\t// enum Uncertainity { clear, uncertain, unknown }\n\tPPCToken private ppctoken;\n\n\tconstructor (address _ppctoken_address) public {\n\t\tppctoken = PPCToken(_ppctoken_address);\n\t}\n\n\tstruct Task {\n\t\tuint id;\n\t\tstring title;\n\t\tstring description;\n\t\tState state;\n\t\tuint deadline;\n\t\tuint8 Qrating;\n\t\tuint8 ppc;\n\t\tuint8 ppc_worker;\n\t\tmapping(address => bool) validators_map;\n\t\taddress[] validators;\n\t\tmapping(address => bool) workers_map;\n\t\taddress[] workers;\n\t\tmapping(address => uint) worked_hours;\n\t\tEscrow escrow;\n\t\t//uint predecessor_id;\n\t\t//uint successor_id;\n\t}\n\n\tmapping(uint => Task) public tasks;\n\n\tevent TaskCreated(\n\t\tuint id,\n\t\tstring title,\n\t\tState state,\n\t\taddress[] validators\n\t);\n\n\tevent Test(bool is_true);\n\n\tmodifier validatorsOnly(uint _task_id) {\n\t\t// checks that the sender is a validator of task\n\t\trequire(tasks[_task_id].validators_map[msg.sender], \"Caller is not a validator of this task\");\n\t\t_;\n\t}\n\n\tmodifier workersOnly(uint _task_id, address _account) {\n\t\trequire(tasks[_task_id].workers_map[_account], \"Worker is not assigned to this task\");\n\t\t_;\n\t}\n\n\tevent TaskState(\n\t\tuint id,\n\t\tState state\n\t);\n\n\tevent validatorAdded(\n\t\tuint task_id,\n\t\taddress validator\n\t);\n\n\tevent workerAdded(\n\t\tuint task_id,\n\t\taddress worker\n\t);\n\n\tevent workedHoursAdded(\n\t\tuint task_id,\n\t\taddress worker,\n\t\tuint _hours\n\t);\n\n\tevent taskFunded(\n\t\tuint task_id,\n\t\taddress sender,\n\t\taddress receiver,\n\t\tuint256 amount\n\t);\n\n\tevent PPCTokenMinted(\n\t\taddress account,\n\t\tuint amount\n\t);\n\n\tfunction createTask(string memory _title, string memory _description) public {\n\t\tuint _id = task_count;\n\t\tTask memory task = Task({\n\t\t\tid: _id,\n\t\t\ttitle: _title,\n\t\t\tdescription: _description,\n\t\t\tstate: State.created,\n\t\t\tdeadline: 0,\n\t\t\tQrating: 0,\n\t\t\tppc: 0,\n\t\t\tppc_worker: 0,\n\t\t\tvalidators: new address[](0),\n\t\t\tworkers: new address[](0),\n\t\t\tescrow: new Escrow()\n\t\t});\n\t\t// https://medium.com/loom-network/ethereum-solidity-memory-vs-storage-how-to-initialize-an-array-inside-a-struct-184baf6aa2eb\n\t\ttasks[_id] = task;\n\t\ttask_count++;\n\t\ttasks[_id].validators.push(msg.sender);\n\t\ttasks[_id].validators_map[msg.sender] = true;\n\t\temit TaskCreated(_id, _title, State.created, tasks[_id].validators);\n\t}\n\n\tfunction addValidator(uint _task_id, address _validator) public validatorsOnly(_task_id) {\n\t\trequire(!tasks[_task_id].workers_map[_validator], \"Worker cannot be validator\");\n\t\tTask storage _task = tasks[_task_id];\n\t\t_task.validators.push(_validator);\n\t\t_task.validators_map[_validator] = true;\n\t\temit validatorAdded(_task_id, _validator);\n\t}\n\n\tfunction getValidators(uint _task_id) public view returns (address[] memory) {\n\t\treturn tasks[_task_id].validators;\n\t}\n\n\tfunction addWorker(uint _task_id, address _worker) public validatorsOnly(_task_id) {\n\t\trequire(!tasks[_task_id].validators_map[_worker], \"Validator cannot be worker\");\n\t\tTask storage _task = tasks[_task_id];\n\t\t_task.workers.push(_worker);\n\t\t_task.workers_map[_worker] = true;\n\t\t_task.worked_hours[_worker] = 0;\n\t\temit workerAdded(_task_id, _worker);\n\t}\n\n\tfunction getWorkers(uint _task_id) public view returns (address[] memory) {\n\t\treturn tasks[_task_id].workers;\n\t}\n\n\tfunction addWorkedHours(uint _task_id, uint _hours) public workersOnly(_task_id, msg.sender) {\n\t\tTask storage _task = tasks[_task_id];\n\t\t_task.worked_hours[msg.sender] += _hours;\n\t\temit workedHoursAdded(_task_id, msg.sender, _hours);\n\t}\n\n\tfunction getWorkedHours(uint _task_id, address _worker) public view returns (uint) {\n\t\treturn tasks[_task_id].worked_hours[_worker];\n\t}\n\n\tfunction fundTaskEscrow(uint _task_id) public payable {\n\t\t// stores funds for the given task its corresponding escrow\n\t\tTask storage _task = tasks[_task_id];\n\n\t\t_task.escrow.deposit.value(msg.value)(_task.workers[0]);\n\t\t// the 1st worker will get the payment -> add split payment later\n\t\temit taskFunded(_task_id, msg.sender, _task.workers[0], msg.value);\n\t}\n\n\tfunction getTaskDeposit(uint _task_id) public view returns (uint256) {\n\t\tTask memory _task = tasks[_task_id];\n\t\treturn _task.escrow.depositsOf(_task.workers[0]);\n\t}\n\n\tfunction completeTask(uint _task_id, uint8 _ppc) public workersOnly(_task_id, msg.sender) {\n\t\tTask storage _task = tasks[_task_id];\n\t\t_task.ppc_worker = _ppc;\n\t\t_task.state = State.completed;\n\t}\n\n\tfunction validateTask(uint _task_id, uint8 _ppc, uint8 _Qrating) public validatorsOnly(_task_id) {\n\t\t// todo: add state check\n\t\tTask storage _task = tasks[_task_id];\n\t\tif(_ppc >= _task.ppc_worker) {\n\t\t\t_task.ppc = _ppc;\n\t\t\t_task.state = State.validated;\n\t\t\t_task.Qrating = _Qrating;\n\t\t\tmintPPCTOken(_task_id);\n\t\t} else {\n\t\t\t_task.ppc = _ppc;\n\t\t}\n\t}\n\n\tfunction mintPPCTOken(uint _task_id) public {\n\t\tTask memory _task = tasks[_task_id];\n\t\tif(_task.ppc >= ppc_threshold) {\n\t\t\tfor(uint16 i = 0; i < _task.workers.length; i++) {\n\t\t\t\taddress _worker = _task.workers[i];\n\t\t\t\tppctoken.mint(_worker, 1);\n\t\t\t\temit PPCTokenMinted(_worker, 1);\n\t\t\t}\n\t\t}\n\t}\n\n\tfunction toggleStarted(uint8 _id) public {\n\t\tTask storage _task = tasks[_id];\n\t\t_task.state = State.accepted;\n\t\t// tasks[_id] = _task;\n\t\temit TaskState(_id, _task.state);\n\t}\n\n}",
  "sourcePath": "/Users/pabrasey/Dropbox/01_Formation/ETHZ/01_Master/02_Projects/Master Thesis/Production/Code/ipd-block/contracts/TaskList.sol",
  "compiler": {
    "name": "solc",
    "version": "0.5.12+commit.7709ece9.Emscripten.clang"
  },
  "schemaVersion": "3.0.19",
  "updatedAt": "2019-12-27T16:48:18.051Z",
  "networkType": "ethereum",
  "devdoc": {
    "methods": {}
  },
  "userdoc": {
    "methods": {}
  }
}