{
  "contractName": "TaskList",
  "abi": [
    {
      "inputs": [
        {
          "internalType": "address",
          "name": "_ppctoken_address",
          "type": "address"
        }
      ],
      "payable": false,
      "stateMutability": "nonpayable",
      "type": "constructor"
    },
    {
      "anonymous": false,
      "inputs": [
        {
          "indexed": false,
          "internalType": "address",
          "name": "account",
          "type": "address"
        },
        {
          "indexed": false,
          "internalType": "uint256",
          "name": "amount",
          "type": "uint256"
        }
      ],
      "name": "PPCTokenMinted",
      "type": "event"
    },
    {
      "anonymous": false,
      "inputs": [
        {
          "indexed": false,
          "internalType": "uint256",
          "name": "id",
          "type": "uint256"
        },
        {
          "indexed": false,
          "internalType": "string",
          "name": "title",
          "type": "string"
        },
        {
          "indexed": false,
          "internalType": "enum TaskList.State",
          "name": "state",
          "type": "uint8"
        },
        {
          "indexed": false,
          "internalType": "address[]",
          "name": "validators",
          "type": "address[]"
        }
      ],
      "name": "TaskCreated",
      "type": "event"
    },
    {
      "anonymous": false,
      "inputs": [
        {
          "indexed": false,
          "internalType": "uint256",
          "name": "id",
          "type": "uint256"
        },
        {
          "indexed": false,
          "internalType": "enum TaskList.State",
          "name": "state",
          "type": "uint8"
        }
      ],
      "name": "TaskState",
      "type": "event"
    },
    {
      "anonymous": false,
      "inputs": [
        {
          "indexed": false,
          "internalType": "bool",
          "name": "is_true",
          "type": "bool"
        }
      ],
      "name": "Test",
      "type": "event"
    },
    {
      "anonymous": false,
      "inputs": [
        {
          "indexed": false,
          "internalType": "uint256",
          "name": "task_id",
          "type": "uint256"
        },
        {
          "indexed": false,
          "internalType": "address",
          "name": "sender",
          "type": "address"
        },
        {
          "indexed": false,
          "internalType": "uint256",
          "name": "amount",
          "type": "uint256"
        }
      ],
      "name": "taskFunded",
      "type": "event"
    },
    {
      "anonymous": false,
      "inputs": [
        {
          "indexed": false,
          "internalType": "uint256",
          "name": "task_id",
          "type": "uint256"
        },
        {
          "indexed": false,
          "internalType": "address",
          "name": "validator",
          "type": "address"
        }
      ],
      "name": "validatorAdded",
      "type": "event"
    },
    {
      "anonymous": false,
      "inputs": [
        {
          "indexed": false,
          "internalType": "uint256",
          "name": "task_id",
          "type": "uint256"
        },
        {
          "indexed": false,
          "internalType": "address",
          "name": "worker",
          "type": "address"
        },
        {
          "indexed": false,
          "internalType": "uint256",
          "name": "_hours",
          "type": "uint256"
        }
      ],
      "name": "workedHoursAdded",
      "type": "event"
    },
    {
      "anonymous": false,
      "inputs": [
        {
          "indexed": false,
          "internalType": "uint256",
          "name": "task_id",
          "type": "uint256"
        },
        {
          "indexed": false,
          "internalType": "address",
          "name": "worker",
          "type": "address"
        }
      ],
      "name": "workerAdded",
      "type": "event"
    },
    {
      "constant": true,
      "inputs": [],
      "name": "salary",
      "outputs": [
        {
          "internalType": "uint256",
          "name": "",
          "type": "uint256"
        }
      ],
      "payable": false,
      "stateMutability": "view",
      "type": "function"
    },
    {
      "constant": true,
      "inputs": [],
      "name": "task_count",
      "outputs": [
        {
          "internalType": "uint256",
          "name": "",
          "type": "uint256"
        }
      ],
      "payable": false,
      "stateMutability": "view",
      "type": "function"
    },
    {
      "constant": true,
      "inputs": [
        {
          "internalType": "uint256",
          "name": "",
          "type": "uint256"
        }
      ],
      "name": "tasks",
      "outputs": [
        {
          "internalType": "uint256",
          "name": "id",
          "type": "uint256"
        },
        {
          "internalType": "string",
          "name": "title",
          "type": "string"
        },
        {
          "internalType": "string",
          "name": "description",
          "type": "string"
        },
        {
          "internalType": "enum TaskList.State",
          "name": "state",
          "type": "uint8"
        },
        {
          "internalType": "uint256",
          "name": "deadline",
          "type": "uint256"
        },
        {
          "internalType": "uint8",
          "name": "Qrating",
          "type": "uint8"
        },
        {
          "internalType": "uint8",
          "name": "ppc",
          "type": "uint8"
        },
        {
          "internalType": "uint8",
          "name": "ppc_worker",
          "type": "uint8"
        },
        {
          "internalType": "uint256",
          "name": "balance",
          "type": "uint256"
        }
      ],
      "payable": false,
      "stateMutability": "view",
      "type": "function"
    },
    {
      "constant": false,
      "inputs": [
        {
          "internalType": "string",
          "name": "_title",
          "type": "string"
        },
        {
          "internalType": "string",
          "name": "_description",
          "type": "string"
        }
      ],
      "name": "createTask",
      "outputs": [],
      "payable": false,
      "stateMutability": "nonpayable",
      "type": "function"
    },
    {
      "constant": false,
      "inputs": [
        {
          "internalType": "uint256",
          "name": "_task_id",
          "type": "uint256"
        },
        {
          "internalType": "address",
          "name": "_validator",
          "type": "address"
        }
      ],
      "name": "addValidator",
      "outputs": [],
      "payable": false,
      "stateMutability": "nonpayable",
      "type": "function"
    },
    {
      "constant": true,
      "inputs": [
        {
          "internalType": "uint256",
          "name": "_task_id",
          "type": "uint256"
        }
      ],
      "name": "getValidators",
      "outputs": [
        {
          "internalType": "address[]",
          "name": "",
          "type": "address[]"
        }
      ],
      "payable": false,
      "stateMutability": "view",
      "type": "function"
    },
    {
      "constant": false,
      "inputs": [
        {
          "internalType": "uint256",
          "name": "_task_id",
          "type": "uint256"
        },
        {
          "internalType": "address payable",
          "name": "_worker",
          "type": "address"
        }
      ],
      "name": "addWorker",
      "outputs": [],
      "payable": false,
      "stateMutability": "nonpayable",
      "type": "function"
    },
    {
      "constant": true,
      "inputs": [
        {
          "internalType": "uint256",
          "name": "_task_id",
          "type": "uint256"
        }
      ],
      "name": "getWorkers",
      "outputs": [
        {
          "internalType": "address payable[]",
          "name": "",
          "type": "address[]"
        }
      ],
      "payable": false,
      "stateMutability": "view",
      "type": "function"
    },
    {
      "constant": false,
      "inputs": [
        {
          "internalType": "uint256",
          "name": "_task_id",
          "type": "uint256"
        },
        {
          "internalType": "uint256",
          "name": "_hours",
          "type": "uint256"
        }
      ],
      "name": "addWorkedHours",
      "outputs": [],
      "payable": false,
      "stateMutability": "nonpayable",
      "type": "function"
    },
    {
      "constant": true,
      "inputs": [
        {
          "internalType": "uint256",
          "name": "_task_id",
          "type": "uint256"
        },
        {
          "internalType": "address",
          "name": "_worker",
          "type": "address"
        }
      ],
      "name": "getWorkedHours",
      "outputs": [
        {
          "internalType": "uint256",
          "name": "",
          "type": "uint256"
        }
      ],
      "payable": false,
      "stateMutability": "view",
      "type": "function"
    },
    {
      "constant": false,
      "inputs": [
        {
          "internalType": "uint256",
          "name": "_task_id",
          "type": "uint256"
        }
      ],
      "name": "fundTask",
      "outputs": [],
      "payable": true,
      "stateMutability": "payable",
      "type": "function"
    },
    {
      "constant": false,
      "inputs": [
        {
          "internalType": "uint256",
          "name": "_task_id",
          "type": "uint256"
        },
        {
          "internalType": "uint8",
          "name": "_ppc",
          "type": "uint8"
        }
      ],
      "name": "completeTask",
      "outputs": [],
      "payable": false,
      "stateMutability": "nonpayable",
      "type": "function"
    },
    {
      "constant": true,
      "inputs": [
        {
          "internalType": "uint256",
          "name": "_task_id",
          "type": "uint256"
        }
      ],
      "name": "neededTaskFund",
      "outputs": [
        {
          "internalType": "uint256",
          "name": "",
          "type": "uint256"
        }
      ],
      "payable": false,
      "stateMutability": "view",
      "type": "function"
    },
    {
      "constant": true,
      "inputs": [
        {
          "internalType": "uint256",
          "name": "_task_id",
          "type": "uint256"
        }
      ],
      "name": "sufficientFunds",
      "outputs": [
        {
          "internalType": "bool",
          "name": "",
          "type": "bool"
        }
      ],
      "payable": false,
      "stateMutability": "view",
      "type": "function"
    },
    {
      "constant": false,
      "inputs": [
        {
          "internalType": "uint256",
          "name": "_task_id",
          "type": "uint256"
        },
        {
          "internalType": "uint8",
          "name": "_ppc",
          "type": "uint8"
        },
        {
          "internalType": "uint8",
          "name": "_Qrating",
          "type": "uint8"
        }
      ],
      "name": "validateTask",
      "outputs": [],
      "payable": false,
      "stateMutability": "nonpayable",
      "type": "function"
    },
    {
      "constant": false,
      "inputs": [
        {
          "internalType": "uint8",
          "name": "_id",
          "type": "uint8"
        }
      ],
      "name": "toggleStarted",
      "outputs": [],
      "payable": false,
      "stateMutability": "nonpayable",
      "type": "function"
    },
    {
      "constant": true,
      "inputs": [],
      "name": "getContractBalance",
      "outputs": [
        {
          "internalType": "uint256",
          "name": "",
          "type": "uint256"
        }
      ],
      "payable": false,
      "stateMutability": "view",
      "type": "function"
    }
  ],
  "bytecode": "0x60008080556101e06040526080908152600160a0819052600260c052600360e05260046101005260056101205260066101405260076101605260086101805260096101a052600a6101c0526200005791600b620000cb565b506002805460ff1916605a179055670de0b6b3a76400006003553480156200007e57600080fd5b5060405162001d5238038062001d5283398181016040526020811015620000a457600080fd5b5051600480546001600160a01b0319166001600160a01b039092169190911790556200019c565b82805482825590600052602060002090601f01602090048101928215620001665791602002820160005b838211156200013557835183826101000a81548160ff021916908360ff1602179055509260200192600101602081600001049283019260010302620000f5565b8015620001645782816101000a81549060ff021916905560010160208160000104928301926001030262000135565b505b506200017492915062000178565b5090565b6200019991905b808211156200017457805460ff191681556001016200017f565b90565b611ba680620001ac6000396000f3fe6080604052600436106100fe5760003560e01c80638d97767211610095578063b343525111610064578063b3435251146105c6578063ceda812c146105db578063d1ff21c214610608578063d882e4bc14610625578063f9a773681461065e576100fe565b80638d977672146103da57806391c0744414610533578063927ce5c81461056c578063a695066e1461059c576100fe565b8063471f40fb116100d1578063471f40fb146102d45780634b5617531461034e57806362159920146103875780636f9fb98a146103c5576100fe565b80630397b6521461010357806313aae8a91461012a578063292a45851461016757806342f19aac146102a1575b600080fd5b34801561010f57600080fd5b50610118610688565b60408051918252519081900360200190f35b34801561013657600080fd5b506101656004803603606081101561014d57600080fd5b5080359060ff6020820135811691604001351661068e565b005b34801561017357600080fd5b506101656004803603604081101561018a57600080fd5b8101906020810181356401000000008111156101a557600080fd5b8201836020820111156101b757600080fd5b803590602001918460018302840111640100000000831117156101d957600080fd5b91908080601f016020809104026020016040519081016040528093929190818152602001838380828437600092019190915250929594936020810193503591505064010000000081111561022c57600080fd5b82018360208201111561023e57600080fd5b8035906020019184600183028401116401000000008311171561026057600080fd5b91908080601f01602080910402602001604051908101604052809392919081815260200183838082843760009201919091525092955061078d945050505050565b3480156102ad57600080fd5b50610165600480360360408110156102c457600080fd5b508035906020013560ff16610a67565b3480156102e057600080fd5b506102fe600480360360208110156102f757600080fd5b5035610b0a565b60408051602080825283518183015283519192839290830191858101910280838360005b8381101561033a578181015183820152602001610322565b505050509050019250505060405180910390f35b34801561035a57600080fd5b506101656004803603604081101561037157600080fd5b50803590602001356001600160a01b0316610b79565b34801561039357600080fd5b506103b1600480360360208110156103aa57600080fd5b5035610ce8565b604080519115158252519081900360200190f35b3480156103d157600080fd5b50610118610f96565b3480156103e657600080fd5b50610404600480360360208110156103fd57600080fd5b5035610f9c565b604051808a8152602001806020018060200189600381111561042257fe5b60ff1681526020018881526020018760ff1660ff1681526020018660ff1660ff1681526020018560ff1660ff16815260200184815260200183810383528b818151815260200191508051906020019080838360005b8381101561048f578181015183820152602001610477565b50505050905090810190601f1680156104bc5780820380516001836020036101000a031916815260200191505b5083810382528a5181528a516020918201918c019080838360005b838110156104ef5781810151838201526020016104d7565b50505050905090810190601f16801561051c5780820380516001836020036101000a031916815260200191505b509b50505050505050505050505060405180910390f35b34801561053f57600080fd5b506101186004803603604081101561055657600080fd5b50803590602001356001600160a01b0316611107565b34801561057857600080fd5b506101656004803603604081101561058f57600080fd5b5080359060200135611133565b3480156105a857600080fd5b506102fe600480360360208110156105bf57600080fd5b50356111fe565b3480156105d257600080fd5b5061011861126b565b3480156105e757600080fd5b50610165600480360360208110156105fe57600080fd5b503560ff16611271565b6101656004803603602081101561061e57600080fd5b50356112f2565b34801561063157600080fd5b506101656004803603604081101561064857600080fd5b50803590602001356001600160a01b0316611352565b34801561066a57600080fd5b506101186004803603602081101561068157600080fd5b50356114ce565b60035481565b6000838152600560209081526040808320338452600601909152902054839060ff166106eb5760405162461bcd60e51b8152600401808060200182810382526026815260200180611b4c6026913960400191505060405180910390fd5b60008481526005602081905260409091209081015460ff62010000909104811690851610801590610720575061072085610ce8565b1561076f576005810180546003808401805460ff19908116909217905560ff8681169088166101000261ff0019909316929092171617905561076185611542565b61076a856115f2565b610786565b60058101805461ff00191661010060ff8716021790555b5050505050565b6000546107986119a7565b50604080516101608101825282815260208082018681528284018690526000606084018190526080840181905260a0840181905260c0840181905260e08401819052845181815280840186526101008501528451818152808401865261012085015261014084018190528581526005835293909320825181559251805192938493909261082c926001850192910190611a0b565b5060408201518051610848916002840191602090910190611a0b565b5060608201518160030160006101000a81548160ff0219169083600381111561086d57fe5b02179055506080820151600482015560a082015160058201805460c085015160e086015160ff1990921660ff9485161761ff00191661010091851682021762ff0000191662010000949092169390930217905582015180516108d9916007840191602090910190611a89565b5061012082015180516108f6916009840191602090910190611a89565b506101409190910151600b90910155600080546001908101825583825260056020818152604080852060078101805480870182558188528488200180546001600160a01b03191633908117909155875260069091018352818620805460ff191690951790945586855291815281518681527fed590dc695d4f7e656b37899068d46e3eafc741b38eb6a6761d919deba842bc69487948a9491939092919082019082018460ff16815260200180602001838103835286818151815260200191508051906020019080838360005b838110156109da5781810151838201526020016109c2565b50505050905090810190601f168015610a075780820380516001836020036101000a031916815260200191505b508381038252848181548152602001915080548015610a4f57602002820191906000526020600020905b81546001600160a01b03168152600190910190602001808311610a31575b5050965050505050505060405180910390a150505050565b60008281526005602090815260408083203380855260089091019092529091205483919060ff16610ac95760405162461bcd60e51b8152600401808060200182810382526023815260200180611b296023913960400191505060405180910390fd5b50506000918252600560208190526040909220918201805460ff92909216620100000262ff000019909216919091179055600301805460ff19166002179055565b600081815260056020908152604091829020600701805483518184028101840190945280845260609392830182828015610b6d57602002820191906000526020600020905b81546001600160a01b03168152600190910190602001808311610b4f575b50505050509050919050565b6000828152600560209081526040808320338452600601909152902054829060ff16610bd65760405162461bcd60e51b8152600401808060200182810382526026815260200180611b4c6026913960400191505060405180910390fd5b60008381526005602090815260408083206001600160a01b038616845260080190915290205460ff1615610c51576040805162461bcd60e51b815260206004820152601a60248201527f576f726b65722063616e6e6f742062652076616c696461746f72000000000000604482015290519081900360640190fd5b6000838152600560209081526040808320600781018054600180820183559186528486200180546001600160a01b0319166001600160a01b03891690811790915580865260068301855294839020805460ff1916909117905581518781529283019390935280517f416071ae19b4e679348d5e18dcb9b077f472eec9ba091ded090ebf6c91214dd39281900390910190a150505050565b6000610cf26119a7565b600560008481526020019081526020016000206040518061016001604052908160008201548152602001600182018054600181600116156101000203166002900480601f016020809104026020016040519081016040528092919081815260200182805460018160011615610100020316600290048015610db45780601f10610d8957610100808354040283529160200191610db4565b820191906000526020600020905b815481529060010190602001808311610d9757829003601f168201915b5050509183525050600282810180546040805160206001841615610100026000190190931694909404601f81018390048302850183019091528084529381019390830182828015610e465780601f10610e1b57610100808354040283529160200191610e46565b820191906000526020600020905b815481529060010190602001808311610e2957829003601f168201915b505050918352505060038281015460209092019160ff1690811115610e6757fe5b6003811115610e7257fe5b81526004820154602080830191909152600583015460ff8082166040808601919091526101008304821660608601526201000090920416608084015260078401805482518185028101850190935280835260a0909401939192909190830182828015610f0757602002820191906000526020600020905b81546001600160a01b03168152600190910190602001808311610ee9575b5050505050815260200160098201805480602002602001604051908101604052809291908181526020018280548015610f6957602002820191906000526020600020905b81546001600160a01b03168152600190910190602001808311610f4b575b50505050508152602001600b820154815250509050610f87836114ce565b61014090910151101592915050565b30315b90565b6005602090815260009182526040918290208054600180830180548651600293821615610100026000190190911692909204601f8101869004860283018601909652858252919492939092908301828280156110395780601f1061100e57610100808354040283529160200191611039565b820191906000526020600020905b81548152906001019060200180831161101c57829003601f168201915b50505060028085018054604080516020601f60001961010060018716150201909416959095049283018590048502810185019091528181529596959450909250908301828280156110cb5780601f106110a0576101008083540402835291602001916110cb565b820191906000526020600020905b8154815290600101906020018083116110ae57829003601f168201915b505050600384015460048501546005860154600b90960154949560ff928316959194508083169350610100810483169262010000909104169089565b60008281526005602090815260408083206001600160a01b0385168452600a0190915290205492915050565b60008281526005602090815260408083203380855260089091019092529091205483919060ff166111955760405162461bcd60e51b8152600401808060200182810382526023815260200180611b296023913960400191505060405180910390fd5b600084815260056020908152604080832033808552600a8201845293829020805488019055815188815292830193909352818101869052517f985da90d0c844be16a09ea33f60b076c56a9f6a963578d8db9b5671ba92c7c739181900360600190a15050505050565b600081815260056020908152604091829020600901805483518184028101840190945280845260609392830182828015610b6d576020028201919060005260206000209081546001600160a01b03168152600190910190602001808311610b4f5750505050509050919050565b60005481565b60ff8181166000818152600560209081526040918290206003808201805460ff191660011790819055935194855290947f469b7cfbb60619eda76c28364bf95ae0afbf0902d135a84497564f799fac00c39487949091169290919082019083908111156112da57fe5b60ff1681526020019250505060405180910390a15050565b600081815260056020908152604091829020600b8101805434908101909155835185815233938101939093528284015291517f197826786b70913e7550f8690960cf2f27ad91f8813f40e7eb4ab20ee08c3ad79181900360600190a15050565b6000828152600560209081526040808320338452600601909152902054829060ff166113af5760405162461bcd60e51b8152600401808060200182810382526026815260200180611b4c6026913960400191505060405180910390fd5b60008381526005602090815260408083206001600160a01b038616845260060190915290205460ff161561142a576040805162461bcd60e51b815260206004820152601a60248201527f56616c696461746f722063616e6e6f7420626520776f726b6572000000000000604482015290519081900360640190fd5b6000838152600560209081526040808320600981018054600180820183559186528486200180546001600160a01b0319166001600160a01b038916908117909155808652600883018552838620805460ff1916909217909155600a820184528285209490945581518781529283019390935280517f3cce0ec637799829662d3d2ce35a4c5bb78ca2a3822a2f415d16f5f924ce45969281900390910190a150505050565b600081815260056020526040812081805b600983015461ffff82161015611536576000836009018261ffff168154811061150457fe5b60009182526020808320909101546001600160a01b03168252600a8601905260409020549290920191506001016114df565b50600354029392505050565b6000818152600560205260408120905b600982015461ffff821610156115ed576000826009018261ffff168154811061157757fe5b60009182526020808320909101546003546001600160a01b03909116808452600a8701909252604080842054600b8801805491909302908190039092555191935091839183156108fc0291849190818181858888f193505050501580156115e2573d6000803e3d6000fd5b505050600101611552565b505050565b6115fa6119a7565b600560008381526020019081526020016000206040518061016001604052908160008201548152602001600182018054600181600116156101000203166002900480601f0160208091040260200160405190810160405280929190818152602001828054600181600116156101000203166002900480156116bc5780601f10611691576101008083540402835291602001916116bc565b820191906000526020600020905b81548152906001019060200180831161169f57829003601f168201915b5050509183525050600282810180546040805160206001841615610100026000190190931694909404601f8101839004830285018301909152808452938101939083018282801561174e5780601f106117235761010080835404028352916020019161174e565b820191906000526020600020905b81548152906001019060200180831161173157829003601f168201915b505050918352505060038281015460209092019160ff169081111561176f57fe5b600381111561177a57fe5b81526004820154602080830191909152600583015460ff8082166040808601919091526101008304821660608601526201000090920416608084015260078401805482518185028101850190935280835260a090940193919290919083018282801561180f57602002820191906000526020600020905b81546001600160a01b031681526001909101906020018083116117f1575b505050505081526020016009820180548060200260200160405190810160405280929190818152602001828054801561187157602002820191906000526020600020905b81546001600160a01b03168152600190910190602001808311611853575b5050509183525050600b919091015460209091015260025460c082015191925060ff9081169116106119a35760005b816101200151518161ffff1610156115ed5760008261012001518261ffff16815181106118c957fe5b60209081029190910181015160048054604080516340c10f1960e01b81526001600160a01b03808616948201949094526001602482015290519395509116926340c10f19926044808401938290030181600087803b15801561192a57600080fd5b505af115801561193e573d6000803e3d6000fd5b505050506040513d602081101561195457600080fd5b5050604080516001600160a01b03831681526001602082015281517ff2c886314f2e9918f317cf9149b925ee2c3f4c18d4aed9ac80aa5b6a8ef25e33929181900390910190a1506001016118a0565b5050565b604051806101600160405280600081526020016060815260200160608152602001600060038111156119d557fe5b81526000602082018190526040820181905260608083018290526080830182905260a0830181905260c083015260e09091015290565b828054600181600116156101000203166002900490600052602060002090601f016020900481019282601f10611a4c57805160ff1916838001178555611a79565b82800160010185558215611a79579182015b82811115611a79578251825591602001919060010190611a5e565b50611a85929150611aea565b5090565b828054828255906000526020600020908101928215611ade579160200282015b82811115611ade57825182546001600160a01b0319166001600160a01b03909116178255602090920191600190910190611aa9565b50611a85929150611b04565b610f9991905b80821115611a855760008155600101611af0565b610f9991905b80821115611a855780546001600160a01b0319168155600101611b0a56fe576f726b6572206973206e6f742061737369676e656420746f2074686973207461736b43616c6c6572206973206e6f7420612076616c696461746f72206f662074686973207461736ba265627a7a72315820b663c1eb3b8d5f1b78c26ddc7c2784f28bcf1fe4106d7d552c0ab60ddc772c3064736f6c634300050c0032",
  "source": "pragma solidity ^0.5.11;\n\nimport '../node_modules/@openzeppelin/contracts/payment/escrow/Escrow.sol';\nimport '../node_modules/@openzeppelin/contracts/payment/PaymentSplitter.sol';\nimport './PPCToken.sol';\n\ncontract TaskList {\n\tuint public task_count = 0;\n\tenum State { created, accepted, completed, validated }\n\tuint8[] ratings = [0, 1, 2, 3, 4, 5, 6, 7, 8, 9, 10];\n\tuint8 ppc_threshold = 90;\n\tuint public salary = 1 ether;\n\t// enum Difficulty { standard, advanced , expert }\n\t// enum Uncertainity { clear, uncertain, unknown }\n\tPPCToken private ppctoken;\n\n\tconstructor (address _ppctoken_address) public {\n\t\tppctoken = PPCToken(_ppctoken_address);\n\t}\n\n\tstruct Task {\n\t\tuint id;\n\t\tstring title;\n\t\tstring description;\n\t\tState state;\n\t\tuint deadline;\n\t\tuint8 Qrating;\n\t\tuint8 ppc;\n\t\tuint8 ppc_worker;\n\t\tmapping(address => bool) validators_map;\n\t\taddress[] validators;\n\t\tmapping(address => bool) workers_map;\n\t\taddress payable[] workers;\n\t\tmapping(address => uint) worked_hours;\n\t\tuint balance;\n\t\t//uint predecessor_id;\n\t\t//uint successor_id;\n\t}\n\n\tmapping(uint => Task) public tasks;\n\n\tevent TaskCreated(\n\t\tuint id,\n\t\tstring title,\n\t\tState state,\n\t\taddress[] validators\n\t);\n\n\tevent Test(bool is_true);\n\n\tmodifier validatorsOnly(uint _task_id) {\n\t\t// checks that the sender is a validator of task\n\t\trequire(tasks[_task_id].validators_map[msg.sender], \"Caller is not a validator of this task\");\n\t\t_;\n\t}\n\n\tmodifier workersOnly(uint _task_id, address _account) {\n\t\trequire(tasks[_task_id].workers_map[_account], \"Worker is not assigned to this task\");\n\t\t_;\n\t}\n\n\tevent TaskState(\n\t\tuint id,\n\t\tState state\n\t);\n\n\tevent validatorAdded(\n\t\tuint task_id,\n\t\taddress validator\n\t);\n\n\tevent workerAdded(\n\t\tuint task_id,\n\t\taddress worker\n\t);\n\n\tevent workedHoursAdded(\n\t\tuint task_id,\n\t\taddress worker,\n\t\tuint _hours\n\t);\n\n\tevent taskFunded(\n\t\tuint task_id,\n\t\taddress sender,\n\t\tuint256 amount\n\t);\n\n\tevent PPCTokenMinted(\n\t\taddress account,\n\t\tuint amount\n\t);\n\n\tfunction createTask(string memory _title, string memory _description) public {\n\t\tuint _id = task_count;\n\t\tTask memory task = Task({\n\t\t\tid: _id,\n\t\t\ttitle: _title,\n\t\t\tdescription: _description,\n\t\t\tstate: State.created,\n\t\t\tdeadline: 0,\n\t\t\tQrating: 0,\n\t\t\tppc: 0,\n\t\t\tppc_worker: 0,\n\t\t\tvalidators: new address[](0),\n\t\t\tworkers: new address payable[](0),\n\t\t\tbalance: 0\n\t\t});\n\t\t// https://medium.com/loom-network/ethereum-solidity-memory-vs-storage-how-to-initialize-an-array-inside-a-struct-184baf6aa2eb\n\t\ttasks[_id] = task;\n\t\ttask_count++;\n\t\ttasks[_id].validators.push(msg.sender);\n\t\ttasks[_id].validators_map[msg.sender] = true;\n\t\temit TaskCreated(_id, _title, State.created, tasks[_id].validators);\n\t}\n\n\tfunction addValidator(uint _task_id, address _validator) public validatorsOnly(_task_id) {\n\t\trequire(!tasks[_task_id].workers_map[_validator], \"Worker cannot be validator\");\n\t\tTask storage _task = tasks[_task_id];\n\t\t_task.validators.push(_validator);\n\t\t_task.validators_map[_validator] = true;\n\t\temit validatorAdded(_task_id, _validator);\n\t}\n\n\tfunction getValidators(uint _task_id) public view returns (address[] memory) {\n\t\treturn tasks[_task_id].validators;\n\t}\n\n\tfunction addWorker(uint _task_id, address payable _worker) public validatorsOnly(_task_id) {\n\t\trequire(!tasks[_task_id].validators_map[_worker], \"Validator cannot be worker\");\n\t\tTask storage _task = tasks[_task_id];\n\t\t_task.workers.push(_worker);\n\t\t_task.workers_map[_worker] = true;\n\t\t_task.worked_hours[_worker] = 0;\n\t\temit workerAdded(_task_id, _worker);\n\t}\n\n\tfunction getWorkers(uint _task_id) public view returns (address payable[] memory) {\n\t\treturn tasks[_task_id].workers;\n\t}\n\n\tfunction addWorkedHours(uint _task_id, uint _hours) public workersOnly(_task_id, msg.sender) {\n\t\tTask storage _task = tasks[_task_id];\n\t\t_task.worked_hours[msg.sender] += _hours;\n\t\temit workedHoursAdded(_task_id, msg.sender, _hours);\n\t}\n\n\tfunction getWorkedHours(uint _task_id, address _worker) public view returns (uint) {\n\t\treturn tasks[_task_id].worked_hours[_worker];\n\t}\n\n\tfunction fundTask(uint _task_id) public payable {\n\t\t// stores funds for the given task in this smart contract\n\t\tTask storage _task = tasks[_task_id];\n\t\t_task.balance += msg.value;\n\t\temit taskFunded(_task_id, msg.sender, msg.value);\n\t}\n\n\tfunction completeTask(uint _task_id, uint8 _ppc) public workersOnly(_task_id, msg.sender) {\n\t\tTask storage _task = tasks[_task_id];\n\t\t_task.ppc_worker = _ppc;\n\t\t_task.state = State.completed;\n\t}\n\n\tfunction neededTaskFund(uint _task_id) public view returns (uint) {\n\t\tTask storage _task = tasks[_task_id];\n\t\tuint amount;\n\t\tfor(uint16 i = 0; i < _task.workers.length; i++) {\n\t\t\taddress payable _worker = _task.workers[i];\n\t\t\tamount += _task.worked_hours[_worker];\n\t\t}\n\t\treturn amount * salary;\n\t}\n\n\tfunction sufficientFunds(uint _task_id) public view returns (bool) {\n\t\tTask memory _task = tasks[_task_id];\n\t\treturn _task.balance >= neededTaskFund(_task_id);\n\t}\n\n\tfunction validateTask(uint _task_id, uint8 _ppc, uint8 _Qrating) public validatorsOnly(_task_id) {\n\t\t// todo: add state check\n\t\tTask storage _task = tasks[_task_id];\n\t\tif(_ppc >= _task.ppc_worker && sufficientFunds(_task_id)) {\n\t\t\t_task.ppc = _ppc;\n\t\t\t_task.state = State.validated;\n\t\t\t_task.Qrating = _Qrating;\n\t\t\treleasePayment(_task_id);\n\t\t\tmintPPCTOken(_task_id);\n\t\t} else {\n\t\t\t_task.ppc = _ppc;\n\t\t}\n\t}\n\n\tfunction releasePayment(uint _task_id) internal {\n\t\tTask storage _task = tasks[_task_id];\n\t\tfor(uint16 i = 0; i < _task.workers.length; i++) {\n\t\t\taddress payable _worker = _task.workers[i];\n\t\t\tuint amount = _task.worked_hours[_worker] * salary;\n\t\t\t_task.balance -= amount;\n\t\t\t_worker.transfer(amount);\n\t\t}\n\t}\n\n\tfunction mintPPCTOken(uint _task_id) internal {\n\t\tTask memory _task = tasks[_task_id];\n\t\tif(_task.ppc >= ppc_threshold) {\n\t\t\tfor(uint16 i = 0; i < _task.workers.length; i++) {\n\t\t\t\taddress _worker = _task.workers[i];\n\t\t\t\tppctoken.mint(_worker, 1);\n\t\t\t\temit PPCTokenMinted(_worker, 1);\n\t\t\t}\n\t\t}\n\t}\n\n\tfunction toggleStarted(uint8 _id) public {\n\t\tTask storage _task = tasks[_id];\n\t\t_task.state = State.accepted;\n\t\t// tasks[_id] = _task;\n\t\temit TaskState(_id, _task.state);\n\t}\n\n\tfunction getContractBalance() public view returns (uint256) {\n        return address(this).balance;\n    }\n}",
  "sourcePath": "/Users/pabrasey/Dropbox/01_Formation/ETHZ/01_Master/02_Projects/Master Thesis/Production/Code/ipd-block/contracts/TaskList.sol",
  "compiler": {
    "name": "solc",
    "version": "0.5.12+commit.7709ece9.Emscripten.clang"
  },
  "schemaVersion": "3.0.19",
  "updatedAt": "2019-12-29T08:35:22.752Z",
  "networkType": "ethereum",
  "devdoc": {
    "methods": {}
  },
  "userdoc": {
    "methods": {}
  }
}