{
  "contractName": "TaskList",
  "abi": [
    {
      "inputs": [
        {
          "internalType": "address",
          "name": "_ppctoken_address",
          "type": "address"
        }
      ],
      "payable": false,
      "stateMutability": "nonpayable",
      "type": "constructor"
    },
    {
      "anonymous": false,
      "inputs": [
        {
          "indexed": false,
          "internalType": "address",
          "name": "account",
          "type": "address"
        },
        {
          "indexed": false,
          "internalType": "uint256",
          "name": "amount",
          "type": "uint256"
        }
      ],
      "name": "PPCTokenMinted",
      "type": "event"
    },
    {
      "anonymous": false,
      "inputs": [
        {
          "indexed": false,
          "internalType": "uint256",
          "name": "id",
          "type": "uint256"
        },
        {
          "indexed": false,
          "internalType": "string",
          "name": "title",
          "type": "string"
        },
        {
          "indexed": false,
          "internalType": "enum TaskList.State",
          "name": "state",
          "type": "uint8"
        },
        {
          "indexed": false,
          "internalType": "address payable[]",
          "name": "validators",
          "type": "address[]"
        }
      ],
      "name": "TaskCreated",
      "type": "event"
    },
    {
      "anonymous": false,
      "inputs": [
        {
          "indexed": false,
          "internalType": "uint256",
          "name": "id",
          "type": "uint256"
        },
        {
          "indexed": false,
          "internalType": "enum TaskList.State",
          "name": "state",
          "type": "uint8"
        }
      ],
      "name": "TaskState",
      "type": "event"
    },
    {
      "anonymous": false,
      "inputs": [
        {
          "indexed": false,
          "internalType": "bool",
          "name": "is_true",
          "type": "bool"
        }
      ],
      "name": "Test",
      "type": "event"
    },
    {
      "anonymous": false,
      "inputs": [
        {
          "indexed": false,
          "internalType": "uint256",
          "name": "task_id",
          "type": "uint256"
        },
        {
          "indexed": false,
          "internalType": "address",
          "name": "sender",
          "type": "address"
        },
        {
          "indexed": false,
          "internalType": "uint256",
          "name": "amount",
          "type": "uint256"
        }
      ],
      "name": "taskFunded",
      "type": "event"
    },
    {
      "anonymous": false,
      "inputs": [
        {
          "indexed": false,
          "internalType": "uint256",
          "name": "task_id",
          "type": "uint256"
        },
        {
          "indexed": false,
          "internalType": "address",
          "name": "validator",
          "type": "address"
        }
      ],
      "name": "validatorAdded",
      "type": "event"
    },
    {
      "anonymous": false,
      "inputs": [
        {
          "indexed": false,
          "internalType": "uint256",
          "name": "task_id",
          "type": "uint256"
        },
        {
          "indexed": false,
          "internalType": "address",
          "name": "worker",
          "type": "address"
        },
        {
          "indexed": false,
          "internalType": "uint256",
          "name": "_hours",
          "type": "uint256"
        }
      ],
      "name": "workedHoursAdded",
      "type": "event"
    },
    {
      "anonymous": false,
      "inputs": [
        {
          "indexed": false,
          "internalType": "uint256",
          "name": "task_id",
          "type": "uint256"
        },
        {
          "indexed": false,
          "internalType": "address",
          "name": "worker",
          "type": "address"
        }
      ],
      "name": "workerAdded",
      "type": "event"
    },
    {
      "constant": true,
      "inputs": [],
      "name": "hourly_rate",
      "outputs": [
        {
          "internalType": "uint256",
          "name": "",
          "type": "uint256"
        }
      ],
      "payable": false,
      "stateMutability": "view",
      "type": "function"
    },
    {
      "constant": true,
      "inputs": [],
      "name": "task_count",
      "outputs": [
        {
          "internalType": "uint256",
          "name": "",
          "type": "uint256"
        }
      ],
      "payable": false,
      "stateMutability": "view",
      "type": "function"
    },
    {
      "constant": true,
      "inputs": [
        {
          "internalType": "uint256",
          "name": "",
          "type": "uint256"
        }
      ],
      "name": "tasks",
      "outputs": [
        {
          "internalType": "uint256",
          "name": "id",
          "type": "uint256"
        },
        {
          "internalType": "string",
          "name": "title",
          "type": "string"
        },
        {
          "internalType": "string",
          "name": "description",
          "type": "string"
        },
        {
          "internalType": "enum TaskList.State",
          "name": "state",
          "type": "uint8"
        },
        {
          "internalType": "uint256",
          "name": "deadline",
          "type": "uint256"
        },
        {
          "internalType": "uint8",
          "name": "Qrating",
          "type": "uint8"
        },
        {
          "internalType": "uint8",
          "name": "ppc",
          "type": "uint8"
        },
        {
          "internalType": "uint8",
          "name": "ppc_worker",
          "type": "uint8"
        },
        {
          "internalType": "uint256",
          "name": "balance",
          "type": "uint256"
        }
      ],
      "payable": false,
      "stateMutability": "view",
      "type": "function"
    },
    {
      "constant": false,
      "inputs": [
        {
          "internalType": "string",
          "name": "_title",
          "type": "string"
        },
        {
          "internalType": "string",
          "name": "_description",
          "type": "string"
        }
      ],
      "name": "createTask",
      "outputs": [],
      "payable": false,
      "stateMutability": "nonpayable",
      "type": "function"
    },
    {
      "constant": false,
      "inputs": [
        {
          "internalType": "uint256",
          "name": "_task_id",
          "type": "uint256"
        },
        {
          "internalType": "address payable",
          "name": "_validator",
          "type": "address"
        }
      ],
      "name": "addValidator",
      "outputs": [],
      "payable": false,
      "stateMutability": "nonpayable",
      "type": "function"
    },
    {
      "constant": true,
      "inputs": [
        {
          "internalType": "uint256",
          "name": "_task_id",
          "type": "uint256"
        }
      ],
      "name": "getValidators",
      "outputs": [
        {
          "internalType": "address payable[]",
          "name": "",
          "type": "address[]"
        }
      ],
      "payable": false,
      "stateMutability": "view",
      "type": "function"
    },
    {
      "constant": false,
      "inputs": [
        {
          "internalType": "uint256",
          "name": "_task_id",
          "type": "uint256"
        },
        {
          "internalType": "address payable",
          "name": "_worker",
          "type": "address"
        }
      ],
      "name": "addWorker",
      "outputs": [],
      "payable": false,
      "stateMutability": "nonpayable",
      "type": "function"
    },
    {
      "constant": true,
      "inputs": [
        {
          "internalType": "uint256",
          "name": "_task_id",
          "type": "uint256"
        }
      ],
      "name": "getWorkers",
      "outputs": [
        {
          "internalType": "address payable[]",
          "name": "",
          "type": "address[]"
        }
      ],
      "payable": false,
      "stateMutability": "view",
      "type": "function"
    },
    {
      "constant": false,
      "inputs": [
        {
          "internalType": "uint256",
          "name": "_task_id",
          "type": "uint256"
        }
      ],
      "name": "acceptTask",
      "outputs": [],
      "payable": false,
      "stateMutability": "nonpayable",
      "type": "function"
    },
    {
      "constant": false,
      "inputs": [
        {
          "internalType": "uint256",
          "name": "_task_id",
          "type": "uint256"
        },
        {
          "internalType": "uint256",
          "name": "_hours",
          "type": "uint256"
        }
      ],
      "name": "addWorkedHours",
      "outputs": [],
      "payable": false,
      "stateMutability": "nonpayable",
      "type": "function"
    },
    {
      "constant": true,
      "inputs": [
        {
          "internalType": "uint256",
          "name": "_task_id",
          "type": "uint256"
        },
        {
          "internalType": "address",
          "name": "_worker",
          "type": "address"
        }
      ],
      "name": "getWorkedHours",
      "outputs": [
        {
          "internalType": "uint256",
          "name": "",
          "type": "uint256"
        }
      ],
      "payable": false,
      "stateMutability": "view",
      "type": "function"
    },
    {
      "constant": false,
      "inputs": [
        {
          "internalType": "uint256",
          "name": "_task_id",
          "type": "uint256"
        }
      ],
      "name": "fundTask",
      "outputs": [],
      "payable": true,
      "stateMutability": "payable",
      "type": "function"
    },
    {
      "constant": false,
      "inputs": [
        {
          "internalType": "uint256",
          "name": "_task_id",
          "type": "uint256"
        },
        {
          "internalType": "uint8",
          "name": "_ppc",
          "type": "uint8"
        }
      ],
      "name": "completeTask",
      "outputs": [
        {
          "internalType": "bool",
          "name": "",
          "type": "bool"
        }
      ],
      "payable": false,
      "stateMutability": "nonpayable",
      "type": "function"
    },
    {
      "constant": true,
      "inputs": [
        {
          "internalType": "uint256",
          "name": "_task_id",
          "type": "uint256"
        },
        {
          "internalType": "address",
          "name": "_worker",
          "type": "address"
        }
      ],
      "name": "getCompletion",
      "outputs": [
        {
          "components": [
            {
              "internalType": "bool",
              "name": "exists",
              "type": "bool"
            },
            {
              "internalType": "uint8",
              "name": "ppc",
              "type": "uint8"
            }
          ],
          "internalType": "struct TaskList.Completion",
          "name": "",
          "type": "tuple"
        }
      ],
      "payable": false,
      "stateMutability": "view",
      "type": "function"
    },
    {
      "constant": true,
      "inputs": [
        {
          "internalType": "uint256",
          "name": "_task_id",
          "type": "uint256"
        }
      ],
      "name": "neededTaskFund",
      "outputs": [
        {
          "internalType": "uint256",
          "name": "",
          "type": "uint256"
        }
      ],
      "payable": false,
      "stateMutability": "view",
      "type": "function"
    },
    {
      "constant": true,
      "inputs": [
        {
          "internalType": "uint256",
          "name": "_task_id",
          "type": "uint256"
        }
      ],
      "name": "sufficientFunds",
      "outputs": [
        {
          "internalType": "bool",
          "name": "",
          "type": "bool"
        }
      ],
      "payable": false,
      "stateMutability": "view",
      "type": "function"
    },
    {
      "constant": false,
      "inputs": [
        {
          "internalType": "uint256",
          "name": "_task_id",
          "type": "uint256"
        },
        {
          "internalType": "uint8",
          "name": "_ppc",
          "type": "uint8"
        },
        {
          "internalType": "uint8",
          "name": "_Qrating",
          "type": "uint8"
        }
      ],
      "name": "validateTask",
      "outputs": [
        {
          "internalType": "bool",
          "name": "",
          "type": "bool"
        }
      ],
      "payable": false,
      "stateMutability": "nonpayable",
      "type": "function"
    },
    {
      "constant": true,
      "inputs": [
        {
          "internalType": "uint256",
          "name": "_task_id",
          "type": "uint256"
        },
        {
          "internalType": "address",
          "name": "_validator",
          "type": "address"
        }
      ],
      "name": "getValidation",
      "outputs": [
        {
          "components": [
            {
              "internalType": "bool",
              "name": "exists",
              "type": "bool"
            },
            {
              "internalType": "uint8",
              "name": "ppc",
              "type": "uint8"
            },
            {
              "internalType": "uint8",
              "name": "Qrating",
              "type": "uint8"
            }
          ],
          "internalType": "struct TaskList.Validation",
          "name": "",
          "type": "tuple"
        }
      ],
      "payable": false,
      "stateMutability": "view",
      "type": "function"
    },
    {
      "constant": true,
      "inputs": [],
      "name": "getContractBalance",
      "outputs": [
        {
          "internalType": "uint256",
          "name": "",
          "type": "uint256"
        }
      ],
      "payable": false,
      "stateMutability": "view",
      "type": "function"
    }
  ],
  "bytecode": "0x6080604052600080556001805460ff1916605a179055670de0b6b3a76400006002553480156200002e57600080fd5b50604051620024593803806200245983398101604081905262000051916200008a565b600380546001600160a01b0319166001600160a01b0392909216919091179055620000df565b80516200008481620000c5565b92915050565b6000602082840312156200009d57600080fd5b6000620000ab848462000077565b949350505050565b60006001600160a01b03821662000084565b620000d081620000b3565b8114620000dc57600080fd5b50565b61236a80620000ef6000396000f3fe6080604052600436106101145760003560e01c80636f9fb98a116100a0578063b343525111610064578063b34352511461032f578063d1ff21c214610344578063d882e4bc14610357578063dee5c0df14610377578063f9a773681461038c57610114565b80636f9fb98a146102785780638d9776721461029a57806391c07444146102cf578063927ce5c8146102ef578063a695066e1461030f57610114565b8063471f40fb116100e7578063471f40fb146101b15780634b561753146101de5780634d893d40146101fe5780635822e7c01461022b578063621599201461025857610114565b806313aae8a9146101195780631bf6912d1461014f578063292a45851461017157806342f19aac14610191575b600080fd5b34801561012557600080fd5b50610139610134366004611d07565b6103ac565b6040516101469190612020565b60405180910390f35b34801561015b57600080fd5b5061016f61016a366004611c59565b6104bc565b005b34801561017d57600080fd5b5061016f61018c366004611bf0565b6105bf565b34801561019d57600080fd5b506101396101ac366004611cd7565b6107d4565b3480156101bd57600080fd5b506101d16101cc366004611c59565b6108aa565b604051610146919061200f565b3480156101ea57600080fd5b5061016f6101f9366004611c77565b61091a565b34801561020a57600080fd5b5061021e610219366004611c77565b610a28565b604051610146919061207c565b34801561023757600080fd5b5061024b610246366004611c77565b610a8f565b604051610146919061206e565b34801561026457600080fd5b50610139610273366004611c59565b610ae1565b34801561028457600080fd5b5061028d610d8f565b604051610146919061208a565b3480156102a657600080fd5b506102ba6102b5366004611c59565b610d95565b60405161014699989796959493929190612126565b3480156102db57600080fd5b5061028d6102ea366004611c77565b610f00565b3480156102fb57600080fd5b5061016f61030a366004611ca7565b610f2c565b34801561031b57600080fd5b506101d161032a366004611c59565b610ff1565b34801561033b57600080fd5b5061028d61105e565b61016f610352366004611c59565b611064565b34801561036357600080fd5b5061016f610372366004611c77565b6110c1565b34801561038357600080fd5b5061028d6111db565b34801561039857600080fd5b5061028d6103a7366004611c59565b6111e1565b6000838152600460209081526040808320338452600601909152812054849060ff166103f35760405162461bcd60e51b81526004016103ea9061205e565b60405180910390fd5b6000858152600460205260409020600260038083015460ff169081111561041657fe5b14801561042657508460ff166000105b8015610436575060648560ff1611155b801561044557508360ff166000105b80156104555750600a8460ff1611155b156104ae573360009081526008820160205260409020805460ff1960ff878116620100000262ff000019918a166101000261ff00199094169390931716919091171660011781556104a587611255565b935050506104b4565b60009250505b509392505050565b60008181526004602090815260408083203380855260099091019092529091205482919060ff166104ff5760405162461bcd60e51b81526004016103ea9061203e565b60008381526004602052604081209060038083015460ff169081111561052157fe5b14156105b957336000908152600c820160205260408120805460ff19166001179055805b600a83015461ffff821610156105a05782600c01600084600a018361ffff168154811061056e57fe5b60009182526020808320909101546001600160a01b0316835282019290925260400190205460ff169150600101610545565b5080156105b75760038201805460ff191660011790555b505b50505050565b6000546105ca611992565b50604080516101608101825282815260208082018681528284018690526000606084018190526080840181905260a0840181905260c0840181905260e08401819052845181815280840186526101008501528451818152808401865261012085015261014084018190528581526004835293909320825181559251805192938493909261065e9260018501929101906119f6565b506040820151805161067a9160028401916020909101906119f6565b5060608201518160030160006101000a81548160ff0219169083600381111561069f57fe5b02179055506080820151600482015560a082015160058201805460c085015160e086015160ff1990921660ff9485161761ff00191661010091851682021762ff00001916620100009490921693909302179055820151805161070b916007840191602090910190611a74565b50610120820151805161072891600a840191602090910190611a74565b506101409190910151600e90910155600080546001908101825583825260046020818152604080852060078101805480870182558188528488200180546001600160a01b03191633908117909155875260069091018352818620805460ff1916909517909455868552919052517fed590dc695d4f7e656b37899068d46e3eafc741b38eb6a6761d919deba842bc6926107c6928692899291906120db565b60405180910390a150505050565b600082815260046020908152604080832033808552600990910190925282205484919060ff166108165760405162461bcd60e51b81526004016103ea9061203e565b6000858152600460205260409020600160038083015460ff169081111561083957fe5b14801561084957508460ff166000105b8015610859575060648560ff1611155b1561089c57336000908152600d8201602052604090208054600161ff001990911661010060ff8916021760ff1916178155610893876113db565b945050506108a2565b60009350505b505092915050565b60008181526004602090815260409182902060070180548351818402810184019094528084526060939283018282801561090d57602002820191906000526020600020905b81546001600160a01b031681526001909101906020018083116108ef575b505050505090505b919050565b6000828152600460209081526040808320338452600601909152902054829060ff166109585760405162461bcd60e51b81526004016103ea9061205e565b60008381526004602090815260408083206001600160a01b038616845260090190915290205460ff161561099e5760405162461bcd60e51b81526004016103ea9061202e565b6000838152600460209081526040808320600781018054600180820183559186528486200180546001600160a01b0319166001600160a01b03891690811790915585526006820190935292819020805460ff1916909217909155517f416071ae19b4e679348d5e18dcb9b077f472eec9ba091ded090ebf6c91214dd3906107c69086908690612098565b610a30611ad5565b5060008281526004602090815260408083206001600160a01b03851684526008018252918290208251606081018452905460ff808216151583526101008204811693830193909352620100009004909116918101919091525b92915050565b610a97611af5565b5060008281526004602090815260408083206001600160a01b0385168452600d0182529182902082518084019093525460ff80821615158452610100909104169082015292915050565b6000610aeb611992565b600460008481526020019081526020016000206040518061016001604052908160008201548152602001600182018054600181600116156101000203166002900480601f016020809104026020016040519081016040528092919081815260200182805460018160011615610100020316600290048015610bad5780601f10610b8257610100808354040283529160200191610bad565b820191906000526020600020905b815481529060010190602001808311610b9057829003601f168201915b5050509183525050600282810180546040805160206001841615610100026000190190931694909404601f81018390048302850183019091528084529381019390830182828015610c3f5780601f10610c1457610100808354040283529160200191610c3f565b820191906000526020600020905b815481529060010190602001808311610c2257829003601f168201915b505050918352505060038281015460209092019160ff1690811115610c6057fe5b6003811115610c6b57fe5b81526004820154602080830191909152600583015460ff8082166040808601919091526101008304821660608601526201000090920416608084015260078401805482518185028101850190935280835260a0909401939192909190830182828015610d0057602002820191906000526020600020905b81546001600160a01b03168152600190910190602001808311610ce2575b50505050508152602001600a8201805480602002602001604051908101604052809291908181526020018280548015610d6257602002820191906000526020600020905b81546001600160a01b03168152600190910190602001808311610d44575b50505050508152602001600e820154815250509050610d80836111e1565b61014090910151101592915050565b30315b90565b6004602090815260009182526040918290208054600180830180548651600293821615610100026000190190911692909204601f810186900486028301860190965285825291949293909290830182828015610e325780601f10610e0757610100808354040283529160200191610e32565b820191906000526020600020905b815481529060010190602001808311610e1557829003601f168201915b50505060028085018054604080516020601f6000196101006001871615020190941695909504928301859004850281018501909152818152959695945090925090830182828015610ec45780601f10610e9957610100808354040283529160200191610ec4565b820191906000526020600020905b815481529060010190602001808311610ea757829003601f168201915b505050600384015460048501546005860154600e90960154949560ff928316959194508083169350610100810483169262010000909104169089565b60008281526004602090815260408083206001600160a01b0385168452600b0190915290205492915050565b60008281526004602090815260408083203380855260099091019092529091205483919060ff16610f6f5760405162461bcd60e51b81526004016103ea9061203e565b6000848152600460205260409020600160038083015460ff1690811115610f9257fe5b14156105b757336000818152600b8301602052604090819020805487019055517f985da90d0c844be16a09ea33f60b076c56a9f6a963578d8db9b5671ba92c7c7391610fe29188919088906120b3565b60405180910390a15050505050565b600081815260046020908152604091829020600a0180548351818402810184019094528084526060939283018282801561090d576020028201919060005260206000209081546001600160a01b031681526001909101906020018083116108ef5750505050509050919050565b60005481565b60008181526004602052604090819020600e8101805434908101909155915190917f197826786b70913e7550f8690960cf2f27ad91f8813f40e7eb4ab20ee08c3ad7916110b59185913391906120b3565b60405180910390a15050565b6000828152600460209081526040808320338452600601909152902054829060ff166110ff5760405162461bcd60e51b81526004016103ea9061205e565b60008381526004602090815260408083206001600160a01b038616845260060190915290205460ff16156111455760405162461bcd60e51b81526004016103ea9061204e565b6000838152600460209081526040808320600a81018054600180820183559186528486200180546001600160a01b0319166001600160a01b0389169081179091558552600982018452828520805460ff19169091179055600b81019092528083209290925590517f3cce0ec637799829662d3d2ce35a4c5bb78ca2a3822a2f415d16f5f924ce4596906107c69086908690612098565b60025481565b600081815260046020526040812081805b600a83015461ffff8216101561124957600083600a018261ffff168154811061121757fe5b60009182526020808320909101546001600160a01b03168252600b8601905260409020549290920191506001016111f2565b50600254029392505050565b6000818152600460205260408120600781015482908180805b8360ff168160ff1610156112f3576000866007018260ff168154811061129057fe5b60009182526020808320909101546001600160a01b031680835260088a01909152604090912080549192509060ff16156112e95780546001979097019660ff610100820481169690960195620100009091041693909301925b505060010161126e565b5060008260ff161180156113185750600585015460ff62010000909104811690831610155b801561132957508260ff168460ff16145b8015611339575061133987610ae1565b156113bc578360ff168260ff168161134d57fe5b60058701805460ff9390920483166101000261ff001990921691909117905581161561139a578360ff168160ff168161138257fe5b60058701805460ff19169290910460ff169190911790555b6003858101805460ff191690911790556113b3876114d8565b6113bc876115e0565b60038581015460ff16818111156113cf57fe5b14979650505050505050565b6000818152600460205260408120600a810154829081805b8260ff168160ff16101561146a57600085600a018260ff168154811061141557fe5b60009182526020808320909101546001600160a01b0316808352600d8901909152604090912080549192509060ff161561146057805460019690960195610100900460ff1693909301925b50506001016113f3565b508160ff168360ff1614156114b8578260ff168160ff168161148857fe5b60058601805460ff9390920492909216620100000262ff00001990911617905560038401805460ff191660021790555b600260038086015460ff16908111156114cd57fe5b149695505050505050565b6000818152600460205260408120905b600a82015461ffff8216101561158357600082600a018261ffff168154811061150d57fe5b60009182526020808320909101546002546001600160a01b03909116808452600b8701909252604080842054600e8801805491909302908190039092555191935091839183156108fc0291849190818181858888f19350505050158015611578573d6000803e3d6000fd5b5050506001016114e8565b50600e81018054600091829055600783018054919290916115a057fe5b60009182526020822001546040516001600160a01b039091169183156108fc02918491818181858888f193505050501580156105b9573d6000803e3d6000fd5b6115e8611992565b600460008381526020019081526020016000206040518061016001604052908160008201548152602001600182018054600181600116156101000203166002900480601f0160208091040260200160405190810160405280929190818152602001828054600181600116156101000203166002900480156116aa5780601f1061167f576101008083540402835291602001916116aa565b820191906000526020600020905b81548152906001019060200180831161168d57829003601f168201915b5050509183525050600282810180546040805160206001841615610100026000190190931694909404601f8101839004830285018301909152808452938101939083018282801561173c5780601f106117115761010080835404028352916020019161173c565b820191906000526020600020905b81548152906001019060200180831161171f57829003601f168201915b505050918352505060038281015460209092019160ff169081111561175d57fe5b600381111561176857fe5b81526004820154602080830191909152600583015460ff8082166040808601919091526101008304821660608601526201000090920416608084015260078401805482518185028101850190935280835260a09094019391929091908301828280156117fd57602002820191906000526020600020905b81546001600160a01b031681526001909101906020018083116117df575b50505050508152602001600a820180548060200260200160405190810160405280929190818152602001828054801561185f57602002820191906000526020600020905b81546001600160a01b03168152600190910190602001808311611841575b5050509183525050600e919091015460209091015260015460c082015191925060ff90811691161061198e5760005b816101200151518161ffff16101561198c5760008261012001518261ffff16815181106118b757fe5b60209081029190910101516003546040516340c10f1960e01b81529192506001600160a01b0316906340c10f19906118f6908490600190600401611fed565b602060405180830381600087803b15801561191057600080fd5b505af1158015611924573d6000803e3d6000fd5b505050506040513d601f19601f820116820180604052506119489190810190611bca565b507ff2c886314f2e9918f317cf9149b925ee2c3f4c18d4aed9ac80aa5b6a8ef25e3381600160405161197b929190611fed565b60405180910390a15060010161188e565b505b5050565b604051806101600160405280600081526020016060815260200160608152602001600060038111156119c057fe5b81526000602082018190526040820181905260608083018290526080830182905260a0830181905260c083015260e09091015290565b828054600181600116156101000203166002900490600052602060002090601f016020900481019282601f10611a3757805160ff1916838001178555611a64565b82800160010185558215611a64579182015b82811115611a64578251825591602001919060010190611a49565b50611a70929150611b0c565b5090565b828054828255906000526020600020908101928215611ac9579160200282015b82811115611ac957825182546001600160a01b0319166001600160a01b03909116178255602090920191600190910190611a94565b50611a70929150611b26565b604080516060810182526000808252602082018190529181019190915290565b604080518082019091526000808252602082015290565b610d9291905b80821115611a705760008155600101611b12565b610d9291905b80821115611a705780546001600160a01b0319168155600101611b2c565b8035610a89816122f8565b8051610a898161230c565b600082601f830112611b7157600080fd5b8135611b84611b7f826121e1565b6121ba565b91508082526020830160208301858383011115611ba057600080fd5b611bab83828461228a565b50505092915050565b8035610a8981612315565b8035610a898161231e565b600060208284031215611bdc57600080fd5b6000611be88484611b55565b949350505050565b60008060408385031215611c0357600080fd5b823567ffffffffffffffff811115611c1a57600080fd5b611c2685828601611b60565b925050602083013567ffffffffffffffff811115611c4357600080fd5b611c4f85828601611b60565b9150509250929050565b600060208284031215611c6b57600080fd5b6000611be88484611bb4565b60008060408385031215611c8a57600080fd5b6000611c968585611bb4565b9250506020611c4f85828601611b4a565b60008060408385031215611cba57600080fd5b6000611cc68585611bb4565b9250506020611c4f85828601611bb4565b60008060408385031215611cea57600080fd5b6000611cf68585611bb4565b9250506020611c4f85828601611bbf565b600080600060608486031215611d1c57600080fd5b6000611d288686611bb4565b9350506020611d3986828701611bbf565b9250506040611d4a86828701611bbf565b9150509250925092565b6000611d608383611d77565b505060200190565b611d718161225e565b82525050565b611d718161223e565b6000611d8b8261221b565b611d958185612229565b9350611da083612209565b8060005b83811015611dce578151611db88882611d54565b9750611dc383612209565b925050600101611da4565b509495945050505050565b6000611de48261221f565b611dee8185612229565b9350611df98361220f565b8060005b83811015611dce57611e0e826122d5565b611e188882611d54565b9750611e2383612223565b925050600101611dfd565b611d7181612249565b611d7181612269565b611d7181612274565b6000611e548261221b565b611e5e8185612229565b9350611e6e818560208601612296565b611e77816122e1565b9093019392505050565b6000611e8e601a83612229565b7f576f726b65722063616e6e6f742062652076616c696461746f72000000000000815260200192915050565b6000611ec7602383612229565b7f576f726b6572206973206e6f742061737369676e656420746f2074686973207481526261736b60e81b602082015260400192915050565b6000611f0c601a83612229565b7f56616c696461746f722063616e6e6f7420626520776f726b6572000000000000815260200192915050565b6000611f45602683612229565b7f43616c6c6572206973206e6f7420612076616c696461746f72206f662074686981526573207461736b60d01b602082015260400192915050565b80516040830190611f918482611e2e565b5060208201516105b96020850182611fe4565b80516060830190611fb58482611e2e565b506020820151611fc86020850182611fe4565b5060408201516105b96040850182611fe4565b611d7181610d92565b611d7181612258565b60408101611ffb8285611d77565b6120086020830184611e40565b9392505050565b602080825281016120088184611d80565b60208101610a898284611e2e565b60208082528101610a8981611e81565b60208082528101610a8981611eba565b60208082528101610a8981611eff565b60208082528101610a8981611f38565b60408101610a898284611f80565b60608101610a898284611fa4565b60208101610a898284611fdb565b604081016120a68285611fdb565b6120086020830184611d68565b606081016120c18286611fdb565b6120ce6020830185611d68565b611be86040830184611fdb565b608081016120e98287611fdb565b81810360208301526120fb8186611e49565b905061210a6040830185611e37565b818103606083015261211c8184611dd9565b9695505050505050565b6101208101612135828c611fdb565b8181036020830152612147818b611e49565b9050818103604083015261215b818a611e49565b905061216a6060830189611e37565b6121776080830188611fdb565b61218460a0830187611fe4565b61219160c0830186611fe4565b61219e60e0830185611fe4565b6121ac610100830184611fdb565b9a9950505050505050505050565b60405181810167ffffffffffffffff811182821017156121d957600080fd5b604052919050565b600067ffffffffffffffff8211156121f857600080fd5b506020601f91909101601f19160190565b60200190565b60009081526020902090565b5190565b5490565b60010190565b90815260200190565b6001600160a01b031690565b6000610a8982612232565b151590565b80610915816122eb565b60ff1690565b6000610a898261227f565b6000610a898261224e565b6000610a8982610d92565b6000610a898261223e565b82818337506000910152565b60005b838110156122b1578181015183820152602001612299565b838111156105b95750506000910152565b6000610a896122d083610d92565b612232565b6000610a8982546122c2565b601f01601f191690565b600481106122f557fe5b50565b6123018161223e565b81146122f557600080fd5b61230181612249565b61230181610d92565b6123018161225856fea365627a7a7231582011d0f195035a449b49df279d856b985b28ebd167e76d3c12e4b21c2a648482b16c6578706572696d656e74616cf564736f6c634300050c0040",
  "source": "pragma solidity ^0.5.11;\npragma experimental ABIEncoderV2;\n\nimport './PPCToken.sol';\n\ncontract TaskList {\n\n\tuint public task_count = 0;\n\tenum State { created, accepted, completed, validated }\n\tuint8 ppc_threshold = 90;\n\tuint public hourly_rate = 1 ether;\n\n\t// enum Difficulty { standard, advanced , expert }\n\t// enum Uncertainity { clear, uncertain, unknown }\n\tPPCToken private ppctoken;\n\n\tconstructor (address _ppctoken_address) public {\n\t\tppctoken = PPCToken(_ppctoken_address);\n\t}\n\n\tstruct Task {\n\t\tuint id;\n\t\tstring title;\n\t\tstring description;\n\t\tState state;\n\t\tuint deadline;\n\t\tuint8 Qrating;\n\t\tuint8 ppc;\n\t\tuint8 ppc_worker;\n\t\tmapping(address => bool) validators_map;\n\t\taddress payable[] validators;\n\t\tmapping(address => Validation) validations;\n\t\tmapping(address => bool) workers_map;\n\t\taddress payable[] workers;\n\t\tmapping(address => uint) worked_hours;\n\t\tmapping(address => bool) acceptations;\n\t\tmapping(address => Completion) completions;\n\t\tuint balance;\n\t\t//uint predecessor_id;\n\t\t//uint successor_id;\n\t}\n\n\tmapping(uint => Task) public tasks;\n\n\tstruct Validation {\n\t\tbool exists;\n\t\tuint8 ppc;\n\t\tuint8 Qrating;\n\t}\n\n\tstruct Completion {\n\t\tbool exists;\n\t\tuint8 ppc;\n\t}\n\n\tevent TaskCreated(\n\t\tuint id,\n\t\tstring title,\n\t\tState state,\n\t\taddress payable[] validators\n\t);\n\n\tevent Test(bool is_true);\n\n\tmodifier validatorsOnly(uint _task_id) {\n\t\t// checks that the sender is a validator of task\n\t\trequire(tasks[_task_id].validators_map[msg.sender], \"Caller is not a validator of this task\");\n\t\t_;\n\t}\n\n\tmodifier workersOnly(uint _task_id, address _account) {\n\t\trequire(tasks[_task_id].workers_map[_account], \"Worker is not assigned to this task\");\n\t\t_;\n\t}\n\n\tevent TaskState(\n\t\tuint id,\n\t\tState state\n\t);\n\n\tevent validatorAdded(\n\t\tuint task_id,\n\t\taddress validator\n\t);\n\n\tevent workerAdded(\n\t\tuint task_id,\n\t\taddress worker\n\t);\n\n\tevent workedHoursAdded(\n\t\tuint task_id,\n\t\taddress worker,\n\t\tuint _hours\n\t);\n\n\tevent taskFunded(\n\t\tuint task_id,\n\t\taddress sender,\n\t\tuint256 amount\n\t);\n\n\tevent PPCTokenMinted(\n\t\taddress account,\n\t\tuint amount\n\t);\n\n\tfunction createTask(string memory _title, string memory _description) public {\n\t\tuint _id = task_count;\n\t\tTask memory task = Task({\n\t\t\tid: _id,\n\t\t\ttitle: _title,\n\t\t\tdescription: _description,\n\t\t\tstate: State.created,\n\t\t\tdeadline: 0,\n\t\t\tQrating: 0,\n\t\t\tppc: 0,\n\t\t\tppc_worker: 0,\n\t\t\tvalidators: new address payable[](0),\n\t\t\tworkers: new address payable[](0),\n\t\t\tbalance: 0\n\t\t});\n\t\t// https://medium.com/loom-network/ethereum-solidity-memory-vs-storage-how-to-initialize-an-array-inside-a-struct-184baf6aa2eb\n\t\ttasks[_id] = task;\n\t\ttask_count++;\n\t\ttasks[_id].validators.push(msg.sender);\n\t\ttasks[_id].validators_map[msg.sender] = true;\n\t\temit TaskCreated(_id, _title, State.created, tasks[_id].validators);\n\t}\n\n\t// TODO: add removeTask function with approval from all validators and workers\n\n\tfunction addValidator(uint _task_id, address payable _validator) public validatorsOnly(_task_id) {\n\t\trequire(!tasks[_task_id].workers_map[_validator], \"Worker cannot be validator\");\n\t\tTask storage _task = tasks[_task_id];\n\t\t_task.validators.push(_validator);\n\t\t_task.validators_map[_validator] = true;\n\t\temit validatorAdded(_task_id, _validator);\n\t}\n\n\tfunction getValidators(uint _task_id) public view returns (address payable[] memory) {\n\t\treturn tasks[_task_id].validators;\n\t}\n\n\tfunction addWorker(uint _task_id, address payable _worker) public validatorsOnly(_task_id) {\n\t\trequire(!tasks[_task_id].validators_map[_worker], \"Validator cannot be worker\");\n\t\tTask storage _task = tasks[_task_id];\n\t\t_task.workers.push(_worker);\n\t\t_task.workers_map[_worker] = true;\n\t\t_task.worked_hours[_worker] = 0;\n\t\temit workerAdded(_task_id, _worker);\n\t}\n\n\tfunction getWorkers(uint _task_id) public view returns (address payable[] memory) {\n\t\treturn tasks[_task_id].workers;\n\t}\n\n\t// accept task for worker calling the function\n\tfunction acceptTask(uint _task_id) public workersOnly(_task_id, msg.sender) {\n\t\tTask storage _task = tasks[_task_id];\n\n\t\tif(_task.state == State.created){\n\t\t\t_task.acceptations[msg.sender] = true;\n\t\t\tbool accepted = false;\n\n\t\t\t// go through every worker's acceptation\n\t\t\tfor(uint16 i = 0; i < _task.workers.length; i++) {\n\t\t\t\taccepted = _task.acceptations[_task.workers[i]];\n\t\t\t}\n\t\t\t// accept the task if all workers have accepted it;\n\t\t\tif(accepted){\n\t\t\t\t_task.state = State.accepted;\n\t\t\t}\n\t\t}\n\t}\n\n\tfunction addWorkedHours(uint _task_id, uint _hours) public workersOnly(_task_id, msg.sender) {\n\t\tTask storage _task = tasks[_task_id];\n\t\tif(_task.state == State.accepted){\n\t\t\t_task.worked_hours[msg.sender] += _hours;\n\t\t\temit workedHoursAdded(_task_id, msg.sender, _hours);\n\t\t}\n\t}\n\n\tfunction getWorkedHours(uint _task_id, address _worker) public view returns (uint) {\n\t\treturn tasks[_task_id].worked_hours[_worker];\n\t}\n\n\tfunction fundTask(uint _task_id) public payable {\n\t\t// stores funds for the given task in this smart contract\n\t\t// the code bellow is just used to keep track of how much funds are allocated to each task\n\t\t// the actual ethers are automatically stored in the contract just by implementing this payable function\n\t\tTask storage _task = tasks[_task_id];\n\t\t_task.balance += msg.value;\n\t\temit taskFunded(_task_id, msg.sender, msg.value);\n\t}\n\n\tfunction completeTask(uint _task_id, uint8 _ppc) public workersOnly(_task_id, msg.sender) returns (bool) {\n\t\tTask storage _task = tasks[_task_id];\n\n\t\tif(_task.state == State.accepted && 0 < _ppc && _ppc <= 100){\n\t\t\tCompletion storage _completion = _task.completions[msg.sender];\n\t\t\t_completion.ppc = _ppc;\n\t\t\t_completion.exists = true;\n\n\t\t\treturn computeCompletion(_task_id);\n\t\t}\n\t\treturn false;\n\t}\n\n\tfunction getCompletion(uint _task_id, address _worker) public view returns (Completion memory) {\n\t\treturn tasks[_task_id].completions[_worker];\n\t}\n\n\t// calculates the mean ratings values from all workers\n\t// completes the task if conditions are met\n\t// return true if the task is completed\n\tfunction computeCompletion(uint _task_id) internal returns (bool) {\n\t\tTask storage _task = tasks[_task_id];\n\t\tuint8 n = 0;\n\t\tuint8 n_workers = uint8(_task.workers.length);\n\t\tuint8 _ppc = 0;\n\n\t\tfor(uint8 i = 0; i < n_workers; i++){\n\t\t\taddress payable _worker = _task.workers[i];\n\t\t\tCompletion storage _completion = _task.completions[_worker];\n\n\t\t\tif(_completion.exists){\n\t\t\t\t_ppc += _completion.ppc;\n\t\t\t\tn++;\n\t\t\t}\n\t\t}\n\n\t\t// for the task to be completed:\n\t\t// - each worker's approval is required\n\t\tif(n == n_workers){\n\t\t\t_task.ppc_worker = _ppc / n;\n\t\t\t_task.state = State.completed;\n\t\t}\n\n\t\treturn _task.state == State.completed;\n\t}\n\n\tfunction neededTaskFund(uint _task_id) public view returns (uint) {\n\t\tTask storage _task = tasks[_task_id];\n\t\tuint amount;\n\t\tfor(uint16 i = 0; i < _task.workers.length; i++) {\n\t\t\taddress payable _worker = _task.workers[i];\n\t\t\tamount += _task.worked_hours[_worker];\n\t\t}\n\t\treturn amount * hourly_rate;\n\t}\n\n\tfunction sufficientFunds(uint _task_id) public view returns (bool) {\n\t\tTask memory _task = tasks[_task_id];\n\t\treturn _task.balance >= neededTaskFund(_task_id);\n\t}\n\n\t// called from each individual validator to set his ratings\n\t// return the result from computeValidation or false if the task was not completed before\n\tfunction validateTask(uint _task_id, uint8 _ppc, uint8 _Qrating) public validatorsOnly(_task_id) returns (bool) {\n\t\tTask storage _task = tasks[_task_id];\n\n\t\t// a validator can only set his ratings if the task was completed before\n\t\tif(_task.state == State.completed && 0 < _ppc && _ppc <= 100 && 0 < _Qrating && _Qrating <= 10){\n\t\t\tValidation storage _validation = _task.validations[msg.sender];\n\t\t\t_validation.ppc = _ppc;\n\t\t\t_validation.Qrating = _Qrating;\n\t\t\t_validation.exists = true;\n\n\t\t\treturn computeValidation(_task_id);\n\t\t}\n\t\treturn false;\n\t}\n\n\tfunction getValidation(uint _task_id, address _validator) public view returns (Validation memory) {\n\t\treturn tasks[_task_id].validations[_validator];\n\t}\n\n\t// calculates the mean ratings values from all validators\n\t// validates the task and perform payments if conditions are met\n\t// return true if the task is validated\n\tfunction computeValidation(uint _task_id) internal returns (bool) {\n\t\tTask storage _task = tasks[_task_id];\n\t\tuint8 n = 0;\n\t\tuint8 n_validators = uint8(_task.validators.length);\n\t\tuint8 _ppc = 0;\n\t\tuint8 _Qrating = 0;\n\n\t\tfor(uint8 i = 0; i < n_validators; i++){\n\t\t\taddress payable _validator = _task.validators[i];\n\t\t\tValidation storage _validation = _task.validations[_validator];\n\n\t\t\tif(_validation.exists){\n\t\t\t\t_ppc += _validation.ppc;\n\t\t\t\t_Qrating += _validation.Qrating;\n\t\t\t\tn++;\n\t\t\t}\n\t\t}\n\n\t\t// for the task to be validated:\n\t\t// - mean ppc from validators has to be greater than the workers' one\n\t\t// - each validator's approval is required\n\t\t// - funds have to be sufficients\n\t\tif(_ppc > 0 && _ppc >= _task.ppc_worker && n == n_validators && sufficientFunds(_task_id)){\n\t\t\t_task.ppc = _ppc / n;\n\n\t\t\tif(_Qrating > 0){\n\t\t\t\t_task.Qrating = _Qrating / n;\n\t\t\t}\n\t\t\t_task.state = State.validated;\n\n\t\t\t// payments\n\t\t\treleasePayment(_task_id);\n\t\t\tmintPPCTOken(_task_id);\n\t\t}\n\n\t\treturn _task.state == State.validated;\n\t}\n\n\tfunction releasePayment(uint _task_id) internal {\n\t\tTask storage _task = tasks[_task_id];\n\t\tfor(uint16 i = 0; i < _task.workers.length; i++) {\n\t\t\taddress payable _worker = _task.workers[i];\n\t\t\tuint amount = _task.worked_hours[_worker] * hourly_rate;\n\t\t\t_task.balance -= amount;\n\t\t\t_worker.transfer(amount);\n\t\t}\n\t\tuint rest = _task.balance;\n\t\t_task.balance -= rest;\n\t\t_task.validators[0].transfer(rest); // return the rest to the validator\n\t\t// TODO: keep track of which address funded the task\n\t}\n\n\tfunction mintPPCTOken(uint _task_id) internal {\n\t\tTask memory _task = tasks[_task_id];\n\t\tif(_task.ppc >= ppc_threshold) {\n\t\t\tfor(uint16 i = 0; i < _task.workers.length; i++) {\n\t\t\t\taddress _worker = _task.workers[i];\n\t\t\t\tppctoken.mint(_worker, 1);\n\t\t\t\temit PPCTokenMinted(_worker, 1);\n\t\t\t}\n\t\t}\n\t}\n\n\tfunction getContractBalance() public view returns (uint256) {\n        return address(this).balance;\n    }\n}",
  "sourcePath": "/Users/pabrasey/Dropbox/01_Formation/ETHZ/01_Master/02_projects/Master Thesis/Production/Code/ipd-block/contracts/TaskList.sol",
  "compiler": {
    "name": "solc",
    "version": "0.5.12+commit.7709ece9.Emscripten.clang"
  },
  "schemaVersion": "3.0.19",
  "updatedAt": "2020-01-08T11:41:43.670Z",
  "networkType": "ethereum",
  "devdoc": {
    "methods": {}
  },
  "userdoc": {
    "methods": {}
  }
}